:10000000C8150020E5A5000045A6000049A600008F
:100010004DA6000051A6000055A6000000000000FB
:1000200000000000000000000000000059A60000D1
:100030005DA600000000000061A6000065A60000AB
:1000400069A60000097200006DA600001172000090
:100050003D7200001B720000197200003572000032
:1000600071A60000BD4F00003F630000F1A2000038
:1000700075A6000079A600007DA6000081A60000FC
:1000800085A60000D94F000089A600008DA60000BB
:1000900091A6000095A6000099A600009DA600006C
:1000A000A1A60000A5A60000A9A6000025720000D8
:1000B0002D7200000F5C0000ADA60000B1A600008C
:1000C000D7A20000B5A600008B0013EB401313F17C
:1000D00084431A6070470200880010EB421010F150
:1000E00084400068704710F1C0621160704710F1E1
:1000F00080621160704770B504000D001600290081
:100100002000FFF7F4FF31002000FFF7ECFF70BD87
:10011000006808407047012111FA00F0704738B5B7
:100120000400B4F5004F01D2012000E00020C0B26D
:10013000601CB0FA80F0D0F11F0005002800FFF726
:10014000EAFF401E844201D1012000E00020C0B23D
:10015000280032BD70B504000D00A54201D3002671
:1001600000E0012632001021DFF8B407FFF7ACFFF2
:1001700032001821DFF82409FFF7A6FF70BD10B583
:100180001021DFF89C07FFF7A6FF04001821DFF815
:100190000C09FFF7A0FF01008C4201D1012000E013
:1001A0000020C0B2200010BDDFF800190968080067
:1001B000704738B5DFF8F80800F02BFB0500EDB20A
:1001C0002800072805D0082807D100F0E1FE040028
:1001D00005E0FFF7E9FF040001E000200400200033
:1001E00032BD10B4DFF8CC381B68002B01D00122DF
:1001F00000E0002241F67133DFF8B8482360DFF8F1
:1002000024371B6813F040731900DFF81C3798423D
:1002100007D2DFF81837984203D35FF080731900D4
:1002200001E000231900DFF8FC361B6833F040734F
:100230000B43DFF8F0462360D2B2002A03D000233C
:10024000DFF87048236010BC704780B500F09EFE58
:10025000FFF7C7FF01BD01000F22CB1C934201D263
:10026000C81C00E010000007704770B504000026AD
:100270002000DFF82C18884207D0DFF828188842C1
:1002800003D0DFF83418884200D1FFE7200000F0E7
:10029000C0FA05002000DFF80818884208D0DFF80F
:1002A000041888420BD0DFF8101888420ED014E0F2
:1002B000DFF80808006810F0070005000DE0DFF81F
:1002C0000008006810F00700050006E0DFF8F407FA
:1002D000006810F007000500FFE7002D21D0022D77
:1002E00008D003D3042D09D00CD31CE000F076FE17
:1002F000060018E000F078FE060014E000F071FE41
:10030000060010E0DFF894070068C00104D500F093
:100310002DFE8008060003E000F028FE40080600DD
:1003200001E000200600300070BDDFF87C1709688E
:10033000C90704D4DFF8901709680142FAD1704761
:1003400010B50400200000F0F0F8401C10BD38B5D6
:1003500004000D00691E200000F052F931BD2DE9A6
:10036000F04104000D005FF00008C4F30320C0B2A8
:1003700001280CD0022812D005280CD0062812D053
:10038000072816D009281AD00A281FD022E0DFF843
:10039000900506001FE0DFF8100806001BE0DFF8FC
:1003A0000C08060017E0DFF8080806000120804668
:1003B00011E0DFF800080600102080460BE0DFF8AF
:1003C000F80706005FF48030804604E0DFF8A009FB
:1003D000060000E00EE0C4F304300700B8F1000F9F
:1003E00002D04046FFF7A1FFEDB22A0039003000ED
:1003F000FFF76AFEBDE8F08138B5040014F4781008
:10040000002824D0B0F5003F35D0B0F5802F22D0A1
:10041000B0F5002F2BD0B0F5202F38D0B0F5402FFD
:1004200077D0B0F5602F78D0B0F5801F41D0B0F50F
:10043000901F44D0B0F5A01F56D0B0F5C01F32D0E9
:10044000B0F5D01F4AD0B0F5F01F5CD069E000F0E5
:100450009FFD050067E000F09BFD0500DFF85C07ED
:100460000068C0F30820401CB5FBF0F55BE000F02D
:100470008FFD050057E000F08BFD0500DFF8400719
:100480000068C0F30820401CB5FBF0F54BE000F01D
:100490007FFD0500DFF884080068C0F30420401CDD
:1004A000B5FBF0F53FE0DFF8F805FFF7DEFE0500ED
:1004B00039E0DFF80406FFF7D8FE050033E0DFF887
:1004C000E005FFF7D2FE0500DFF85408006810F0E1
:1004D0000F00FFF720FEB5FBF0F524E0DFF8C405C0
:1004E000FFF7C3FE05001EE0DFF8B805FFF7BDFE0D
:1004F0000500DFF88008006810F00300FFF70BFE2E
:10050000B5FBF0F50FE0DFF8B005FFF7AEFE050034
:1005100009E0FFF74EFE050005E0FFF745FE050088
:1005200001E000200500280032BD70B50400C4F3CE
:1005300003100500012D0CD05ED3032D17D00FD36F
:10054000052D22D01AD3072D39D025D3082D49D017
:1005500052E0DFF848050068C0F3042006004DE0D3
:10056000DFF8B8070068C0F30420060046E0DFF8B3
:100570002C050068C0F3006006003FE0DFF83C0691
:100580000068C0F30820060038E0DFF83406006891
:10059000C0F30820060031E0DFF8DC0784420BD10D
:1005A000DFF87C07006810F00F0006003000FFF74E
:1005B000B2FD401E060001E0002006001EE0DFF84C
:1005C000BC0784420BD1DFF8AC07006810F00300D1
:1005D00006003000FFF79FFD401E060001E00020EE
:1005E00006000BE0DFF82409844202D10020060057
:1005F00001E00020060001E000200600300070BD90
:10060000F8B504000D00C4F303100700012F10D04B
:10061000C0F0FE80032F44D032D3052F64D051D3D5
:10062000072F00F0C080C0F08780082F00F0D7802F
:10063000EEE0202D01D2012000E00020C0B2FFF743
:1006400004FEDFF88814DFF81408FFF783FDDFF8F5
:100650004C04006830F4F85050EA0520DFF83C14F0
:10066000086000F083FC06003000FFF7BAFDDFF8F9
:100670005C08FFF7C1FEDFF85414FFF76BFDC7E01D
:10068000202D01D2012000E00020C0B2DFF88C064E
:10069000006830F4F85050EA0520DFF88016086052
:1006A000B6E0022D01D2012000E00020C0B2DFF848
:1006B000EC03006830F0807050EA0560DFF8DC136E
:1006C0000860A5E0B5F5007F01D2012000E0002020
:1006D000C0B2DFF8E80400686FF3102050EA05208C
:1006E000DFF8D814086093E0B5F5007F01D201204F
:1006F00000E00020C0B2FFF7A8FDDFF8D013DFF85C
:100700005C07FFF727FDDFF8B80400686FF31020DF
:1007100050EA0520DFF8A814086000F027FC060066
:100720003000FFF75EFDDFF8A407FFF765FEDFF896
:100730009C13FFF70FFD6BE02000DFF8D017884215
:1007400004D0DFF83416884214D02BE0002D01D1FC
:10075000012000E00020C0B25FF48020FFF7E5FD3B
:10076000DFF8AC070068000900012843DFF8A01794
:10077000086017E0B5F5004F01D8012000E0002027
:10078000C0B22800FFF7CBFC05000420FFF7CDFD29
:10079000DFF88C050068000900012843DFF88015A8
:1007A0000860FFE734E0DFF8D405844216D1092D54
:1007B00001D2012000E00020C0B22800FFF7AFFC0A
:1007C00005004020FFF7B1FDDFF8A80500688008AC
:1007D00080002843DFF89C150860FFE718E0DFF889
:1007E0002C07844213D1002D01D1012000E000200C
:1007F000C0B25FF48020FFF798FDDFF814070068AF
:10080000000900012843DFF808170860FFE7FFE749
:10081000F1BD0100012011F00F031A001300012B9C
:1008200008D0022B1ED0032B33D0052B4DD0062B26
:1008300062D070E0DFF8DC361B6813F00703022B90
:100840000AD00CD3042B01D003D308E002231800F4
:1008500007E00323180004E00423180001E0052347
:1008600018005AE0954B1B6813F00703012B04D0C6
:10087000022B05D0042B06D008E00323180007E064
:100880000223180004E00923180001E001231800E6
:1008900043E08B4B1B6813F00703012B06D011D3E9
:1008A000032B0CD005D3042B06D00BE00323180038
:1008B0000AE00223180007E00923180004E00623D9
:1008C000180001E00123180027E07E4B1B6813F09D
:1008D0000703012B04D0022B05D0042B06D008E01F
:1008E0000323180007E00223180004E0092318007E
:1008F00001E00123180010E0DFF81C361B6813F03C
:100900000103002B04D0012B04D10823180001E0BF
:100910000723180001E000231800C0B27047000050
:1009200000400E4004000E40015A620281BA8C0160
:100930002DE9F84F04000D00032603275FF0000B9C
:1009400014F00F0082465046012806D002284CD0F1
:10095000032864D0052855D09CE0EDB22800022879
:1009600008D003280BD004280ED0052816D009285B
:100970001ED01EE004200600002007001AE003201D
:1009800006000120070015E00220060002200700F3
:100990004E49DFF8C804FFF7DDFB0BE0012006003D
:1009A000032007004949DFF8B404FFF7D3FB01E057
:1009B00072E071E0012201213800C0B200F002F9BA
:1009C000FFF743FCDFF854050660DFF80005FFF78A
:1009D00013FD3E49FFF7BEFB00F02AFC00F0C6FA0B
:1009E00080464046FFF7FDFB54E0BBF1000F02D10B
:1009F000DFF8C8B0FFE7EDB2062D01D0012000E01E
:100A00000020C0B2BBF1000F02D1DFF8B8B0FFE7A1
:100A1000EDB2062D01D0012000E00020C0B2BBF1F4
:100A2000000F02D1DFF898B0FFE7EDB228000128EF
:100A300008D0022809D003280FD0062815D009288D
:100A400021D023E00020814621E001220121002065
:100A500000F0B8F80220814619E0012201210120AE
:100A600000F0B0F80120814611E000F07FFA17494C
:100A7000FFF770FB01220021DFF82C01FFF724FBB8
:100A80000320814603E00420814600E004E0CBF827
:100A90000090FFE7FFF773FBBDE8F18F00410E40C8
:100AA0000200180003001A0044410E409C00002080
:100AB00006000C0040000E4005001E0080400E4065
:100AC00084400E4088400E4040410E400048E801FE
:100AD00038B504001120FFF79CFE042801D0012046
:100AE00000E00020C0B201220021022000F06AF8DC
:100AF0006078002806D1A078002803D1E07890F033
:100B0000010000E00020C0B20025207C012801D0B7
:100B1000012000E00020C0B2207C022801D1012089
:100B200005002078002802D04FF4807000E00020FB
:100B300055EA000240F20111DFF8EC03FFF7DBFA9F
:100B4000E27A0721DFF8E403FFF7D5FAA088617A9B
:100B500051EAC022DFF8D813DFF8D803FFF7CBFA49
:100B6000207AFFF778FBE188227AD20152EAC1218C
:100B7000A27A114350EA01027FF07F61DFF8B803E7
:100B8000FFF7B9FA207B617B090351EA0040A17BA2
:100B900050EA0110E17B51EA0002DFF8A013DFF810
:100BA000A003FFF7A8FA31BDB0400E40C0400E4090
:100BB000E0400E40E8400E40F0400E400C410E4038
:100BC00008410E402DE9F84F04000D001600E4B274
:100BD000002C29D0022C0CD01DD3042C12D02ED2E4
:100BE0000120814602208246012007000020804625
:100BF00026E00420814608208246032007000220C8
:100C000080461DE0102081462020824605200700F6
:100C10000420804614E04020814680208246072040
:100C20000700062080460BE04FF4807081464FF4A9
:100C300000708246092007000820804600E06BE033
:100C4000EDB2002D5DD05FF0000BE4B2022C16D1A6
:100C5000DFF8D402006810F0300F10D10120834675
:100C6000DFF8C4020068C00709D5DFF8BC020068DD
:100C700030F0300050F01000DFF8AC120860DFF800
:100C8000C402C0F800904146DFF8BC02FFF723FA27
:100C90000028F8D0F6B2002E3CD03900DFF8A802C8
:100CA000FFF719FA0028F8D0E4B2022C32D15FFA2B
:100CB0008BFBBBF1000F2DD09B480068C00705D50A
:100CC00001222021022000F003F903E0002102208C
:100CD00000F0C6F8022000F025F800900122002163
:100CE0000220FFF76FFF0099022000F049F89548B5
:100CF000C0F8009039009448FFF7EDF9002809D1B9
:100D0000F8E79048C0F800A041468F48FFF7E3F9A4
:100D10000028F9D100F08CFABDE8F18F14410E40A3
:100D200020410E400100C9B2012906D01DD303297C
:100D300009D014D304290CD017E0844A1268D205D4
:100D4000D20D100013E0774A126812F07F021000F3
:100D50000DE07F4A126812F07F02100007E07D4A22
:100D600012685205520D100001E000221000704779
:100D700050410E4028410E406006120070071400DA
:100D800070B504000E00E4B2012C06D064D3032C2D
:100D90001AD045D3042C2DD05EE0B6F5007F01D2E9
:100DA000012000E00020C0B2F605F60D1A215C48D3
:100DB000FFF791F90028F9D164480068400A400221
:100DC00030436249086047E0802E01D2012000E0F4
:100DD0000020C0B216F07F0618215148FFF77BF9BA
:100DE0000028F9D14F480068C009C00130434D497F
:100DF000086031E0802E01D2012000E00020C0B266
:100E000016F07F0619214648FFF765F90028F9D149
:100E10004F480068C009C00130434D4908601BE0DD
:100E200049480068800810F0010090F00100C0B24D
:100E30003D48006830F0300050F010003A4908603A
:100E4000C6F3C310FFF707FA050055EA0602424948
:100E50003948FFF750F9FFE770BD00000148E8018D
:100E600070B504000D00E4B2022C01D1012000E0B5
:100E70000020C0B230212C48FFF74AF9002803D1E6
:100E80005FF44000060012E0EDB22800002808D010
:100E9000202802D0302804D007E05FF400000600CC
:100EA00005E05FF44000060001E02C4806002648FB
:100EB00000683040B042FAD1700205D52848006879
:100EC000800A10F0010000E0012070BD000508005C
:100ED00070B504000D001600E4B2022C13D1EDB27F
:100EE000002D06D04FF480601E490860EDB21E4808
:100EF0000560F6B2002E06D02900C9B22000C0B2AB
:100F0000FFF7AEFF00E0012070BD00008009100077
:100F100030410E4094400E4070400E4074400E40F0
:100F200040410E4010400E4024400E4028400E40EC
:100F30007FF80F002C400E4030400E40FFF00F00B5
:100F400034400E4060400E4090400E4020400E4025
:100F500018400E409C400E40FF0700F0FF03C10701
:100F6000A0400E40A8400E4064400E4038B500F04E
:100F70000FF804001E480068C0F308200500681C34
:100F8000B4FBF0F41B480460200032BD1A487047DF
:100F90001A49096811F0070102290CD00FD304295E
:100FA00001D004D30BE01649096808000AE04FF4A9
:100FB0000041080006E013490968080002E01249F0
:100FC0000968080011490968C1F30421491CB0FBF4
:100FD000F1F070470B480068704770474FF40040CD
:100FE00070474FF47A7070470548006870470000FA
:100FF00008410E409C11002000F0490294400E4030
:10100000AC000020A8000020B000002000410E40ED
:1010100080B5FFF7ABFF01BD8B0013EB401313F15D
:1010200084431A6070470200880010EB421010F1F0
:101030008440006870470068084070470020DFF86F
:1010400044190860704745F60E00DFF8381908604B
:101050007047DFF848090068C0B27047DFF8400900
:101060000068000CC0B2704738B5DFF81809006896
:1010700010F001000500FFF7E6FF00200400DFF894
:101080000809007810F001000443DFF8FC0800783C
:10109000C00601D5102000E000200443DFF8E80876
:1010A0000078400601D5402000E000200443DFF82E
:1010B000D8080078400701D5042000E00020044350
:1010C000DFF8C4080068C00502D54FF4807000E066
:1010D00000200443DFF8B4080460DFF8B4080078A7
:1010E00010F0070002281DD036D3042810D033D2C8
:1010F000DFF8A0080068800009D4DFF89C080068C9
:101100000006FAD50320DFF8B0180860FFE723E0F7
:10111000DFF8840800688005FAD50420DFF8981805
:10112000086019E0DFF8700800680007FAD5302180
:10113000DFF86008FFF77FFF002808D15FF4400167
:10114000DFF85408FFF777FFB0F5400FF6D1022023
:10115000DFF864180860FFE7002D01D0FFF76EFF8D
:1011600031BD38B50400E4B2002C13D0DFF85008CC
:101170000068DFF830180860DFF84408006830F4D1
:101180007F40050055F4EE45DFF83408056000F0B7
:10119000E9F807E0DFF80C080068DFF824180860B9
:1011A00000F0E0F831BDDFF81408007801280FD115
:1011B000DFF8F407006810F00300012804D1DFF81D
:1011C000EC070068C003FAD50220DFF8F0170870BA
:1011D000704710B50400DFF8C0070068DFF8A817F3
:1011E0000860DFF8CC070068DFF8A4170880DFF894
:1011F000C407006850F00400DFF8B8170860012049
:10120000FFF7AFFFFFF7CFFF30BF0020FFF7A9FFC9
:10121000E4B2002C02D0FFF727FF08E0DFF87007E8
:10122000007810F00700012801D0FFF7F1FE10BD93
:10123000DFF864070068DFF850170860DFF8700710
:101240000068DFF84C1708807047F0B4DFF8743797
:10125000DFF87447DFF87457DFF87467DFF87477E6
:10126000DFF874C7DFF87407006810F1010F21D0B0
:101270005868010018680200116060680100206869
:10128000020011606868010028680200116070683F
:1012900001003068020011607868010038680200BF
:1012A0001160DCF804000100DCF8000002001160AD
:1012B000012000E00020F0BC704738B5DFF82007BF
:1012C000006850F08070DFF818170860042000F004
:1012D00036FBDFF81007006830F0C040DFF8041775
:1012E0000860DFF8DC06006850F00600DFF8D01672
:1012F0000860FFF7B3FE050000A800F09FFBEDB209
:10130000102D02DBEDB21C2D05DBEDB2512D02D00C
:10131000EDB2532D25D19DF80100012821D19DF872
:10132000000003281DDADFF894060078002818D1A1
:10133000DFF8B406006850F00100DFF8AC16086072
:10134000DFF8A00600680400DFF8A0060440DFF81C
:10135000A0060443DFF88C0604600120DFF85C1669
:10136000087031BDF0B401242505DFF854663668F5
:10137000C6F303263200DFF87C663688DFF8747621
:101380003F8828375FF0020C97FBFCF717FA86F6C8
:101390002836571C5FF0050C0CFB07F7B6FBF7F679
:1013A000761E3000072800D30720000630F0E066E4
:1013B000002E01D1012600E00026F6B235F4E00649
:1013C000002E01D1012600E00026F6B2DFF8F0651C
:1013D000366836F0EE6606432E43DFF8E4753E606D
:1013E000DFF81466B6F90060002E2BD4DFF808662B
:1013F000368833009BB213F12806022796FBF7F6D6
:1014000016FA83F62836571C12F1010C5FEA5C0CC1
:101410001CEB4707B6FBF7F63100072900D307217D
:10142000090131F07006002E01D1012600E00026EE
:10143000F6B2DFF8C865366836F070060E43DFF89E
:10144000BC753E60F0BC7047DFF8A8251080DFF85F
:10145000A82511807047F8B504000D00FFF7F9FDCD
:101460000600F6B2042E0BDADFF8940500680700D8
:10147000E4B2002C02D0C7F3072719E0FFB217E04F
:10148000DFF8800500680700002D05D0022D08D088
:1014900004D3032D08D009E0FFB209E0C7F3072702
:1014A00006E0C7F3074703E03F0E01E0002010E02D
:1014B0003F0337F47040002801D0002009E0DFF836
:1014C0002005006830F470403843DFF814150860D8
:1014D0000120F2BD10B50400DFF82C050068C0073C
:1014E000FAD4E4B2002C01D1002200E001220D2147
:1014F000DFF81805FFF790FDDFF8AC0400688008FE
:101500008000E4B22043DFF8A014086010BD38B5B5
:1015100004002078DFF8F8140860DFF8F4040068AD
:1015200010F00F002178884201D000207DE0FFF705
:101530008CFE2089C92801DA012000E00020C0B219
:101540002089A188884201D3012000E00020C0B298
:10155000B4F90C00C92801DA012000E00020C0B273
:101560006078012806D1A088C92801DA012000E0AE
:101570000020C0B2E08842F21171884201DA0120F5
:1015800000E00020C0B2E0884B2802DA002005000D
:1015900013E0E088B0F5FA7F03DA5FF080500500D1
:1015A0000BE0E08840F6C411884203DA5FF0005097
:1015B000050002E05FF040500500DFF80404006819
:1015C000B4F90C10002901D4012100E00021DFF85A
:1015D0004424104028430843DFF8E4130860FFF771
:1015E0006CFEB4F90C102089FFF72EFFA088DFF8FD
:1015F00028140880A08800F050F901220121608899
:1016000000F014F8002801D100200EE0A07A002894
:1016100001D0012200E000220521DFF80004FFF7DD
:10162000FBFC6078FFF756FF012032BD2DE9F74F34
:1016300084B05FF0000B0025002600200090002001
:10164000019000208DF80800DFF8C403006810F056
:101650000F0002280FD10498B0F5E16F08D3049869
:1016600040F6B931884203D201208DF8080002E02B
:1016700000208DF808009DF80800002801D1002006
:1016800008E100200400E4B2022C80F20281E4B2FE
:10169000002C03D19DF81400002806D0E4B2012CE0
:1016A00004D19DF81800002800D1F0E0E4B2002C2D
:1016B00002D0DFF86C7301E0DFF86873E4B2002C4D
:1016C00002D05FF0080801E05FF001080498B0F56F
:1016D000E16F02D95FF0010901E05FF000095FFAF4
:1016E00089F9B9F1000F0ED04FF4E160009040F697
:1016F000B8300190E4B2002C02D05FF0020A0AE098
:101700005FF0010A07E04FF4966000904FF4E1604B
:10171000019000208246E4B2002C18D05FFA89F9CB
:10172000B9F1000F09D0DFF80003006883465FEAD3
:101730001B600500CBF3074B8AE0DFF8EC02006882
:101740008346CBF3072005005FFA8BFB80E0DFF8D0
:101750007002006810F0405003901AF0405F01D111
:10176000012000E00020C0B2039850EA0A000028DF
:101770003CD0401E12D07FF07041401A40D0401E35
:1017800016D07FF07041401A44D0401E1AD07FF02E
:101790007041401A48D0401E1ED04FE0DFF88C0246
:1017A00000688346CBF3072005005FFA8BFB45E01A
:1017B000DFF87802006883465FEA1B600500CBF320
:1017C000074B3BE0DFF8680200688346CBF3072055
:1017D00005005FFA8BFB31E0DFF8540200688346B6
:1017E0005FEA1B600500CBF3074B27E0DFF8EC0155
:1017F00000688346CBF3072005005FFA8BFB1DE0F2
:10180000DFF8D801006883465FEA1B600500CBF370
:10181000074B13E0DFF81C0200688346CBF3072078
:1018200005005FFA8BFB09E0DFF8080200688346D9
:101830005FEA1B600500CBF3074BFFE70398010F3E
:101840004846C0B2FFF707FE002801D1002021E082
:1018500000980199884201D300201BE00498009968
:10186000401AB5EB0B0148430199009A891AB0FB65
:10187000F1F006001BEB0606B54201D35E4501D22E
:10188000002007E016FA08F05AEA00003860641CED
:10189000F9E6012007B0BDE8F08F70B5040000251F
:1018A000DFF89401006810F00706DFF81401006803
:1018B000C00710D5022E0ED3142C02D2042005002E
:1018C0002EE0142C04D3282C02D20820050027E097
:1018D0001020050024E0DFF8E8000068C00710D4FD
:1018E000022E0ED20A2C02D20420050018E00A2C87
:1018F00004D3142C02D20820050011E010200500AA
:101900000EE0DFF8BC000068C00709D5022E07D240
:10191000282C02D20820050002E010200500FFE775
:101920006D1E280350EA0525DFF89400006830F4A6
:101930007F40284322490860FFF714FD70BD38B589
:10194000040000211E48FFF76EFB0500002D02D1A8
:10195000E4B2022C01DB002D01D0012000E00020C8
:10196000C0B2DFF8D4000068C008C000E4B2204371
:10197000DFF8C4100860DFF8A0000088FFF78DFFD3
:1019800031BD000080410E404011002060400E40FB
:101990002E11002024400E4090400E400082E00FA7
:1019A000FC81E00F4411002040300E407C300E409E
:1019B00094400E4010ED00E074400E40B71100203E
:1019C0004C300E403880E00F4080E00F4880E00F40
:1019D0005080E00F5880E00F6080E00F1C83E00F24
:1019E0006C300E4060300E4044300E40000F0EF060
:1019F000B4C0400BAC110020B011002050300E409C
:101A00002C83E00F3083E00F78300E4054300E40CE
:101A100038300E40FEFFFFCFAE1100203C300E40AC
:101A20005C300E4064300E401883E00F2483E00FDA
:101A30002883E00F2083E00F70300E400E4A1268BA
:101A400012F00F02920011000C4A1268C2F38112C8
:101A500011438170094A126812F03F024270084A2D
:101A6000126812F0F0021100064A1268C2F3031263
:101A700011430170704700BFE4FF0FE0E0FF0FE08B
:101A8000E8FF0FE0ECFF0FE02DE9F04FA1B0824638
:101A9000002017461D4602910B900DF1440B6FF08C
:101AA00000490AE017F8011B0298D047029000286D
:101AB00000F0A8820B98401C0B90387808B90B985E
:101AC000A2E22528EED1002005900690079008900C
:101AD00009900A9001E040F0010017F8011F202949
:101AE000F9D023290DD02B2904D02D2906D0302957
:101AF0000AD00CE040F0020080B2EEE740F00400B3
:101B0000FAE740F00800F7E740F01000F4E72A2970
:101B10000ED12968296051F8042B2960002A0D9202
:101B200004D5514240F004000D9180B27F1C11E0B9
:101B300000210D9109E00D99494505D001EB810384
:101B400002EB430130390D917F1C3A78A2F130014C
:101B50000A29F0D339782E2903D04FF0FF310C91A8
:101B60001DE017F8011F2A2907D1296829607F1C69
:101B700051F8042B29600C9211E000210C9109E02E
:101B80000C99494505D001EB810302EB4301303943
:101B90000C917F1C3A78A2F130010A29F0D3ADF8FC
:101BA00038000FF67440397800F05AFE08B117F883
:101BB000010B8DF83A009DF83A00682802BF397889
:101BC0006829622005D06C2804BF38786C2803D1BE
:101BD00071208DF83A007F1C11A8049017F8014B72
:101BE000B4F125002AD01C3800F0CC80001F022858
:101BF00040F2C880133800F0EE80093800F0C2804F
:101C0000801E00F04F81401E00F02481401E0228FB
:101C100040F2B880001F00F01D81401F00F083805B
:101C2000401E00F0D880401E29D0C01E0CD0801E5F
:101C300000F0D180C01E00F0CE803DE10120059073
:101C400025208DF8440043E12868286050F8044BB3
:101C500028600394DDF83080B8F1000F04D52046E9
:101C600000F01AFE804607E042460021204600F0C0
:101C70003BFE08B1A0EB0408CDF8188028E12968E4
:101C800029604FF03C0851F8040B29600021CDE990
:101C9000000111A80390DDE90001049C11B908B905
:101CA0000C9AC2B10206120FA0EB02123032D2B26D
:101CB0003A2AA8BF27320009A8F1010340EA0170BF
:101CC00009091A5508BF0028984604D0039A08EB62
:101CD00004039A42E6D308EB04000390C8F13C01E8
:101CE0000C980691814209DA401A08904FF6EF717C
:101CF000BDF838000840ADF83800E9E0002840F1B0
:101D0000E7809DF8380000F01400102840F0E080D3
:101D10000D98059A801A089A801A401A0128C0F274
:101D2000D7800890D4E09DF83A0062281AD068283D
:101D300006D06A280CD06C281CD0712808D019E075
:101D40002868286050F8041B28600B980880BFE0C2
:101D50002868286050F8042B28600B98C117C2E946
:101D60000001B5E02868286050F8041B28600B9833
:101D70000870ADE02868286050F8041B28600B98B4
:101D80000860A5E02868C01D20F007022A60D2E99B
:101D9000000108322A60CDE90001002903D50120A5
:101DA00005902D200CE0BDF83800810703D50120F7
:101DB00005902B2004E0C00704D5012005902020C9
:101DC0008DF84400059911A808180390214600A831
:101DD00000F0D8F97CE09DF83A206C2A0DD0712AE9
:101DE00018BF6A2A09D12868C01D20F007032B609C
:101DF000D3E9000108332B6005E02968296051F818
:101E0000040B29600021CDE90001682A08BF80B2D7
:101E100007D0622A08BFC0B203D0742A18BF7A2A3A
:101E200002D10021CDE900019DF83800000730D52E
:101E3000DDE90001002908BF00282AD044F0200075
:101E4000782826D130208DF844008BF801400220FC
:101E500005901EE09DF83A00294600F0D8F8CDE93B
:101E60000001002904DA0598411C05912D210EE09E
:101E7000BDF83800810704D50598411C05912B2138
:101E800005E0C00705D50598411C0591202100F803
:101E90000B10059911A808180390214600A800F01E
:101EA000EDF815E0012005902868286050F8041B23
:101EB00028608DF844100BE0012005902520002CAF
:101EC0008DF8440004D00598411C059100F80B40A2
:101ED0000D980599401A0899401A0699401A0999CF
:101EE000401A0799401A0A99A0EB01089DF838009A
:101EF00040070FD420208DF84000002408E0012383
:101F000010AA00A9504600F070FC00287AD1641C89
:101F10004445F4DB059C11AE0AE016F8011B02985B
:101F2000D047029000286DD00B98401C0B90641E87
:101F3000002CF2D130208DF840000026089C08E0EB
:101F4000012310AA00A9504600F04FFC002859D1E7
:101F5000761CA642F4DB069C039E0AE016F8011BE1
:101F60000298D047029000284CD00B98401C0B9050
:101F7000641E002CF2D130208DF840000026099C10
:101F800007E0012310AA00A9504600F02EFCC8BBB0
:101F9000761CA642F5DB03980699079C0E1809E00B
:101FA00016F8011B0298D047029058B30B98401CBA
:101FB0000B90641E002CF3D130208DF840000026D9
:101FC0000A9C07E0012310AA00A9504600F00DFC6E
:101FD000C0B9761CA642F5DB9DF8380040077FF5B6
:101FE0006CAD20208DF84000002400E0641C4445C6
:101FF000BFF663AD012310AA00A9504600F0F5FB1F
:102000000028F3D04FF0FF3021B0BDE8F08F6228F8
:1020100026D068281DD06A2808D06C2827D07128BF
:1020200004D0742823D07A280CD020E00868C01D82
:1020300020F007000860D0E9002308300860194646
:10204000104670470A680A6052F8040B0A600021C3
:1020500070470A680A6052F8040B0A6000B20BE08D
:102060000A680A6052F8040B0A6040B204E00A6889
:102070000A6052F8040B0A60C11770472DE9FA4E46
:1020800005460A462F696F2A08BF082405D041F08B
:102090002000782814BF0A2410243C26D5E900012A
:1020A000642A18BF692A81468A4605D1002903DAC5
:1020B000D9F100096AEB4A0ABAF1000F08BFB9F179
:1020C000000F0CD1286B50B9082C36D195F8380088
:1020D000000732D530203B2687F83B002DE0E31780
:1020E00048465146224600F04DFCA4FB0023A9EBD4
:1020F00002023032D2B2A6F1010B3A2A5E4603DB6D
:102100009DF80030513B9A1881465FEA010A0BF8AE
:10211000072008BFB9F1000F03D0E868F119884221
:10212000DDD3082C09D195F83800000705D5F05DFE
:10213000302802D0761E3020F055C6F13C00A86150
:10214000F119E960296B884208DA081A28624FF60B
:10215000EF71288F08402887BDE8F38E00290ED53F
:1021600095F8381001F01401102908D1696B6A69DB
:10217000891A2A6A891A081A0128A8BF2862BDE8A4
:10218000F38E00002DE9F24F04468EB0D4E9000131
:10219000CDE9020104AF9DF8380040F0200BBBF1FF
:1021A000610F0AD0206B002848BF062004D408BF66
:1021B000BBF1670F01D1012020636168C1F30A50B0
:1021C00040F2FF7290421CD1080304BF206800282F
:1021D00009D10320A0619DF8380061381A2836D350
:1021E0000FF2486108E00320A0619DF838006138D3
:1021F0001A2829D30FF22C61E068032200F03AFC80
:10220000BEE1012816DA204600F06FFC012811DB40
:1022100000250020BBF1610F20D1E168302201F8D8
:10222000012B4A1CE2609DF83820612A0CBF7822FD
:1022300058220FE0626840F2FE3161F31E52451AE7
:1022400062604FF0FF30E5E70FF2D451D4E70FF2B0
:10225000D851D1E70A706169891C616110B9002603
:10226000002584E1BBF1610F40F09780206B0028CE
:102270004CBF2126461CDDE90201D4E900AB002257
:10228000002300F053FC36B23ABF8BF00040CDE99A
:1022900002A0CDE902AB06F101082D1F8DF8102038
:1022A0000DF1110700E0C71DB8F1010F33DBDDE9C7
:1022B00002010022002300F051FC2CD21C2102A8B4
:1022C00000F064FCDDE9020100F0EAFCA8F1070877
:1022D000B8F1010F814609DB00F00EFD02460B4606
:1022E000DDE9020100F020FDCDE90201F81D072122
:1022F00005E009F00F0200F8012D4FEA2919B9F1A4
:10230000010F01DB491EF4D5491E5CBF002200F815
:10231000012DF9D5C7E70DF11100391AB142B8BF47
:102320000E4636B230000DF111072FD4884206DA7E
:1023300004A9411849780829A8BF0F2100DA002113
:1023400004AA821800E0761E12F80139401E8B4262
:10235000F9D00F2904D104A941184A78521C4A70B7
:10236000002802D504AF761C2D1D36B2701E0DD488
:10237000C1190A783032D2B23A2A03DB9DF83830DC
:102380003A3B9A18401E01F80129F2D5206B00282B
:1023900040F1ED80701E2063E9E0DDE902010022DA
:1023A000002300F0C3FB3CBF81F00041CDE90201F6
:1023B0002DB247F2975068434B49DFF8309190FBBC
:1023C000F1F52DB2C5F1070ABAF1010F90461CDBF9
:1023D000DDE902675FEACA7007D542464B463046E0
:1023E000394600F061FD06460F464FEA6A0A40464C
:1023F000494642464B4600F057FDBAF1000F804671
:102400008946E7D1CDE9026724E0CAF1000A002637
:10241000374F14E05FEACA7007D542464B46304654
:10242000394600F041FD06460F464FEA6A0A40462B
:10243000494642464B4600F037FD80468946BAF190
:10244000000FE7D1DDE9020132463B4600F0FEFD18
:10245000CDE90201BBF1660F216BDFF898900CBF4C
:1024600005F10A0006204618142EA8BF13263020B6
:102470008DF810000DF11107012E3DDBDDE90201A1
:1024800000F024FC07F1080104220A23B0FBF3F357
:1024900003EB8307A0EB4700303001F8010D0A2061
:1024A000B3FBF0F000EB8007A3EB47033033521E81
:1024B00001F8013DE9D1083E012E01F10807DBDBFF
:1024C000DDE9020100F002FC00F020FC02460B46B0
:1024D000DDE9020100F028FC00224B4600F0E4FC9C
:1024E000CDE90201CAE700BFA08601000000244038
:1024F0000000F03F84D797410DF11100381A0DF11B
:10250000110702E0401E6D1E7F1C39783029F9D07A
:10251000BBF1660F02D12DB2691C04E0BBF1650F5F
:102520000CBF01210021226B8E1836B2B042B8BF19
:10253000064636B231001AD4814204DAC85D352825
:10254000A8BF392000DA3020CA19521E00E0761EDA
:1025500012F80139491E8342F9D0392802D1C85DE9
:10256000401CC855002902D57F1E761C6D1C2DB25B
:102570009DF83810009533B23A46204600F003F833
:102580000FB0BDE8F08F2DE9F043054685B01E463B
:10259000D5F83080012E8946174602DA01260FF25F
:1025A000902749F02000BDF93040662808BF641C20
:1025B00017D0672840F0828014F1040FC0F28480A5
:1025C000444580F2818095F83800641C000702D4ED
:1025D0004645B8BFB04624B2B8EB040848BF4FF038
:1025E000000824B2E868A969012C25DA4A1C3023C6
:1025F0000B54B8F1010F03DA95F83810090702D52A
:102600002E211154521C18EB040FB8BFC8F100045E
:1026100024B26142A044B045AA61B8BF464669628F
:1026200036B2EE613246AB693946181800F022FA2C
:10263000A8EB0600A862C1E00818A64218DA3246E4
:10264000394600F017FAA9697118A01BA961B8F101
:10265000010F686203DA95F83800000705D5EA68CB
:102660002E208854E869401CE861C5F82880A5E060
:102670002246394600F0FEF9A8692018361BB8F149
:10268000010F03DA95F83810090703D5EA682E21FF
:102690008154401CA86136B2B045B8BF4646E868D0
:1026A000AB6936B23246E119181800F0E3F9A869AF
:1026B0003018A861A8EB060068627FE0B9F1610FED
:1026C00016D14FF0700918E0464504DA95F8381035
:1026D000090758BFB046B8F1010848BF4FF00008DD
:1026E000B9F1670F14BF4FF045094FF0650904E0D9
:1026F000B9F1410F08BF4FF05009A969E86817F810
:10270000013B0B544A1CB8F1010F05DA95F838105B
:10271000090758BFAA6117D52E211154531CB8F1CF
:10272000010FAB6110DB761E36B2B045B8BF46462E
:1027300036B232463946181800F09CF9A8693018AC
:10274000A861A8EB06006862E868A9690F18200074
:1027500007F8019B03D42B2007F8010B03E02D2180
:1027600007F8011B644200260DF1080808E00A2260
:1027700000A800F08EFD019808F8010B761C009C63
:1027800021B20129F3DA022E06DA49F02000652889
:1027900004BF302007F8010B4EB9302007F8010BB9
:1027A00007E0761E02A8305C303007F8010B012EDE
:1027B000F7DAE868A9690818381AE86195F8380066
:1027C00000F0140010280DD16869A9690818696A19
:1027D0000818E9690818A96A0818696B8842BCBF1B
:1027E000081A286205B0BDE8F083F8B504460D4626
:1027F00016461F46002004E0E86A401CE8627F1E7F
:10280000002047B116F8011BA868A047A86000285F
:10281000F2D14FF0FF30F2BD686A6C747A4C000060
:102820006E616E004E414E00696E6600494E460074
:10283000300010B450F8041B81B102681218001D5A
:1028400050F8043BDC0744BFA9F10104E31852F837
:10285000044B43F8044B091FF9D1EBE710BC704758
:102860000278C9B28A421AB11CBF10F8012FF9E7E9
:1028700018BF0020704750F8041B61B150F8042BBA
:10288000D30744BFA9F101039A180023091F42F896
:10289000043BFAD1EFE7704700F10103810704D050
:1028A00010F8011B89B18107FAD10268B2F1013138
:1028B000914311F0803F04BF50F8042FF6E710F861
:1028C000011B11B110F8011BFBE7C01A70478268A9
:1028D000521C8260426832B10268531C036011705E
:1028E0004168491E41607047C9B2830706D0521E35
:1028F00022D310F8013B9942F7D11FE0083A13D3D5
:1029000002F1040241EA012141EA014150F8043B8D
:10291000121F21BF4B40A3F1013C2CEA030C1CF019
:10292000803FF3D0C9B2001F083210F8013B521E9D
:1029300028BF91EA030FF8D818BF0120401E704746
:1029400013F0004C03D55B42524263F100039CEA52
:10295000210C00F0178010B5644603D34942404271
:1029600061F1000100F00EF8640004D349424042D6
:1029700061F10001244203D55B42524263F100033E
:1029800010BD00001B4213D1094236D12AB1844642
:10299000B0FBF2F002FB10C2704700F081BCFCD328
:1029A0000022002370470B00020000210020704726
:1029B000904271EB030CF6D370B5B1FA81F4B3FA1F
:1029C00083F52C1BA340C4F1200532FA05F63343EE
:1029D000A2405FF00046E64002E05B085FEA320298
:1029E000841A71EB030524BF204629467641F4D3AF
:1029F00002000B003000002170BD012ACFD970B554
:102A0000140C20D0B1FA81F4B2FA82F5C4F120049A
:102A10006419B4F12006D6D3B2405FF00044F4400C
:102A2000002502E052085FEA3303C61A71EB020E7A
:102A300024BF3046714664416D41F3D302000B0060
:102A40002000290070BD0C46B1FBF2F102FB1145DC
:102A50002D0445EA1045B5FBF2F402FB145580B293
:102A600040EA0545B5FBF2F002FB105240EA044093
:102A700070BD000062B38B0708D0521E11F8013BF5
:102A800000F8013B00F024808B07F6D1830740F06B
:102A9000208000BF103A07D330B4B1E83810103AA4
:102AA000A0E83810F9D230BC530724BFB1E80810B1
:102AB000A0E8081044BF51F8043B40F8043BD2079B
:102AC00024BF31F8022B20F8022B44BF0B7803708F
:102AD0007047083A07D3B1E80810083A40F8043BB9
:102AE00040F804CBF7D25307E4E730B4436803F06F
:102AF000004201211B031B0B436004BF0368002B32
:102B000008D10DE00368DD0F45EA440444605B0032
:102B10000360491E4468E302F4D523031B0B4360A2
:102B200043681A434260084630BC70474FF4001CAB
:102B30001CEB410F94BF1CEB430F09E041EA030C6F
:102B400050EA4C0C52EA0C0C03D2994208BF904256
:102B5000704714BF8B428242704700004FF4001C44
:102B60001CEB410F94BF1CEB430F09E041EA030C3F
:102B700050EA4C0C52EA0C0C03D28B4208BF824242
:102B8000704714BF994290427047000070B50446E8
:102B90000D466068C0F30A5040F2FF71884207D1C9
:102BA0006068000304BF2068002817D0022070BDB1
:102BB00020B92046FFF799FF012867DA012D0FDBC6
:102BC00040F2FF71091A8D420AD3606800284CBF99
:102BD0009FED2F0B9FED300B84ED000B012070BD9E
:102BE0004142A942616806DA6FF31E51401941EA79
:102BF0000050606041E0401E63684519012205F104
:102C0000350062F31F53352801F00041636003D3A0
:102C100061600020206070BD002215F11F0F04DAF2
:102C200022682360002020356060684213D0521E65
:102C300025689241C0F12003D2439D4045EAD272FB
:102C400025686668C54006FA03F32B432360636872
:102C500023FA00F0606060680843B2F1004F6060E2
:102C600003D80DD12078C0070AD52068401C206009
:102C7000206828B96068401C60604FF0FF3070BD6C
:102C80006068884204BF20680028F6D1002070BD2B
:102C9000000000000000F0FF000000000000F07FD6
:102CA000F446400D40EAC120490006D200F014F875
:102CB000004248BF6FF00040604700F00DF84FF051
:102CC000004188428CBF084640426047400D40EAC0
:102CD000C120490080F00D8040F00040490DA1F571
:102CE0008061491C05D4D1F11F0154BFC840C017F1
:102CF00070474FF000007047010040F10980F44632
:102D0000404200F005F851F000416047010000BF6B
:102D100009D0B0FA80F18840C91CC1F58461090569
:102D200001EBD0214005704770B44FF0004591EAA7
:102D3000030F44BF6B4000F0B5BA00BF841A71EBBB
:102D4000030604D26E40001BB141121973414FF4C7
:102D5000001C1CEB410F34BF7CEB430684E00C0DE0
:102D6000A4EB1356362E7DDC012E43DC45EAC3234B
:102D700043EA525312BFD20292025B08240545EA8D
:102D8000C12141EA5051D2EBC020994125D407D14D
:102D9000B0FA80F610FA06F164D00020203608E080
:102DA000B1FA81F6B140C6F1200220FA02F21143D5
:102DB000B0404FEAF474B4EB465434F001064FEAE5
:102DC00074040AD8D6F50016760D04F00044F040DD
:102DD00061FA06F25040F1404840C00A40EA4150D2
:102DE00021F0004128BF5FEA500550F1000044EB9C
:102DF000D12137E045EAC323DB0A45EAC121C90AEC
:102E0000B6F120050EDD42EA0242120CC5F12006A1
:102E100003FA06F6EB4042EA06056D42984161F17D
:102E200000010DE062FA06F5F240554063FA06FC37
:102E300082EA0C02F3405A406D42904161EB03017B
:102E400011F4801F05D1641E620502D06D0040415F
:102E5000494121F48011430875F1004350F100000D
:102E600041EB045170BC70471CEB410F15D223F0AD
:102E7000004352EA43060BD04FEA4C0CBCEB410F27
:102E800004D80C0D661E342EB7DDEBE7801A99418D
:102E900050EA410608BF0021E4E708BF1CEB430FDE
:102EA00028BF6FF00001DDE7B0B581EA030C0CF03C
:102EB000004C40F2FF7515EA11541DBF15EA135777
:102EC000AC42AF4239E0E41923EA455343F480139E
:102ED000C90241F0004141EA505EC7021100A7FB60
:102EE000020200284FF00000EEFB01204FF000012D
:102EF000E3FB072118BF42F00102401800214941BD
:102F0000E3FB0E01A4F580640F0302D2520040419E
:102F1000494154F101046CDD470872F1004250F15F
:102F2000000051EB0451A1F580115CBF41EA0C0196
:102F3000B0BD4CEA05510020B0BD05EA1357AC42C4
:102F400014BFAF4241E050EA410E1CBF52EA430EAB
:102F500002E061460020B0BD24423C441BD15FEA40
:102F6000070EF6D0090302BF01460020AEF1140E91
:102F7000B1FA81F7AEEB070401FA07FE0C37C7F18F
:102F8000200100FA07F7C8404EEA000E23EA455335
:102F900043F48013A2E733F00043B3FA83F704BF8E
:102FA000B2FA82FE77440B3FE41BB7F1200E2FBF2D
:102FB00002FA0EF3BB40C7F1200E22FA0EFE38BF14
:102FC00043EA0E03BA40641C82E750EA410E14BF84
:102FD00052EA430E6FF000014FF4001717EB430F56
:102FE0008ABF194617EB410FB5E74CEA055100209F
:102FF000B0BDD4F10104B4F120070FDAC4F1200709
:10300000520828BF42F0010210FA07F501FA07F74B
:10301000E1BF2A43E0403843E1400FE0352C98DC23
:10302000C7F1200452EA400220FA07F218BF42F02A
:10303000010231FA07F0A1400A43002172F1004277
:1030400050F1000051EB0C01B0BD0000F0B540F2B2
:10305000FF7581EA030C0CF0004C15EA11541DBFFA
:1030600015EA1357AC42AF42E5E0BC41C1F313018E
:10307000C3F31303801A994143F4801304D2641EEE
:103080004000494180185941C90241EA5051B1FB01
:10309000F3F603FB1611A2FB0675D7EBC020A9417E
:1030A00002D2761E80185941C90241EA5051B1FB43
:1030B000F3FE03FB1E11A2FB0E75D7EBC020A94146
:1030C00003D2AEF1010E80185941890241EA9051B4
:1030D000760546EA8E2EB1FBF3F603FB1611A2FB32
:1030E0000675D7EB8020A94102D2761E801859417F
:1030F000C90241EA50514EEA060EB1FBF3F603FB5A
:103100001611A2FB0675D7EBC020A94102D2761E8C
:1031100080185941C90241EA5051B1FBF3F703FB52
:103120001711A2FB0735D3EBC020A94167F10007B7
:103130000CBF004247F0010766F3D5274FEA1E3166
:10314000B80814F5806412DDBD0775F1004250EB3C
:103150000E5051EB045111F5801F5CBF41EA0C0188
:10316000F0BD4CF07F6141F0E0410020F0BDBD07B3
:103170006D0840EA0E5041F48011D4F10104B4F11D
:1031800020060ADAC4F120060200E04001FA06F344
:10319000E1401843B24015430EE0342C13DCC6F175
:1031A000200445EA40056D0820FA06F2154321FA8D
:1031B00006F0A1400D43002175F1004250F10000DE
:1031C00051EB0C01F0BD00205FEA0C01F0BDCFB95E
:1031D00092185B41B3FA83F704BFB2FA82F6BF19C3
:1031E0000B3FB7F120062FBF02FA06F3BB40C7F131
:1031F000200622FA06F638BF3343BA401CB1E41960
:10320000641E33E77F4231F00041B1FA81F404BF1C
:10321000B0FA80F6A4190B3CB4F120062FBF00FAD7
:1032200006F1A140C4F1200620FA06F638BF31436A
:10323000A0403C1B1AE7AC421ABF05EA1357AF4245
:1032400012E050EA41061CBF52EA4306BFE750EACB
:103250004107304661461CBF41EA0551F0BD52EAC4
:10326000430C08BFC143F0BD00204FF4001616EB1D
:10327000410F98BF16EB430F08BF16EB410F24BF59
:10328000C14305E016EB430F0CBF61464CEA055104
:10329000F0BD91FBF2F303FB1211C0E9003170475E
:1032A00070470000841A71EB030603D2001BB14182
:1032B000121973414FF4001C1CEB410F34BF7CEB1F
:1032C000430443E00C0DA4EB1356352E50DC45EAC5
:1032D000C323DB0A45EAC121C912B6F120050DDD81
:1032E00063FA05F6EB4086EA0305124218BF45F083
:1032F0000105C01851F100010CD213E062FA06F585
:10330000F2405540F3415A40B340F3405A408018D0
:10331000594107D349085FEA30005FEA350528BF05
:1033200045F0010501F58011420875F1004250F1A8
:10333000000041EB045170BC4FF4001C1CEB410F2A
:1033400038BF70470020090D090570471CEB410F7D
:1033500010D252EA43060BD0BCEB410F05D80C0D3E
:10336000AB43661E342EB5DD02E0AB4380185941F5
:1033700070BC704770BC7047000000000000000087
:10338000000000000000000000000000000000003D
:10339000000000000000000000000000000000002D
:1033A000000000000000000000000000000000001D
:1033B000000000000000000000000000000000000D
:1033C00000000000000000000000000000000000FD
:1033D00000000000000000000000000000000000ED
:1033E00000000000000000000000000000000000DD
:1033F00000000000000000000000000000000000CD
:103400000298380002984400029896010298B80188
:103410000298680002987C00029868000298960062
:103420000298D6000298F20002980801029818014A
:1034300002985C010298700100C6CC0F002106982A
:10344000EA0400F800C6CC0F00210698EA0400C583
:103450009C0F00210698560606984A080698B6085A
:1034600000C5A00F002100F800C6CC0F002106986F
:10347000EA040698DE0806989A0700F800C6CC0F02
:1034800000210698EA0410B902BA0698660300C53E
:10349000A00F002100F800C6CC0F00210698EA0416
:1034A0000698700503DC147210B902BA0698660318
:1034B00001D8087120B802A800F80698DE0800C5F7
:1034C000A40F00210698700503DC047204250698F9
:1034D000A0060298120A00C6CC0F00210698EA0442
:1034E0000698DE0800C5AC0F00210698A0060298D9
:1034F000120A00C6CC0F00210698EA0400C20000A0
:1035000002020698640300F800C6CC0F002106985A
:10351000EA0406989A0700F800C6CC0F0021069826
:10352000EA040698700507DC0A7200C5A00F0021A6
:1035300000F806989A0703B900C200000200069836
:10354000660300C5B00F00210698560606984A0883
:103550000698B60800C5B40F002100F800C6CC0FCD
:1035600000210698EA0400C5B80F00210298120A4B
:1035700000C6CC0F00210698EA040698460B069870
:10358000DE0806989A0700F80698140600C0240082
:103590000840207800F800C6CC0F0021B110076069
:1035A00001D80E7100C0084008407F78020C7E7878
:1035B0000698EA040298060900C6CC0F0021069876
:1035C000EA0400C2020200000698640304D90671EE
:1035D00001B802A800C0FC0E0021041301DB6071D9
:1035E00000C1580F00211411FF3102EC00C8FF2167
:1035F000FA7606981C03FFB91050087201B80298B9
:10360000880100C1540F00210811011202DB1C7156
:1036100000C1640F00211411006811280698C20B24
:1036200000C118000840FF20081100C0520F0021FF
:103630000698AC0B21110698980B01D8067110DB87
:1036400006720298CE0200BB00C54C0F0021541533
:103650005114076407644112FF321071511000C108
:103660000C0F00210698DC02014341120762FF3271
:1036700016715110076000C10C0F0021202106981F
:10368000DC020768014300C0500F00210698C20BFE
:10369000013B00C1080F002114113110FF300C71E3
:1036A00004610112006001DAF87131100760FF3027
:1036B0000C7100610112006001DAF87101D9107219
:1036C00000C00000100006A802B802988801069801
:1036D000F40900C000400840477800F8308840886E
:1036E0005088FFD8087102ECFF20F87000B802EC97
:1036F00000CD1414108801BB4111FF3150510471E9
:1037000031400764006B10DBF07100910421FF224F
:10371000DE720F4800950094009300A0108800C14D
:103720005C0F00211411113800C1600F0021141129
:103730000698980B011100C0680F00210410112891
:103740000698AC0B00DC0472FFB91110009100A0C8
:1037500000A088BA607A811202DAFC7200A088BAEE
:10376000407A00A0267000C0040F002100C4600051
:10377000084044140410014410D906710CDB08728F
:1037800000B8103C067201B8076A00C30040084048
:1037900000C1000F0021141120390672417B00A0E6
:1037A0000698520300C2FC0E0021241220DA047293
:1037B000617B02985E0300C06C70084003B918106A
:1037C0000110011001B9181000A0B11001D8047245
:1037D00000A000C0287008400411108800C1001823
:1037E0000040181000C06C7008400411108800C020
:1037F000147008400411108800C20000200021410C
:1038000018103DB1108800C0F4400840427800C054
:1038100038410840727800C010410840737800C0F9
:10382000F840084073784FB200C4FFFF8080413AEF
:103830004FAA00C3000040400698B60301100110D3
:103840000110011000C0047008400411076100C09D
:1038500000004000003A0471084908D90E72311086
:1038600000C400007F004138015200C00000004049
:10387000003A0471044904D90E72311000C40000EA
:10388000007F4138015200C000000200003B0A7274
:10389000006331424FAAA2704FAA00C010410840F5
:1038A000537800C0F8400840537800C038410840C1
:1038B000527800913DA9009100C014700840181082
:1038C000009100C06C7008401810009100C0287072
:1038D0000840181000A000881DB0022001584028A0
:1038E00006751EAC01EC009000A001B0076800C393
:1038F0006C0F00213414036C41500F3041500813F9
:103900000F3003640F340111C04806987E050698F5
:103910005E0303DD1E7204BA00C06C00084004118F
:1039200010D9047106BA0C2328130478FC230298DA
:10393000F80501DD0C7200C04400084025782678A7
:1039400009DD087208230298F805411303DF0672A7
:103950000298800900DD06720698DA0953B080BB30
:10396000006B30380A7109DD06710298020A00A066
:1039700000C06C0F0021041003600F3000A01088FD
:10398000B111076980D90A7100C18000084008118F
:10399000009100A0B11100C2000000402039067261
:1039A0000298F20500C1700F0021141201DC0672AA
:1039B00000BC247048BC00C060000840041040D81F
:1039C000087101B806981C06F0DA0C720CDB08715D
:1039D00002B806981C0600C380000840FFB801200A
:1039E00000C1740F00211411014118130142281362
:1039F000481300B80298140600C13830084014116A
:103A000000C00060084004100360013005680141F7
:103A1000181300A000C1700F002114120368F030C9
:103A20002113F03331520152281100A000C0203080
:103A30000E40041104101050F47200A000C0000CDD
:103A40000000013900C028400E400A780B780412AB
:103A50001142281000A00698080800C0F80F0021A5
:103A600004112EA900C0043008402178227800C03B
:103A7000980F00211DB118100698D0060111FF30D3
:103A80000769FF3151B300C4F3FFFFFF413B1159F8
:103A900000290675084B027051AB0698AE0700A0CE
:103AA0000698080800C0FC0F002104112EA9F82078
:103AB000041106983C0600C00430084021782378A1
:103AC0000698D00600C0880F00211DB1181000A074
:103AD00000C0FFFF00005414013C00C0BC0F0021D7
:103AE0000410012C0A7500B826A80698D60400C058
:103AF000840F00211DB1181028B000C1F0FFFFFF96
:103B0000113800C10E000000114028A800C080003C
:103B1000000000C144300840081100C0006F0000E0
:103B200026A800C0043008402178050C00C02430CD
:103B30000840267800C063EF000026A8050C20ECA2
:103B400000C004300840247820EC217800C07BEFCE
:103B5000000026A828B000C1F0FFFFFF113800C107
:103B60000A000000114028A8050C00C004300840DD
:103B7000207820EC0F0C00C098400840467841782F
:103B800006982C0600C2800F0021241000C300FFFD
:103B9000FFFF31381140081200A00698080800B84D
:103BA00026A800C08C0F00211DB1181000A000C372
:103BB000A440084000C17C300E40141100C00080B9
:103BC000010000392871B11004D822716E7B6F7B1F
:103BD00000C060300E40041100C2000000102141FE
:103BE00018101420041101BA21411810B11002D884
:103BF0001671707B00C03040084062786078010C1C
:103C00000DB001D8047100A000C0304008404078D9
:103C10000DB101D90472010C427800C074300E401D
:103C2000041100C2FEFFFFFF21391810EC2004111F
:103C300000C2FFFFFFEF213918101C7800C3A44019
:103C40000840707B4E7B4F7B00A008B86E784EB06A
:103C500010D8187200C00E0000003EA8140C00C05E
:103C60000F0000003EA80298820800C00E0000006D
:103C700044A8140C00C00100000000C1B0300E4088
:103C8000081100C077801F003DB201423DAA00C16B
:103C9000C40F0021141054A8140C00C077E01F00BA
:103CA00001423DAA00C0444108407D7800C00000A8
:103CB000004002A800A0069852030698CA0306987E
:103CC0005E0354140698D60400C0F44008404578BA
:103CD000090C00C0940F00211DB1181000A000C0F5
:103CE000444108405D7800B844A83EA800C1B03007
:103CF0000E40081100C0001000003DB101393DA97F
:103D000008B86F7800A0541000DC1C7101F8011491
:103D10000698D60400C00000010006A800C00040BC
:103D20000840417800F802982A0901F800C5800F80
:103D3000002154155114FF3507644113FF34076304
:103D40003112FF330762FF323110212B0158012A53
:103D500006982C06015851280475015841281875F9
:103D600051B00CD806712158067031101159012933
:103D70000675FF0FB87000C00000800006A800F8AC
:103D800000C3780F0021341300C4E010084044122F
:103D900000C000010400013A127108242814084BE5
:103DA00000C458100840237C287004DBF4720DDD39
:103DB000EE7100C1401008401410F8211411015890
:103DC00011280E7100C17810084008110760081111
:103DD000308800B806989405009300C0780F002141
:103DE000041102D90A7100C16C000840247900B99D
:103DF000181000A000C0780F002104110449181009
:103E000000A00698460B115106983C0601B802988E
:103E1000940500C0FFFF000054144115013D0764E4
:103E20000764013C0698D604508806985003009514
:103E300008B86C7800C0204008405A7859785B7800
:103E400000C1C80F0021141054A84EB010D806713C
:103E50000298AE0A4DB100C09FFFFFFF113840B17C
:103E600002D91472604800C1040000401112104AC7
:103E700004BB41540C70204802B903BA02BB02BC17
:103E80004DA840A900C0F84008407078190C3EB118
:103E900041413EA900C1F4400840737973787178BC
:103EA00000C1C00F002100C400410840287000C2BA
:103EB0000000010044AA230C00C200000B0044AA29
:103EC00000C1C00F002100C22000004004BB00C49C
:103ED0001841084000C0C83F0000141111382140AB
:103EE0000814050C114008140F0C2FAB050C04240A
:103EF000B11008D8187100C01C40084079787B7850
:103F00007A78042079787B787A78607CF42441137D
:103F100051140698D604727B00C04C410840050C31
:103F2000687840EC00C0900F00211DB1181000F817
:103F300000C068600840041100C000008000103814
:103F4000047240EC00A0015053A80698300B4EB00C
:103F500010D80A7200C4F8400840087000C410412C
:103F6000084041130C23527C407BFC2301502FA8B6
:103F7000050C341200C1FF3FC0E0113A28130A0CAF
:103F800000C000000100081406322813050C01507F
:103F9000081408B86D7800A004D90471036002D930
:103FA0000471016001D90471006000A0108804113F
:103FB000033008710761FF20FC721110FF3000917F
:103FC00000A010880411023006710761076111100A
:103FD00000C1FFFF00001138009100A0F7020000AF
:103FE000DFF8C4090068000EC0B270472DE9FC413B
:103FF00005000E0017009846089CE4B201945FFA91
:1040000088F8CDF800803B00DBB232003100280098
:10401000C0B200F0B5FDBDE8F3812DE9F0415FF0DD
:1040200050175FF00008FFF7DBFF0600F6B28F2E97
:1040300019DADFF878090068050055F00400DFF8A8
:104040006C19086000200400062C09D258EA070009
:10405000DFF85C19302202FB04110860641CF3E7EE
:10406000DFF848090560F6B2902E09DADFF8440956
:104070000068C009C00150F02000DFF8381908605E
:10408000BDE8F081DFF83009006830F00400DFF8A7
:104090002819086030BF704772B6DFF82009006841
:1040A00010F1010F06D0DFF814090068401CDFF89A
:1040B0000C190860DFF8040900687047DFF8FC0895
:1040C000006800280FD0DFF8F4080068401EDFF811
:1040D000EC281060DFF8E40800680100002900D136
:1040E00062B6080000E00020704710B582B0FFF70C
:1040F00094FF00F075FE0121DFF8C408FCF72FF9EA
:10410000042000F075FE0024022C0EDA01230222A6
:10411000DFF8B00810EBC4004168DFF8A80810F819
:10412000340000F0C9FD641CEEE700F069FE00F009
:1041300006FF0FF25D11DFF88C084068C0B200F096
:104140000CFF0FF24D11DFF87C08C068C0B200F020
:1041500004FF0120009001230022DFF86808416875
:10416000DFF860080078FFF741FF0120009001238D
:104170000022DFF85008C168DFF84808007AFFF72E
:1041800035FFDFF8440800F035FFDFF8400800682D
:1041900000F031F80021762000F06AFF00F054FAB8
:1041A00000F08CF8DFF828080078DFF82818097884
:1041B000884204D1DFF8200800780028F0D00020E1
:1041C000DFF814180870DFF814080078002802D10E
:1041D00000F029F9E4E7DFF804080078022802D1AA
:1041E00000F0B7F9DCE7DFF8F40700780128D7D151
:1041F00000F06CF9D4E710B5040000F007FFDFF819
:10420000E00750F8240000F07BFFDFF8D80750F8F3
:10421000240000F04FFF002803D0012000F00BF82D
:10422000FEE7DFF8C40750F8240000F04BFFDFF88A
:104230009C07046010BD10B590B0040000F005FEAE
:10424000DFF8A80700F00CFE9FA000F009FE230095
:10425000DFF89C27402100A800F05AFF00A800F0DA
:10426000FFFD99A000F0FCFDDFF8880750F824005E
:1042700000F0F6FD00F0E5FD10B010BDDFF8782786
:104280001170DFF8742702601022828070470000EE
:10429000C0B2DFF830174968884204D10121DFF845
:1042A0005C27117009E0C0B2DFF81817C9688842AE
:1042B00003D10121DFF848271170704780B5FFF75F
:1042C000EBFEDFF838070078002829D00020DFF85F
:1042D0002C170870DFF804070078002809D1DFF8F0
:1042E000F4060078042804D00420DFF8E8160870EB
:1042F00057E0DFF8E8060078012810D1DFF8D4068F
:10430000007805280BD0DFF8FC060068401CDFF8B9
:10431000F41608600520DFF8BC16087041E040E0A4
:10432000DFF8DC06007800283BD00020DFF8D0164C
:104330000870DFF8A0060078012832D0DFF8940674
:10434000007802282DD0DFF88C060078042828D0C9
:10435000DFF880060078052823D0DFF8780600789B
:1043600006281ED0DFF874060078002803D101204B
:1043700000F01AF815E0DFF864060078012803D190
:10438000022000F011F80CE0DFF850060078022857
:1043900003D1002000F008F803E00020FFF74BFFF6
:1043A000FEE7FFF78BFE01BD10B50400E4B2022C5E
:1043B0000AD101F016F9002801D001F005F9DFF863
:1043C000480601F0D0F904E0DFF83C06006801F08F
:1043D0001CFA0120DFF8001608700020DFF8F41541
:1043E0000870DFF8F80504700020DFF82016086078
:1043F0000020DFF81C1608600020DFF8181608609F
:104400000020DFF8001608600020DFF80C160860B6
:104410000020DFF8081608600020DFF804160860A6
:1044200000F012F910BD80B5DFF8A8050078DFF8BC
:10443000A015087001F0D5F8002801D001F0C4F8EB
:10444000DFF890050078002806D0022814D00DD39C
:10445000042820D011D332E0012140F6485001F069
:1044600096F800F0D3FDFFF70DFE2CE0012142F29B
:10447000107001F08CF826E025E000F0C7FDDFF8B1
:10448000A4050068C0B200F000FE01214FF4C8602E
:1044900001F07DF817E00021DFF88C05FFF7EEFE54
:1044A00000F0B4FDDFF8800501F06EFD0022002170
:1044B000DFF870050068C0B201F068FD03E000207D
:1044C000FFF7B9FEFEE701BD0000000080B5DFF890
:1044D00004050078DFF8F814087001F082F800286D
:1044E00001D001F071F8DFF8EC040078002804D066
:1044F000032805D0052811D024E000F087FD25E031
:104500000121DFF8280501F042F800F07FFDDFF817
:1045100014050068C0B200F0B8FD17E0DFF8E4044D
:104520000168DFF80C05FFF7A9FEDFF8040501F0CC
:104530002BFD00220021DFF8EC040068C0B201F07E
:1045400025FD03E00020FFF776FEFEE700F07CF893
:1045500001BD80B5DFF87C040078DFF874140870C2
:10456000DFF8D014DFF8A004006801F0C7F9DFF825
:10457000C4040078002804D0DFF88C04006801F03F
:1045800025FBDFF850040078002806D0032816D059
:10459000042828D006283CD04FE0002000900FF2DD
:1045A000F51340F6C4120021DFF85C04006801F046
:1045B000CCF900F02BFD0120FCF70BFE41E000F0F0
:1045C00025FDDFF860040068C0B200F05EFD002049
:1045D00000900FF2C1130F220021DFF82C040068B5
:1045E00001F0B3F92DE0DFF828040168DFF8480492
:1045F000FFF744FE00F00AFDDFF83C0401F0C4FCC4
:1046000000220021DFF81C040068C0B201F0BEFCEB
:1046100017E000F0FBFCDFF80C040068C0B200F00B
:1046200034FD002000900FF26D131E220021DFF8F0
:10463000D803006801F089F903E00020FFF7FBFDD3
:10464000FEE700F001F801BD00B591B000F0FDFB00
:10465000DFF8980300F004FCB6A000F001FCDFF8DE
:10466000DC0300F0FDFBDFF8D803DFF870130978F6
:1046700050F8210000F0F4FBAEA000F0F1FBDFF8F1
:104680005C030078002826D1DFF8B80300F0E8FBCF
:10469000DFF878030368DFF8B023402100A800F0BA
:1046A00037FD00A800F0DCFBA2A000F0D9FBDFF88A
:1046B0009C0300F0D5FBDFF868030368DFF8902364
:1046C000402100A800F024FD00A800F0C9FB99A03B
:1046D00000F0C6FB5AE0DFF804030078012825D17A
:1046E000DFF8600300F0BCFBDFF82C030368DFF8A1
:1046F0006423402100A800F00BFD00A800F0B0FBEF
:104700008CA000F0ADFBDFF8440300F0A9FBBD482E
:104710000368DFF84423402100A800F0F9FC00A85A
:1047200000F09EFB83A000F09BFB2FE0AB480078DD
:1047300002282BD1DFF80C0300F092FBB448036889
:10474000DFF81423402100A800F0E2FC00A800F0EC
:1047500087FBB0480368C14A402100A800F0D8FC9C
:1047600000A800F07DFB73A000F07AFBB74800F0D2
:1047700077FBAB480368BA4A402100A800F0C8FCA8
:1047800000A800F06DFB6BA000F06AFB00F059FB85
:1047900011B000BD38B504000D008E480078002827
:1047A00004D0032806D0062808D00EE0032089494B
:1047B00008700EE00020874908700AE03C2000F0F5
:1047C000FEFF04208349087003E00020FFF733FD5B
:1047D000FEE731BD80B581480078012803D1002073
:1047E0007C49087019E07D480078002815D1794887
:1047F0000078002805D0401E07D0801E012804D96B
:1048000007E003207349087007E000207149087031
:1048100003E00020FFF70FFDFEE701BD10B5040027
:104820006E48007800280AD17D480068401C7C4909
:104830000860002067490870FFF706FF2BE0674813
:104840000078012816D17548006896280BDA73485D
:104850000068401C7149086005205E49087001200D
:104860005D49087017E000206C4908600320594931
:10487000087010E05948007802280CD16848006898
:10488000401C6749086063480068401C6149086033
:1048900000205049087010BD50490978012907D1FE
:1048A0005E490968962909DA05214A4A117005E02E
:1048B0000621084202D00021464A1170704738B5DF
:1048C000040025004548007800280AD14F480068B8
:1048D000401C4E49086000203E490870FFF7B4FEB6
:1048E00027E03E48007801280DD146480068A97AA3
:1048F000884204D148480068401C474908600020AD
:104900003449087015E035480078022811D1404834
:104910000068A97A884202D0A87A3D4908603A48DE
:10492000006801F053F906202A49087001202A493D
:10493000087031BD0000000010B504002748007861
:10494000002813D1A00705D50120234908700120B4
:1049500020490870600702D502201E4908707020A7
:1049600004421CD000201B49087018E01B48007846
:10497000012806D17020044211D00020154908708A
:104980000DE016480078022809D11F48006801F0A0
:104990001DF906200F49087001200F49087010BD4D
:1049A0000100304870470000FC81E00FB0400E402D
:1049B00000A000402C400E4010ED00E04811002007
:1049C00000250800C4A500000CA600005811002016
:1049D000BA110020B9110020B8000020B811002041
:1049E0007C110020A0000020A4000020A4A400004E
:1049F000F4A50000880000203C000020BB1100202E
:104A0000BC11002064110020781100205C110020EE
:104A10007011002074110020681100206C1100201A
:104A20006011002054110020E8100020F04902001D
:104A3000F0100020BD110020F810002020A500007B
:104A40005C00002054A5000064A5000074A50000CF
:104A500084A5000094A50000A4A50000B4A5000052
:104A600000A60000BC080020081870477047704777
:104A700070477047704700008B0013EB401313F131
:104A800084431A60704710F1C0621160704710F1E2
:104A900080621160704770B504000D001600290097
:104AA0002000FFF7F4FF31002000FFF7ECFF70BD9E
:104AB00038B504000D00E4B2002C01D13F201CE009
:104AC000E4B2012C02D14FF4784016E0E4B2022C9B
:104AD00002D14FF47C6010E0E4B2032C02D14FF419
:104AE0007C400AE0E4B2042C01D1002005E0E4B2ED
:104AF000052C01D1FF2000E00020284110F001002A
:104B000000222900DFF8B802E4B2302303FB0400DE
:104B10000C30FFF7B1FF31BD38B504000D00E4B231
:104B2000002C01D13F201CE0E4B2012C02D14FF453
:104B3000784016E0E4B2022C02D14FF47C6010E021
:104B4000E4B2032C02D14FF47C400AE0E4B2042C1E
:104B500001D1002005E0E4B2052C01D1FF2000E0E6
:104B60000020284110F0010001222900DFF8500246
:104B7000E4B2302303FB04000C30FFF77DFF31BDAE
:104B80002DE9F04706000F0090469946089C099DC4
:104B9000F6B2002E01D13F201CE0F6B2012E02D168
:104BA0004FF4784016E0F6B2022E02D14FF47C604A
:104BB00010E0F6B2032E02D14FF47C400AE0F6B2C8
:104BC000042E01D1002005E0F6B2052E01D1FF2010
:104BD00000E00020384110F001005FEA98008000FA
:104BE000B9088900884201D1012000E00020C0B24C
:104BF000082F0FD2F6B23800C0B2800016FA00F2C9
:104C00000F203900C9B2890010FA01F16D48FFF791
:104C100042FF11E0B7F108008246F6B25046C0B23A
:104C2000800016FA00F20F205146C9B2890010FA2E
:104C300001F16548FFF72FFFB8F1080F10D217F008
:104C400003004146C9B2890010FA01F2032041462F
:104C5000C9B2890010FA01F15C48FFF71CFF12E0AD
:104C6000B8F10800824617F003005146C9B2890026
:104C700010FA01F203205146C9B2890010FA01F17D
:104C80005348FFF708FF5FFA89F94A46390051484F
:104C9000FFF7F2FEE4B2220039004F48FFF7ECFEC6
:104CA0000120B84045490860EDB22A0039004B4860
:104CB000FFF7E2FEBDE8F087F8B504000D0016002E
:104CC0001F00E4B2002C01D13F201CE0E4B2012C13
:104CD00002D14FF4784016E0E4B2022C02D14FF436
:104CE0007C6010E0E4B2032C02D14FF47C400AE077
:104CF000E4B2042C01D1002005E0E4B2052C01D17E
:104D0000FF2000E00020284110F00100F6B2002E44
:104D10000CD0002F05D029002000C0B2FFF7FCFE08
:104D200004E029002000C0B2FFF7C2FE082D19D20E
:104D30002348E4B2302101FB040040680F212A001F
:104D4000D2B2920091408843F6B22900C9B28900DC
:104D500016FA01F108431A49E4B2302202FB0411A9
:104D600048601AE01648E4B2302101FB0400806874
:104D70000F212A00083AD2B2920091408843F6B23D
:104D800029000839C9B2890016FA01F108430C4913
:104D9000E4B2302202FB04118860F6B2002E0CD17E
:104DA000002F05D029002000C0B2FFF7B5FE04E0B7
:104DB00029002000C0B2FFF77BFEF1BD24A4004013
:104DC00000A0004000A4004004A4004008A400404B
:104DD0000CA4004010A4004014A4004028A40040EB
:104DE00080B501F058F901F045FA00F029FD01BD48
:104DF00010B50400600701D501F0CCFA002010BD09
:104E000010B501F039FB0400002C00D0FEE70020B3
:104E100001F09CFB0400002C00D0FEE71F4801F0CD
:104E2000DBFD0400002C00D0FEE77FF07F401B4933
:104E300048600020194988601949184801F0FFFFAF
:104E400010BD80B501F049FD01BD80B5134801F0EA
:104E500044FE05201349086002201349086001BD83
:104E60001CB504002000FDF717FD002101910E493B
:104E7000096800910B490B6802002100074801F006
:104E800090FF09480068054991F82510034A92F8F7
:104E90002620511808180449086013BD7810002016
:104EA00034A500004C110020501100200300002008
:104EB00070470000012110F01F029140384A40B2B3
:104EC000430942F823107047012110F01F0291405E
:104ED000344A40B2430942F823107047324908600F
:104EE000704732490968080031490968084070472D
:104EF00072B63048006810F1010F04D02D480068E8
:104F0000401C2C4908602B480068704729480068FD
:104F100000280CD027480068401E264A106025480B
:104F200000680100002900D162B6080000E00020FE
:104F30007047010091FAA1F0B0FA80F0704780B597
:104F40001120FFF7C1FF1120FFF7B4FF0920FFF781
:104F5000BBFF0920FFF7AEFF01BD38B504000D000F
:104F6000FFF7C6FF1448E4B240F82450FFF7CEFF25
:104F700031BD70B50400002C11D02000FFF7D9FF1F
:104F800005000120A84084430B4850F82500060086
:104F900030000028EFD02800C0B2B047EBE770BD6A
:104FA00000E100E080E200E024A4004028A40040EA
:104FB0001CA4004048110020A00F002010B5FFF7EE
:104FC00090FF45F25551084004002000FFF786FF8E
:104FD0002000FFF7CEFF10BD10B5FFF782FF4AF6A5
:104FE000AA21084004002000FFF778FF2000FFF707
:104FF000C0FF10BD10B50446A06800F0011001F01C
:1050000051FF2046BDE8104000F0B0B900F0D6B91D
:1050100000F0D7B9F8B5154C616800291CBF0A68C3
:10502000002A11D0496879B100230C2505FB03F64D
:10503000B75AB84222BFB618768886423CBF5B1C7E
:105040008B42F3D38B4201D30020F2BDA16805FB54
:10505000032081421CBFA06000F08DFAA068F2BD61
:10506000024948607047014800687047D01000202E
:1050700010B50446FFF7CCFF012801D1022010BD76
:105080002046BDE8104000F040BA10B5044600F0DC
:10509000C6F908B9022010BD2046FFF7BBFF08B9CA
:1050A000012010BD0088201ABDE81040C0B200F0F9
:1050B0000BBA000080B502F082F812490120087096
:1050C000002002BD10B50446FFF7CAFF2068416802
:1050D000806802F039FB02F00FFB002814BF0A4879
:1050E0000A4802F0FCFB0748017829B10021017051
:1050F0004FF4803001F0E0FE20680088C0B210BD9F
:1051000002F0C7BFC2110020C0CF6A00E0673500BF
:1051100008B400B584B005AB03930023029311B922
:105120000093019302E00090481E019003AB00A998
:10513000074878441A30FCF7A7FC009911B1009A8F
:1051400000211170002858BF029804B05DF808FBD8
:105150007FD7FFFF890001EB401000F1844002601F
:10516000704772B6DFF88404016811F1010F1CBFAB
:10517000491C016000687047DFF87014086818B1B6
:10518000401E086000D162B6704780B502F04FFE45
:1051900003F0D8F8009000A8FFF740FB01BD2DE90F
:1051A000F04786B0002602F0F4F8824602F027F9B4
:1051B00005464FF6FF7085426DD0A5EB0A05ADB2EE
:1051C00005F10C00FFF7ECFB81461BE006F10A0835
:1051D000AC1B009400AA41464846FFF745FC074631
:1051E000009808B9002700943846009989B202F067
:1051F00076FD8619B6B207B90020024641464846F8
:10520000FFF734FCAE42E1DB01A9504602F077FD26
:105210000C20009000AA00214846FFF725FC06005C
:1052200002D000980C2801D200222AE0DFF8C00347
:1052300035814168DFF8BC1309683279C90901F08A
:10524000010181F0010102F0FD0242EA41013171E8
:1052500001220721FFF77EFF9DF80A0000B101201F
:10526000317901F0FE01084330719DF80900707139
:105270000020B071049803F065F830600C22002023
:10528000F07100214846FFF7F1FB4846FFF717FB96
:105290004846FFF7ECFB06B0BDE8F08780B5012279
:1052A0000721DFF84C03FFF755FFBDE8024010204F
:1052B000FFF742BB2020FFF73FBB0220FFF7ECBA0D
:1052C0000220FFF739BB0420FFF736BBDFF82803C5
:1052D0000068000E00F00F00FFF7CCBBC00244BF17
:1052E0004020FFF729BB704710B50446042002F0A8
:1052F000BEFF600213D5272003F022F902F0BCFCA8
:10530000DFF8F802006800F07F40B0F1007F1CD1A8
:1053100001220121DFF8E802FFF71CFF15E0E0029F
:1053200004D5BDE81040282003F00AB9E00411D5E7
:1053300002F0F3FFDFF8CC02006810F4A00F09D1EF
:105340002A2003F0FDF802F097FCBDE8104004208D
:10535000FFF7A2BA10BD80B5DFF8AC1201200871CA
:1053600002F0CDFEBDE80140FFF734BA10B50446A7
:10537000FBF730FE6168884201D0012010BD02F0C9
:105380001FFCDFF88442207840F007002070A078EE
:1053900040F00800A07001F0A6FDC00703D5A0787A
:1053A00040F00100A0700FF2642002F0D2FB2068F0
:1053B00002F02FFBFFF75CFB002010BD002002F085
:1053C000FDBCDFF83402006800F07060B0F1807F4F
:1053D00018BFB0F1007F1CD0B0F1407F18BFB0F112
:1053E000806F16D0B0F1A06F1CBFB0F1C06FB0F1EC
:1053F000E06F0ED0B0F1006F18BFB0F1106F0AD09F
:10540000B0F1206F1CBFB0F1306FB0F1406F02D02F
:1054100003E001207047022070470020704710B55C
:10542000FFF79FFE032002F065FF10B902F083FF33
:1054300010B1FFF7A1FE15E0DFF8BC010468FFF72B
:105440009BFE14F0404F0DD104F07060B0F1407F2E
:1054500018BFB0F1C06F05D0B0F1106F18BFB0F138
:10546000406F01D1002010BD012010BD00B583B0F8
:105470008188ADF800100068019000A802F0EFFBF1
:1054800000200EBDF8B504460D461646FFF7EBFDAD
:10549000012810D0584FFFF7C2FF18B1386810F03C
:1054A000706FF7D1386810F0706F01D00220F2BD34
:1054B000204602F080FC280002D03046A847F2BD0A
:1054C00002F0F7FB0020F2BD38B54D4D04462868C8
:1054D000000608BF01F051FFFFF7C5FD01280FD0FE
:1054E000FFF79DFF18B1686810F0706FF8D1686819
:1054F00010F0706F01D0022032BD204602F05BFC3C
:10550000002002F03DFC002032BD80B53E494A78C3
:10551000430802F0FE0203F001031A43830802F07D
:10552000FD0203F0010342EA4302C30802F0FB025A
:1055300003F0010342EA83024A7003090A7802F089
:10554000F70203F0010342EAC302430902F0EF024B
:1055500003F0010342EA03120A7080098A7802F01C
:10556000FD0200F0010042EA40008870086802F085
:1055700050FA002002BD10B50446FFF774FD012863
:1055800003D06168A06802F0DFF8002010BD70B59C
:105590000D00044618BF0125FFF7E3FD1A4EB07851
:1055A00040F01000B070306802F033FA0020307123
:1055B000204602F0F1FE294602F09CFD0446FFF76A
:1055C000DBFD84F0010070BD80B502F098FD0E484F
:1055D000817801F0EF018170BDE80240006802F0BF
:1055E00018BA02F0CBBD012001F066BC48110020C2
:1055F000680008406000084004400840000F002197
:10560000004008405C500840281100208B510000E9
:10561000BB5200009F5100009D520000B552000097
:10562000000000000000000000000000C152000067
:10563000C75200000000000000000000CD52000032
:10564000000000000000000000000000E75500001E
:10565000DD52000000000000E95200005753000036
:10566000012110F01F029140DFF8B82840B2430931
:1056700042F823107047012110F01F029140DFF81B
:10568000A82840B2430942F82310704701000029BE
:1056900004D0B1F5004F01D8012200E00022D2B2BF
:1056A000B1FA81F2D2F11F021000704772B6DFF832
:1056B0007C08006810F1010F06D0DFF87008006860
:1056C000401CDFF868180860DFF860080068704761
:1056D000DFF85808006800280FD0DFF8500800688D
:1056E000401EDFF848281060DFF84008006801001D
:1056F000002900D162B6080000E0002070470328AE
:1057000001DA012100E00021C9B2DFF8241811EB11
:10571000001040687047032801DA012200E00022EF
:10572000D2B2DFF80C2812EB001251607047DFF89C
:10573000040800687047DFF8001808607047DFF859
:10574000FC1709688143DFF8F42711607047DFF820
:10575000EC1709680143DFF8E42711607047DFF8B0
:10576000E0070068704770B5040000260025FFF7C9
:105770009DFF042E09DADFF8CC07282101FB060083
:10578000807F002801D0761CF3E7042E03D1DFF8D8
:10579000B80705000FE0002C0AD00120DFF8A4179D
:1057A000282202FB0611887726600020050002E00F
:1057B000DFF898070500FFF78BFF280070BD70B574
:1057C00006004FF40040A0FB060110F57A6051F18D
:1057D00000014FF4FA520023FDF7D4F804000D0045
:1057E0007FF0630000218D420AD301D8844207D3A1
:1057F0007FF0640000F01EFB653455F1FF35EFE7E4
:10580000200000F017FB002070BD10B50400042C30
:1058100002D3DFF83C0712E0FFF748FF0020DFF873
:105820002417282202FB041108770020DFF8141740
:10583000282202FB04118877FFF74AFF002010BDE1
:1058400070B5DFF810070078002801D0002054E080
:105850000120DFF8001708700121DFF8FC06FAF7D5
:105860007EFD0221DFF8F406FBF762F80820FFF75F
:105870000DFFDFF8EC1608710121DFF8E806FAF7F2
:105880006EFDDFF8DC0602F0A9FEDFF8DC16012071
:1058900002F075FE40F2FF70FFF751FF40F2FF701B
:1058A000FFF749FF0020DFF88C1608601D20FFF786
:1058B000E2FE1D20FFF7D4FE0120FFF748FFA024E1
:1058C0000025DFF880662A002100300002F0A6FEE5
:1058D0000020DFF8981608700020DFF89416087092
:1058E0000020DFF8901608600020DFF88C160860B2
:1058F0000020DFF888160860002070BD38B504006D
:105900000D00042C02D3DFF848061DE0002D02D163
:10591000DFF8380618E0FFF7C9FEDFF8280628216F
:1059200001FB0400807F002804D1FFF7D1FEDFF8DF
:10593000500609E0DFF80C06282101FB0400007F77
:105940002870FFF7C5FE002032BD2DE9F24F84B06C
:10595000040092461F000026042C02D3DFF8F00555
:1059600031E1FFF7A3FEDFF8DC05282101FB04008D
:10597000807F002804D1FFF7ABFEDFF8040622E1A8
:10598000BAF1000F09D13800002802D00E9920008A
:10599000B847FFF79DFE002015E1FFF7C8FE0500A0
:1059A000DFF8A005282101FB040087614FF40040C7
:1059B000A0FB0A0110F57A6051F100014FF4FA5290
:1059C0000023FCF7DFFFDFF87C25282303FB0422FC
:1059D000C2E902019DF81000012829D14FF47A7024
:1059E00000FB0AF00021CDE90001DFF8580528216D
:1059F00001FB0400D0E90223F4200021A0FB02896E
:105A000000FB039901FB0299DDE90001B0EB0800FE
:105A100071EB0901DFF82C15282202FB0411086143
:105A20007A20DFF82015282202FB041148610DE0DE
:105A3000DFF81005282101FB0402D2E90201DFF89A
:105A40000425282303FB0422C2E90201DFF8F40441
:105A5000282101FB0402D2E90201401C51F100019E
:105A6000DFF8E024282303FB0422C2E9000101201F
:105A7000DFF8D014282202FB041108779DF81000EB
:105A8000DFF8C014282202FB0411C8770E98DFF853
:105A9000B414282202FB04110862DFF8D004007855
:105AA000002803D0FFF714FE00208CE0DFF8C404C8
:105AB000006810F1010F06D0DFF8B8040068401C40
:105AC000DFF8B0140860DFF8A804007800282CD1B3
:105AD000DFF8B00405600420FFF72DFEDFF8640452
