:10000000A81500208DA40000E1A40000E5A40000D4
:10001000E9A40000EDA40000F1A40000000000002D
:10002000000000000000000000000000F5A4000037
:10003000F9A4000000000000FDA4000001A50000DC
:1000400005A50000114B000009A50000194B000098
:10005000454B0000234B0000214B00003D4B0000AE
:100060000DA50000F97E0000CB830000A5A10000D3
:1000700011A5000015A5000019A500001DA5000090
:1000800021A50000157F000025A5000029A500007E
:100090002DA5000031A5000035A5000039A5000000
:1000A0003DA5000041A5000045A500002D4B000026
:1000B000354B0000036E000049A500004DA500006F
:1000C0008BA1000051A500008B0013EB401313F12E
:1000D00084431A6070470200880010EB421010F150
:1000E00084400068704710F1C0621160704710F1E1
:1000F00080621160704770B504000D001600290081
:100100002000FFF7F4FF31002000FFF7ECFF70BD87
:10011000006808407047012111FA00F0704738B5B7
:100120000400B4F5004F01D2012000E00020C0B26D
:10013000601CB0FA80F0D0F11F0005002800FFF726
:10014000EAFF401E844201D1012000E00020C0B23D
:10015000280032BD70B504000D00A54201D3002671
:1001600000E0012632001021DFF8B407FFF7ACFFF2
:1001700032001821DFF82409FFF7A6FF70BD10B583
:100180001021DFF89C07FFF7A6FF04001821DFF815
:100190000C09FFF7A0FF01008C4201D1012000E013
:1001A0000020C0B2200010BDDFF800190968080067
:1001B000704738B5DFF8F80800F02BFB0500EDB20A
:1001C0002800072805D0082807D100F0E1FE040028
:1001D00005E0FFF7E9FF040001E000200400200033
:1001E00032BD10B4DFF8CC381B68002B01D00122DF
:1001F00000E0002241F67133DFF8B8482360DFF8F1
:1002000024371B6813F040731900DFF81C3798423D
:1002100007D2DFF81837984203D35FF080731900D4
:1002200001E000231900DFF8FC361B6833F040734F
:100230000B43DFF8F0462360D2B2002A03D000233C
:10024000DFF87048236010BC704780B500F09EFE58
:10025000FFF7C7FF01BD01000F22CB1C934201D263
:10026000C81C00E010000007704770B504000026AD
:100270002000DFF82C18884207D0DFF828188842C1
:1002800003D0DFF83418884200D1FFE7200000F0E7
:10029000C0FA05002000DFF80818884208D0DFF80F
:1002A000041888420BD0DFF8101888420ED014E0F2
:1002B000DFF80808006810F0070005000DE0DFF81F
:1002C0000008006810F00700050006E0DFF8F407FA
:1002D000006810F007000500FFE7002D21D0022D77
:1002E00008D003D3042D09D00CD31CE000F076FE17
:1002F000060018E000F078FE060014E000F071FE41
:10030000060010E0DFF894070068C00104D500F093
:100310002DFE8008060003E000F028FE40080600DD
:1003200001E000200600300070BDDFF87C1709688E
:10033000C90704D4DFF8901709680142FAD1704761
:1003400010B50400200000F0F0F8401C10BD38B5D6
:1003500004000D00691E200000F052F931BD2DE9A6
:10036000F04104000D005FF00008C4F30320C0B2A8
:1003700001280CD0022812D005280CD0062812D053
:10038000072816D009281AD00A281FD022E0DFF843
:10039000900506001FE0DFF8100806001BE0DFF8FC
:1003A0000C08060017E0DFF8080806000120804668
:1003B00011E0DFF800080600102080460BE0DFF8AF
:1003C000F80706005FF48030804604E0DFF8A009FB
:1003D000060000E00EE0C4F304300700B8F1000F9F
:1003E00002D04046FFF7A1FFEDB22A0039003000ED
:1003F000FFF76AFEBDE8F08138B5040014F4781008
:10040000002824D0B0F5003F35D0B0F5802F22D0A1
:10041000B0F5002F2BD0B0F5202F38D0B0F5402FFD
:1004200077D0B0F5602F78D0B0F5801F41D0B0F50F
:10043000901F44D0B0F5A01F56D0B0F5C01F32D0E9
:10044000B0F5D01F4AD0B0F5F01F5CD069E000F0E5
:100450009FFD050067E000F09BFD0500DFF85C07ED
:100460000068C0F30820401CB5FBF0F55BE000F02D
:100470008FFD050057E000F08BFD0500DFF8400719
:100480000068C0F30820401CB5FBF0F54BE000F01D
:100490007FFD0500DFF884080068C0F30420401CDD
:1004A000B5FBF0F53FE0DFF8F805FFF7DEFE0500ED
:1004B00039E0DFF80406FFF7D8FE050033E0DFF887
:1004C000E005FFF7D2FE0500DFF85408006810F0E1
:1004D0000F00FFF720FEB5FBF0F524E0DFF8C405C0
:1004E000FFF7C3FE05001EE0DFF8B805FFF7BDFE0D
:1004F0000500DFF88008006810F00300FFF70BFE2E
:10050000B5FBF0F50FE0DFF8B005FFF7AEFE050034
:1005100009E0FFF74EFE050005E0FFF745FE050088
:1005200001E000200500280032BD70B50400C4F3CE
:1005300003100500012D0CD05ED3032D17D00FD36F
:10054000052D22D01AD3072D39D025D3082D49D017
:1005500052E0DFF848050068C0F3042006004DE0D3
:10056000DFF8B8070068C0F30420060046E0DFF8B3
:100570002C050068C0F3006006003FE0DFF83C0691
:100580000068C0F30820060038E0DFF83406006891
:10059000C0F30820060031E0DFF8DC0784420BD10D
:1005A000DFF87C07006810F00F0006003000FFF74E
:1005B000B2FD401E060001E0002006001EE0DFF84C
:1005C000BC0784420BD1DFF8AC07006810F00300D1
:1005D00006003000FFF79FFD401E060001E00020EE
:1005E00006000BE0DFF82409844202D10020060057
:1005F00001E00020060001E000200600300070BD90
:10060000F8B504000D00C4F303100700012F10D04B
:10061000C0F0FE80032F44D032D3052F64D051D3D5
:10062000072F00F0C080C0F08780082F00F0D7802F
:10063000EEE0202D01D2012000E00020C0B2FFF743
:1006400004FEDFF88814DFF81408FFF783FDDFF8F5
:100650004C04006830F4F85050EA0520DFF83C14F0
:10066000086000F083FC06003000FFF7BAFDDFF8F9
:100670005C08FFF7C1FEDFF85414FFF76BFDC7E01D
:10068000202D01D2012000E00020C0B2DFF88C064E
:10069000006830F4F85050EA0520DFF88016086052
:1006A000B6E0022D01D2012000E00020C0B2DFF848
:1006B000EC03006830F0807050EA0560DFF8DC136E
:1006C0000860A5E0B5F5007F01D2012000E0002020
:1006D000C0B2DFF8E80400686FF3102050EA05208C
:1006E000DFF8D814086093E0B5F5007F01D201204F
:1006F00000E00020C0B2FFF7A8FDDFF8D013DFF85C
:100700005C07FFF727FDDFF8B80400686FF31020DF
:1007100050EA0520DFF8A814086000F027FC060066
:100720003000FFF75EFDDFF8A407FFF765FEDFF896
:100730009C13FFF70FFD6BE02000DFF8D017884215
:1007400004D0DFF83416884214D02BE0002D01D1FC
:10075000012000E00020C0B25FF48020FFF7E5FD3B
:10076000DFF8AC070068000900012843DFF8A01794
:10077000086017E0B5F5004F01D8012000E0002027
:10078000C0B22800FFF7CBFC05000420FFF7CDFD29
:10079000DFF88C050068000900012843DFF88015A8
:1007A0000860FFE734E0DFF8D405844216D1092D54
:1007B00001D2012000E00020C0B22800FFF7AFFC0A
:1007C00005004020FFF7B1FDDFF8A80500688008AC
:1007D00080002843DFF89C150860FFE718E0DFF889
:1007E0002C07844213D1002D01D1012000E000200C
:1007F000C0B25FF48020FFF798FDDFF814070068AF
:10080000000900012843DFF808170860FFE7FFE749
:10081000F1BD0100012011F00F031A001300012B9C
:1008200008D0022B1ED0032B33D0052B4DD0062B26
:1008300062D070E0DFF8DC361B6813F00703022B90
:100840000AD00CD3042B01D003D308E002231800F4
:1008500007E00323180004E00423180001E0052347
:1008600018005AE0954B1B6813F00703012B04D0C6
:10087000022B05D0042B06D008E00323180007E064
:100880000223180004E00923180001E001231800E6
:1008900043E08B4B1B6813F00703012B06D011D3E9
:1008A000032B0CD005D3042B06D00BE00323180038
:1008B0000AE00223180007E00923180004E00623D9
:1008C000180001E00123180027E07E4B1B6813F09D
:1008D0000703012B04D0022B05D0042B06D008E01F
:1008E0000323180007E00223180004E0092318007E
:1008F00001E00123180010E0DFF81C361B6813F03C
:100900000103002B04D0012B04D10823180001E0BF
:100910000723180001E000231800C0B27047000050
:1009200000400E4004000E40015A620281BA8C0160
:100930002DE9F84F04000D00032603275FF0000B9C
:1009400014F00F0082465046012806D002284CD0F1
:10095000032864D0052855D09CE0EDB22800022879
:1009600008D003280BD004280ED0052816D009285B
:100970001ED01EE004200600002007001AE003201D
:1009800006000120070015E00220060002200700F3
:100990004E49DFF8C804FFF7DDFB0BE0012006003D
:1009A000032007004949DFF8B404FFF7D3FB01E057
:1009B00072E071E0012201213800C0B200F002F9BA
:1009C000FFF743FCDFF854050660DFF80005FFF78A
:1009D00013FD3E49FFF7BEFB00F06AFC00F0C6FACB
:1009E00080464046FFF7FDFB54E0BBF1000F02D10B
:1009F000DFF8C8B0FFE7EDB2062D01D0012000E01E
:100A00000020C0B2BBF1000F02D1DFF8B8B0FFE7A1
:100A1000EDB2062D01D0012000E00020C0B2BBF1F4
:100A2000000F02D1DFF898B0FFE7EDB228000128EF
:100A300008D0022809D003280FD0062815D009288D
:100A400021D023E00020814621E001220121002065
:100A500000F0B8F80220814619E0012201210120AE
:100A600000F0B0F80120814611E000F07FFA17494C
:100A7000FFF770FB01220021DFF82C01FFF724FBB8
:100A80000320814603E00420814600E004E0CBF827
:100A90000090FFE7FFF773FBBDE8F18F00410E40C8
:100AA0000200180003001A0044410E409C00002080
:100AB00006000C0040000E4005001E0080400E4065
:100AC00084400E4088400E4040410E400048E801FE
:100AD00038B504001120FFF79CFE042801D0012046
:100AE00000E00020C0B201220021022000F06AF8DC
:100AF0006078002806D1A078002803D1E07890F033
:100B0000010000E00020C0B20025207C012801D0B7
:100B1000012000E00020C0B2207C022801D1012089
:100B200005002078002802D04FF4807000E00020FB
:100B300055EA000240F20111DFF8EC03FFF7DBFA9F
:100B4000E27A0721DFF8E403FFF7D5FAA088617A9B
:100B500051EAC022DFF8D813DFF8D803FFF7CBFA49
:100B6000207AFFF778FBE188227AD20152EAC1218C
:100B7000A27A114350EA01027FF07F61DFF8B803E7
:100B8000FFF7B9FA207B617B090351EA0040A17BA2
:100B900050EA0110E17B51EA0002DFF8A013DFF810
:100BA000A003FFF7A8FA31BDB0400E40C0400E4090
:100BB000E0400E40E8400E40F0400E400C410E4038
:100BC00008410E402DE9F84F04000D001600E4B274
:100BD000002C29D0022C0CD01DD3042C12D02ED2E4
:100BE0000120814602208246012007000020804625
:100BF00026E00420814608208246032007000220C8
:100C000080461DE0102081462020824605200700F6
:100C10000420804614E04020814680208246072040
:100C20000700062080460BE04FF4807081464FF4A9
:100C300000708246092007000820804600E06BE033
:100C4000EDB2002D5DD05FF0000BE4B2022C16D1A6
:100C5000DFF8D402006810F0300F10D10120834675
:100C6000DFF8C4020068C00709D5DFF8BC020068DD
:100C700030F0300050F01000DFF8AC120860DFF800
:100C8000C402C0F800904146DFF8BC02FFF723FA27
:100C90000028F8D0F6B2002E3CD03900DFF8A802C8
:100CA000FFF719FA0028F8D0E4B2022C32D15FFA2B
:100CB0008BFBBBF1000F2DD09B480068C00705D50A
:100CC00001222021022000F003F903E0002102208C
:100CD00000F0C6F8022000F025F800900122002163
:100CE0000220FFF76FFF0099022000F049F89548B5
:100CF000C0F8009039009448FFF7EDF9002809D1B9
:100D0000F8E79048C0F800A041468F48FFF7E3F9A4
:100D10000028F9D100F0CCFABDE8F18F14410E4063
:100D200020410E400100C9B2012906D01DD303297C
:100D300009D014D304290CD017E0844A1268D205D4
:100D4000D20D100013E0774A126812F07F021000F3
:100D50000DE07F4A126812F07F02100007E07D4A22
:100D600012685205520D100001E000221000704779
:100D700050410E4028410E406006120070071400DA
:100D800070B504000E00E4B2012C06D064D3032C2D
:100D90001AD045D3042C2DD05EE0B6F5007F01D2E9
:100DA000012000E00020C0B2F605F60D1A215C48D3
:100DB000FFF791F90028F9D164480068400A400221
:100DC00030436249086047E0802E01D2012000E0F4
:100DD0000020C0B216F07F0618215148FFF77BF9BA
:100DE0000028F9D14F480068C009C00130434D497F
:100DF000086031E0802E01D2012000E00020C0B266
:100E000016F07F0619214648FFF765F90028F9D149
:100E10004F480068C009C00130434D4908601BE0DD
:100E200049480068800810F0010090F00100C0B24D
:100E30003D48006830F0300050F010003A4908603A
:100E4000C6F3C310FFF707FA050055EA0602424948
:100E50003948FFF750F9FFE770BD00000148E8018D
:100E600070B504000D00E4B2022C01D1012000E0B5
:100E70000020C0B230212C48FFF74AF9002803D1E6
:100E80005FF44000060012E0EDB22800002808D010
:100E9000202802D0302804D007E05FF400000600CC
:100EA00005E05FF44000060001E02C4806002648FB
:100EB00000683040B042FAD1700205D52848006879
:100EC000800A10F0010000E0012070BD000508005C
:100ED00070B504000D001600E4B2022C13D1EDB27F
:100EE000002D06D04FF480601E490860EDB21E4808
:100EF0000560F6B2002E06D02900C9B22000C0B2AB
:100F0000FFF7AEFF00E0012070BD00008009100077
:100F100030410E4094400E4070400E4074400E40F0
:100F200040410E4010400E4024400E4028400E40EC
:100F30007FF80F002C400E4030400E40FFF00F00B5
:100F400034400E4060400E4090400E4020400E4025
:100F500018400E409C400E40FF0700F0FF03C10701
:100F6000A0400E40A8400E4064400E4038B500F04E
:100F70000FF804001E480068C0F308200500681C34
:100F8000B4FBF0F41B480460200032BD1A487047DF
:100F90001A49096811F0070102290CD00FD304295E
:100FA00001D004D30BE01649096808000AE04FF4A9
:100FB0000041080006E013490968080002E01249F0
:100FC0000968080011490968C1F30421491CB0FBF4
:100FD000F1F070470B480068704770474FF40040CD
:100FE00070474FF47A7070470548006870470000FA
:100FF00008410E408411002000F0490294400E4048
:10100000AC000020A8000020B000002000410E40ED
:1010100080B5FFF7ABFF01BD8B0013EB401313F15D
:1010200084431A6070470200880010EB421010F1F0
:101030008440006870470068084070470020DFF86F
:10104000C4190860704745F60E00DFF8B81908604B
:101050007047DFF8C8090068C0B27047DFF8C00900
:101060000068000CC0B2704738B5DFF89809006816
:1010700010F001000500FFF7E6FF00200400DFF894
:101080008809007810F001000443DFF87C0900783B
:10109000C00601D5102000E000200443DFF86809F5
:1010A0000078400601D5402000E000200443DFF82E
:1010B00058090078400701D5042000E000200443CF
:1010C000DFF844090068C00502D54FF4807000E0E5
:1010D00000200443DFF834090460DFF834090078A5
:1010E00010F0070002281DD036D3042810D033D2C8
:1010F000DFF820090068800009D4DFF81C090068C7
:101100000006FAD50320DFF830190860FFE723E076
:10111000DFF8040900688005FAD50420DFF8181903
:10112000086019E0DFF8F00800680007FAD5302100
:10113000DFF8E008FFF77FFF002808D15FF44001E7
:10114000DFF8D408FFF777FFB0F5400FF6D10220A3
:10115000DFF8E4180860FFE7002D01D0FFF76EFF0D
:1011600031BD38B50400E4B2002C13D0DFF8D0084C
:101170000068DFF8B0180860DFF8C408006830F4D1
:101180007F40050055F4EE45DFF8B408056000F037
:1011900029F907E0DFF88C080068DFF8A418086078
:1011A00000F020F931BDDFF89408007801280FD154
:1011B000DFF87408006810F00300012804D1DFF89C
:1011C0006C080068C003FAD50220DFF870180870B8
:1011D000704710B50400DFF840080068DFF82818F1
:1011E0000860DFF84C080068DFF824180880DFF892
:1011F0004408006850F00400DFF838180860012047
:10120000FFF7AFFFFFF7CFFF30BF0020FFF7A9FFC9
:10121000E4B2002C02D0FFF727FF08E0DFF8F00768
:10122000007810F00700012801D0FFF7F1FE10BD93
:1012300038B50400DFF8E0070068DFF8CC17086075
:10124000DFF8EC070068DFF8C8170880DFF8B4079C
:10125000006810F001000500FFF7F5FE4FF4207064
:10126000DFF8A8170860002D01D0FFF7E7FEDFF8D0
:10127000C407006850F00400DFF8B81708600120C8
:10128000FFF76FFFFFF78FFF30BF0020FFF769FF09
:10129000E4B2002C02D0FFF7E7FE08E0DFF87007A9
:1012A000007810F00700012801D0FFF7B1FE31BD32
:1012B000DFF864070068DFF850170860DFF8700790
:1012C0000068DFF84C1708807047F0B4DFF8743717
:1012D000DFF87447DFF87457DFF87467DFF8747766
:1012E000DFF874C7DFF87407006810F1010F21D030
:1012F00058680100186802001160606801002068E9
:1013000002001160686801002868020011607068BE
:10131000010030680200116078680100386802003E
:101320001160DCF804000100DCF80000020011602C
:10133000012000E00020F0BC704738B5DFF820073E
:10134000006850F08070DFF818170860042000F083
:1013500036FBDFF81007006830F0C040DFF80417F4
:101360000860DFF8DC06006850F00600DFF8D016F1
:101370000860FFF773FE050000A800F09FFBEDB2C8
:10138000102D02DBEDB21C2D05DBEDB2512D02D08C
:10139000EDB2532D25D19DF80100012821D19DF8F2
:1013A000000003281DDADFF894060078002818D121
:1013B000DFF8B406006850F00100DFF8AC160860F2
:1013C000DFF8A00600680400DFF8A0060440DFF89C
:1013D000A0060443DFF88C0604600120DFF85C16E9
:1013E000087031BDF0B401242505DFF85466366875
:1013F000C6F303263200DFF87C663688DFF87476A1
:101400003F8828375FF0020C97FBFCF717FA86F647
:101410002836571C5FF0050C0CFB07F7B6FBF7F6F8
:10142000761E3000072800D30720000630F0E06663
:10143000002E01D1012600E00026F6B235F4E006C8
:10144000002E01D1012600E00026F6B2DFF8F0659B
:10145000366836F0EE6606432E43DFF8E4753E60EC
:10146000DFF81466B6F90060002E2BD4DFF80866AA
:10147000368833009BB213F12806022796FBF7F655
:1014800016FA83F62836571C12F1010C5FEA5C0C41
:101490001CEB4707B6FBF7F63100072900D30721FD
:1014A000090131F07006002E01D1012600E000266E
:1014B000F6B2DFF8C865366836F070060E43DFF81E
:1014C000BC753E60F0BC7047DFF8A8251080DFF8DF
:1014D000A82511807047F8B504000D00FFF7B9FD8D
:1014E0000600F6B2042E0BDADFF894050068070058
:1014F000E4B2002C02D0C7F3072719E0FFB217E0CF
:10150000DFF8800500680700002D05D0022D08D007
:1015100004D3032D08D009E0FFB209E0C7F3072781
:1015200006E0C7F3074703E03F0E01E0002010E0AC
:101530003F0337F47040002801D0002009E0DFF8B5
:101540002005006830F470403843DFF81415086057
:101550000120F2BD10B50400DFF82C050068C007BB
:10156000FAD4E4B2002C01D1002200E001220D21C6
:10157000DFF81805FFF750FDDFF8AC0400688008BD
:101580008000E4B22043DFF8A014086010BD38B535
:1015900004002078DFF8F8140860DFF8F40400682D
:1015A00010F00F002178884201D000207DE0FFF785
:1015B0008CFE2089C92801DA012000E00020C0B299
:1015C0002089A188884201D3012000E00020C0B218
:1015D000B4F90C00C92801DA012000E00020C0B2F3
:1015E0006078012806D1A088C92801DA012000E02E
:1015F0000020C0B2E08842F21171884201DA012075
:1016000000E00020C0B2E0884B2802DA002005008C
:1016100013E0E088B0F5FA7F03DA5FF08050050050
:101620000BE0E08840F6C411884203DA5FF0005016
:10163000050002E05FF040500500DFF80404006898
:10164000B4F90C10002901D4012100E00021DFF8D9
:101650004424104028430843DFF8E4130860FFF7F0
:101660006CFEB4F90C102089FFF72EFFA088DFF87C
:1016700028140880A08800F050F901220121608818
:1016800000F014F8002801D100200EE0A07A002814
:1016900001D0012200E000220521DFF80004FFF75D
:1016A000BBFC6078FFF756FF012032BD2DE9F74FF4
:1016B00084B05FF0000B0025002600200090002081
:1016C000019000208DF80800DFF8C403006810F0D6
:1016D0000F0002280FD10498B0F5E16F08D30498E9
:1016E00040F6B931884203D201208DF8080002E0AB
:1016F00000208DF808009DF80800002801D1002086
:1017000008E100200400E4B2022C80F20281E4B27D
:10171000002C03D19DF81400002806D0E4B2012C5F
:1017200004D19DF81800002800D1F0E0E4B2002CAC
:1017300002D0DFF86C7301E0DFF86873E4B2002CCC
:1017400002D05FF0080801E05FF001080498B0F5EE
:10175000E16F02D95FF0010901E05FF000095FFA73
:1017600089F9B9F1000F0ED04FF4E160009040F616
:10177000B8300190E4B2002C02D05FF0020A0AE017
:101780005FF0010A07E04FF4966000904FF4E160CB
:10179000019000208246E4B2002C18D05FFA89F94B
:1017A000B9F1000F09D0DFF80003006883465FEA53
:1017B0001B600500CBF3074B8AE0DFF8EC02006802
:1017C0008346CBF3072005005FFA8BFB80E0DFF850
:1017D0007002006810F0405003901AF0405F01D191
:1017E000012000E00020C0B2039850EA0A0000285F
:1017F0003CD0401E12D07FF07041401A40D0401EB5
:1018000016D07FF07041401A44D0401E1AD07FF0AD
:101810007041401A48D0401E1ED04FE0DFF88C02C5
:1018200000688346CBF3072005005FFA8BFB45E099
:10183000DFF87802006883465FEA1B600500CBF39F
:10184000074B3BE0DFF8680200688346CBF30720D4
:1018500005005FFA8BFB31E0DFF854020068834635
:101860005FEA1B600500CBF3074B27E0DFF8EC01D4
:1018700000688346CBF3072005005FFA8BFB1DE071
:10188000DFF8D801006883465FEA1B600500CBF3F0
:10189000074B13E0DFF81C0200688346CBF30720F8
:1018A00005005FFA8BFB09E0DFF808020068834659
:1018B0005FEA1B600500CBF3074BFFE70398010FBE
:1018C0004846C0B2FFF707FE002801D1002021E002
:1018D00000980199884201D300201BE004980099E8
:1018E000401AB5EB0B0148430199009A891AB0FBE5
:1018F000F1F006001BEB0606B54201D35E4501D2AE
:10190000002007E016FA08F05AEA00003860641C6C
:10191000F9E6012007B0BDE8F08F70B5040000259E
:10192000DFF89401006810F00706DFF81401006882
:10193000C00710D5022E0ED3142C02D204200500AD
:101940002EE0142C04D3282C02D20820050027E016
:101950001020050024E0DFF8E8000068C00710D47C
:10196000022E0ED20A2C02D20420050018E00A2C06
:1019700004D3142C02D20820050011E01020050029
:101980000EE0DFF8BC000068C00709D5022E07D2C0
:10199000282C02D20820050002E010200500FFE7F5
:1019A0006D1E280350EA0525DFF89400006830F426
:1019B0007F40284322490860FFF714FD70BD38B509
:1019C000040000211E48FFF72EFB0500002D02D168
:1019D000E4B2022C01DB002D01D0012000E0002048
:1019E000C0B2DFF8D4000068C008C000E4B22043F1
:1019F000DFF8C4100860DFF8A0000088FFF78DFF53
:101A000031BD000080410E404411002060400E4076
:101A1000B610002024400E4090400E400082E00F9F
:101A2000FC81E00F4811002040300E407C300E4019
:101A300094400E4010ED00E074400E409D110020D7
:101A40004C300E403880E00F4080E00F4880E00FBF
:101A50005080E00F5880E00F6080E00F1C83E00FA3
:101A60006C300E4060300E4044300E40000F0EF0DF
:101A7000B4C0400B321100209611002050300E40AF
:101A80002C83E00F3083E00F78300E4054300E404E
:101A900038300E40FEFFFFCF941100203C300E4046
:101AA0005C300E4064300E401883E00F2483E00F5A
:101AB0002883E00F2083E00F70300E400E4A12683A
:101AC00012F00F02920011000C4A1268C2F3811248
:101AD00011438170094A126812F03F024270084AAD
:101AE000126812F0F0021100064A1268C2F30312E3
:101AF00011430170704700BFE4FF0FE0E0FF0FE00B
:101B0000E8FF0FE0ECFF0FE02DE9F04FA1B08246B7
:101B1000002017461D4602910B900DF1440B6FF00B
:101B200000490AE017F8011B0298D04702900028EC
:101B300000F0A8820B98401C0B90387808B90B98DD
:101B4000A2E22528EED1002005900690079008908B
:101B500009900A9001E040F0010017F8011F2029C8
:101B6000F9D023290DD02B2904D02D2906D03029D6
:101B70000AD00CE040F0020080B2EEE740F0040032
:101B8000FAE740F00800F7E740F01000F4E72A29F0
:101B90000ED12968296051F8042B2960002A0D9282
:101BA00004D5514240F004000D9180B27F1C11E039
:101BB00000210D9109E00D99494505D001EB810304
:101BC00002EB430130390D917F1C3A78A2F13001CC
:101BD0000A29F0D339782E2903D04FF0FF310C9128
:101BE0001DE017F8011F2A2907D1296829607F1CE9
:101BF00051F8042B29600C9211E000210C9109E0AE
:101C00000C99494505D001EB810302EB43013039C2
:101C10000C917F1C3A78A2F130010A29F0D3ADF87B
:101C200038000FF67440397800F05AFE08B117F802
:101C3000010B8DF83A009DF83A00682802BF397808
:101C40006829622005D06C2804BF38786C2803D13D
:101C500071208DF83A007F1C11A8049017F8014BF1
:101C6000B4F125002AD01C3800F0CC80001F0228D7
:101C700040F2C880133800F0EE80093800F0C280CE
:101C8000801E00F04F81401E00F02481401E02287B
:101C900040F2B880001F00F01D81401F00F08380DB
:101CA000401E00F0D880401E29D0C01E0CD0801EDF
:101CB00000F0D180C01E00F0CE803DE101200590F3
:101CC00025208DF8440043E12868286050F8044B33
:101CD00028600394DDF83080B8F1000F04D5204669
:101CE00000F01AFE804607E042460021204600F040
:101CF0003BFE08B1A0EB0408CDF8188028E1296864
:101D000029604FF03C0851F8040B29600021CDE90F
:101D1000000111A80390DDE90001049C11B908B984
:101D20000C9AC2B10206120FA0EB02123032D2B2EC
:101D30003A2AA8BF27320009A8F1010340EA01703E
:101D400009091A5508BF0028984604D0039A08EBE1
:101D500004039A42E6D308EB04000390C8F13C0167
:101D60000C980691814209DA401A08904FF6EF71FB
:101D7000BDF838000840ADF83800E9E0002840F12F
:101D8000E7809DF8380000F01400102840F0E08053
:101D90000D98059A801A089A801A401A0128C0F2F4
:101DA000D7800890D4E09DF83A0062281AD06828BD
:101DB00006D06A280CD06C281CD0712808D019E0F5
:101DC0002868286050F8041B28600B980880BFE042
:101DD0002868286050F8042B28600B98C117C2E9C6
:101DE0000001B5E02868286050F8041B28600B98B3
:101DF0000870ADE02868286050F8041B28600B9834
:101E00000860A5E02868C01D20F007022A60D2E91A
:101E1000000108322A60CDE90001002903D5012024
:101E200005902D200CE0BDF83800810703D5012076
:101E300005902B2004E0C00704D501200590202048
:101E40008DF84400059911A808180390214600A8B0
:101E500000F0D8F97CE09DF83A206C2A0DD0712A68
:101E600018BF6A2A09D12868C01D20F007032B601B
:101E7000D3E9000108332B6005E02968296051F897
:101E8000040B29600021CDE90001682A08BF80B257
:101E900007D0622A08BFC0B203D0742A18BF7A2ABA
:101EA00002D10021CDE900019DF83800000730D5AE
:101EB000DDE90001002908BF00282AD044F02000F5
:101EC000782826D130208DF844008BF8014002207C
:101ED00005901EE09DF83A00294600F0D8F8CDE9BB
:101EE0000001002904DA0598411C05912D210EE01E
:101EF000BDF83800810704D50598411C05912B21B8
:101F000005E0C00705D50598411C0591202100F882
:101F10000B10059911A808180390214600A800F09D
:101F2000EDF815E0012005902868286050F8041BA2
:101F300028608DF844100BE0012005902520002C2E
:101F40008DF8440004D00598411C059100F80B4021
:101F50000D980599401A0899401A0699401A09994E
:101F6000401A0799401A0A99A0EB01089DF8380019
:101F700040070FD420208DF84000002408E0012302
:101F800010AA00A9504600F070FC00287AD1641C09
:101F90004445F4DB059C11AE0AE016F8011B0298DB
:101FA000D047029000286DD00B98401C0B90641E07
:101FB000002CF2D130208DF840000026089C08E06B
:101FC000012310AA00A9504600F04FFC002859D167
:101FD000761CA642F4DB069C039E0AE016F8011B61
:101FE0000298D047029000284CD00B98401C0B90D0
:101FF000641E002CF2D130208DF840000026099C90
:1020000007E0012310AA00A9504600F02EFCC8BB2F
:10201000761CA642F5DB03980699079C0E1809E08A
:1020200016F8011B0298D047029058B30B98401C39
:102030000B90641E002CF3D130208DF84000002658
:102040000A9C07E0012310AA00A9504600F00DFCED
:10205000C0B9761CA642F5DB9DF8380040077FF535
:102060006CAD20208DF84000002400E0641C444545
:10207000BFF663AD012310AA00A9504600F0F5FB9E
:102080000028F3D04FF0FF3021B0BDE8F08F622878
:1020900026D068281DD06A2808D06C2827D071283F
:1020A00004D0742823D07A280CD020E00868C01D02
:1020B00020F007000860D0E90023083008601946C6
:1020C000104670470A680A6052F8040B0A60002143
:1020D00070470A680A6052F8040B0A6000B20BE00D
:1020E0000A680A6052F8040B0A6040B204E00A6809
:1020F0000A6052F8040B0A60C11770472DE9FA4EC6
:1021000005460A462F696F2A08BF082405D041F00A
:102110002000782814BF0A2410243C26D5E90001A9
:10212000642A18BF692A81468A4605D1002903DA44
:10213000D9F100096AEB4A0ABAF1000F08BFB9F1F8
:10214000000F0CD1286B50B9082C36D195F8380007
:10215000000732D530203B2687F83B002DE0E317FF
:1021600048465146224600F04DFCA4FB0023A9EB53
:1021700002023032D2B2A6F1010B3A2A5E4603DBEC
:102180009DF80030513B9A1881465FEA010A0BF82E
:10219000072008BFB9F1000F03D0E868F1198842A1
:1021A000DDD3082C09D195F83800000705D5F05D7E
:1021B000302802D0761E3020F055C6F13C00A861D0
:1021C000F119E960296B884208DA081A28624FF68B
:1021D000EF71288F08402887BDE8F38E00290ED5BF
:1021E00095F8381001F01401102908D1696B6A695B
:1021F000891A2A6A891A081A0128A8BF2862BDE824
:10220000F38E00002DE9F24F04468EB0D4E90001B0
:10221000CDE9020104AF9DF8380040F0200BBBF17E
:10222000610F0AD0206B002848BF062004D408BFE5
:10223000BBF1670F01D1012020636168C1F30A502F
:1022400040F2FF7290421CD1080304BF20680028AE
:1022500009D10320A0619DF8380061381A2836D3CF
:102260000FF2486108E00320A0619DF83800613852
:102270001A2829D30FF22C61E068032200F03AFCFF
:10228000BEE1012816DA204600F06FFC012811DBC0
:1022900000250020BBF1610F20D1E168302201F858
:1022A000012B4A1CE2609DF83820612A0CBF78227D
:1022B00058220FE0626840F2FE3161F31E52451A67
:1022C00062604FF0FF30E5E70FF2D451D4E70FF230
:1022D000D851D1E70A706169891C616110B9002683
:1022E000002584E1BBF1610F40F09780206B00284E
:1022F0004CBF2126461CDDE90201D4E900AB0022D7
:10230000002300F053FC36B23ABF8BF00040CDE919
:1023100002A0CDE902AB06F101082D1F8DF81020B7
:102320000DF1110700E0C71DB8F1010F33DBDDE946
:1023300002010022002300F051FC2CD21C2102A833
:1023400000F064FCDDE9020100F0EAFCA8F10708F6
:10235000B8F1010F814609DB00F00EFD02460B4685
:10236000DDE9020100F020FDCDE90201F81D0721A1
:1023700005E009F00F0200F8012D4FEA2919B9F123
:10238000010F01DB491EF4D5491E5CBF002200F895
:10239000012DF9D5C7E70DF11100391AB142B8BFC7
:1023A0000E4636B230000DF111072FD4884206DAFE
:1023B00004A9411849780829A8BF0F2100DA002193
:1023C00004AA821800E0761E12F80139401E8B42E2
:1023D000F9D00F2904D104A941184A78521C4A7037
:1023E000002802D504AF761C2D1D36B2701E0DD408
:1023F000C1190A783032D2B23A2A03DB9DF838305C
:102400003A3B9A18401E01F80129F2D5206B0028AA
:1024100040F1ED80701E2063E9E0DDE90201002259
:10242000002300F0C3FB3CBF81F00041CDE9020175
:102430002DB247F2975068434B49DFF8309190FB3B
:10244000F1F52DB2C5F1070ABAF1010F90461CDB78
:10245000DDE902675FEACA7007D542464B4630465F
:10246000394600F061FD06460F464FEA6A0A4046CB
:10247000494642464B4600F057FDBAF1000F8046F0
:102480008946E7D1CDE9026724E0CAF1000A0026B7
:10249000374F14E05FEACA7007D542464B463046D4
:1024A000394600F041FD06460F464FEA6A0A4046AB
:1024B000494642464B4600F037FD80468946BAF110
:1024C000000FE7D1DDE9020132463B4600F0FEFD98
:1024D000CDE90201BBF1660F216BDFF898900CBFCC
:1024E00005F10A0006204618142EA8BF1326302036
:1024F0008DF810000DF11107012E3DDBDDE9020121
:1025000000F024FC07F1080104220A23B0FBF3F3D6
:1025100003EB8307A0EB4700303001F8010D0A20E0
:10252000B3FBF0F000EB8007A3EB47033033521E00
:1025300001F8013DE9D1083E012E01F10807DBDB7E
:10254000DDE9020100F002FC00F020FC02460B462F
:10255000DDE9020100F028FC00224B4600F0E4FC1B
:10256000CDE90201CAE700BFA086010000002440B7
:102570000000F03F84D797410DF11100381A0DF19A
:10258000110702E0401E6D1E7F1C39783029F9D0FA
:10259000BBF1660F02D12DB2691C04E0BBF1650FDF
:1025A0000CBF01210021226B8E1836B2B042B8BF99
:1025B000064636B231001AD4814204DAC85D3528A5
:1025C000A8BF392000DA3020CA19521E00E0761E5A
:1025D00012F80139491E8342F9D0392802D1C85D69
:1025E000401CC855002902D57F1E761C6D1C2DB2DB
:1025F0009DF83810009533B23A46204600F003F8B3
:102600000FB0BDE8F08F2DE9F043054685B01E46BA
:10261000D5F83080012E8946174602DA01260FF2DE
:10262000902749F02000BDF93040662808BF641C9F
:1026300017D0672840F0828014F1040FC0F2848024
:10264000444580F2818095F83800641C000702D46C
:102650004645B8BFB04624B2B8EB040848BF4FF0B7
:10266000000824B2E868A969012C25DA4A1C302345
:102670000B54B8F1010F03DA95F83810090702D5A9
:102680002E211154521C18EB040FB8BFC8F10004DE
:1026900024B26142A044B045AA61B8BF464669620F
:1026A00036B2EE613246AB693946181800F022FAAC
:1026B000A8EB0600A862C1E00818A64218DA324664
:1026C000394600F017FAA9697118A01BA961B8F181
:1026D000010F686203DA95F83800000705D5EA684B
:1026E0002E208854E869401CE861C5F82880A5E0E0
:1026F0002246394600F0FEF9A8692018361BB8F1C9
:10270000010F03DA95F83810090703D5EA682E217E
:102710008154401CA86136B2B045B8BF4646E8684F
:10272000AB6936B23246E119181800F0E3F9A8692E
:102730003018A861A8EB060068627FE0B9F1610F6C
:1027400016D14FF0700918E0464504DA95F83810B4
:10275000090758BFB046B8F1010848BF4FF000085C
:10276000B9F1670F14BF4FF045094FF0650904E058
:10277000B9F1410F08BF4FF05009A969E86817F88F
:10278000013B0B544A1CB8F1010F05DA95F83810DB
:10279000090758BFAA6117D52E211154531CB8F14F
:1027A000010FAB6110DB761E36B2B045B8BF4646AE
:1027B00036B232463946181800F09CF9A86930182C
:1027C000A861A8EB06006862E868A9690F182000F4
:1027D00007F8019B03D42B2007F8010B03E02D2100
:1027E00007F8011B644200260DF1080808E00A22E0
:1027F00000A800F08EFD019808F8010B761C009CE3
:1028000021B20129F3DA022E06DA49F02000652808
:1028100004BF302007F8010B4EB9302007F8010B38
:1028200007E0761E02A8305C303007F8010B012E5D
:10283000F7DAE868A9690818381AE86195F83800E5
:1028400000F0140010280DD16869A9690818696A98
:102850000818E9690818A96A0818696B8842BCBF9A
:10286000081A286205B0BDE8F083F8B504460D46A5
:1028700016461F46002004E0E86A401CE8627F1EFE
:10288000002047B116F8011BA868A047A8600028DF
:10289000F2D14FF0FF30F2BD686A6C747A4C0000E0
:1028A0006E616E004E414E00696E6600494E4600F4
:1028B000300010B450F8041B81B102681218001DDA
:1028C00050F8043BDC0744BFA9F10104E31852F8B7
:1028D000044B43F8044B091FF9D1EBE710BC7047D8
:1028E0000278C9B28A421AB11CBF10F8012FF9E769
:1028F00018BF0020704750F8041B61B150F8042B3A
:10290000D30744BFA9F101039A180023091F42F815
:10291000043BFAD1EFE7704700F10103810704D0CF
:1029200010F8011B89B18107FAD10268B2F10131B7
:10293000914311F0803F04BF50F8042FF6E710F8E0
:10294000011B11B110F8011BFBE7C01A7047826828
:10295000521C8260426832B10268531C03601170DD
:102960004168491E41607047C9B2830706D0521EB4
:1029700022D310F8013B9942F7D11FE0083A13D354
:1029800002F1040241EA012141EA014150F8043B0D
:10299000121F21BF4B40A3F1013C2CEA030C1CF099
:1029A000803FF3D0C9B2001F083210F8013B521E1D
:1029B00028BF91EA030FF8D818BF0120401E7047C6
:1029C00013F0004C03D55B42524263F100039CEAD2
:1029D000210C00F0178010B5644603D349424042F1
:1029E00061F1000100F00EF8640004D34942404256
:1029F00061F10001244203D55B42524263F10003BE
:102A000010BD00001B4213D1094236D12AB18446C1
:102A1000B0FBF2F002FB10C2704700F081BCFCD3A7
:102A20000022002370470B000200002100207047A5
:102A3000904271EB030CF6D370B5B1FA81F4B3FA9E
:102A400083F52C1BA340C4F1200532FA05F633436D
:102A5000A2405FF00046E64002E05B085FEA320217
:102A6000841A71EB030524BF204629467641F4D32E
:102A700002000B003000002170BD012ACFD970B5D3
:102A8000140C20D0B1FA81F4B2FA82F5C4F120041A
:102A90006419B4F12006D6D3B2405FF00044F4408C
:102AA000002502E052085FEA3303C61A71EB020EFA
:102AB00024BF3046714664416D41F3D302000B00E0
:102AC0002000290070BD0C46B1FBF2F102FB11455C
:102AD0002D0445EA1045B5FBF2F402FB145580B213
:102AE00040EA0545B5FBF2F002FB105240EA044013
:102AF00070BD000062B38B0708D0521E11F8013B75
:102B000000F8013B00F024808B07F6D1830740F0EA
:102B1000208000BF103A07D330B4B1E83810103A23
:102B2000A0E83810F9D230BC530724BFB1E8081030
:102B3000A0E8081044BF51F8043B40F8043BD2071A
:102B400024BF31F8022B20F8022B44BF0B7803700E
:102B50007047083A07D3B1E80810083A40F8043B38
:102B600040F804CBF7D25307E4E730B4436803F0EE
:102B7000004201211B031B0B436004BF0368002BB1
:102B800008D10DE00368DD0F45EA440444605B00B2
:102B90000360491E4468E302F4D523031B0B436022
:102BA00043681A434260084630BC70474FF4001C2B
:102BB0001CEB410F94BF1CEB430F09E041EA030CEF
:102BC00050EA4C0C52EA0C0C03D2994208BF9042D6
:102BD000704714BF8B428242704700004FF4001CC4
:102BE0001CEB410F94BF1CEB430F09E041EA030CBF
:102BF00050EA4C0C52EA0C0C03D28B4208BF8242C2
:102C0000704714BF994290427047000070B5044667
:102C10000D466068C0F30A5040F2FF71884207D148
:102C20006068000304BF2068002817D0022070BD30
:102C300020B92046FFF799FF012867DA012D0FDB45
:102C400040F2FF71091A8D420AD3606800284CBF18
:102C50009FED2F0B9FED300B84ED000B012070BD1D
:102C60004142A942616806DA6FF31E51401941EAF8
:102C70000050606041E0401E63684519012205F183
:102C8000350062F31F53352801F00041636003D320
:102C900061600020206070BD002215F11F0F04DA72
:102CA00022682360002020356060684213D0521EE5
:102CB00025689241C0F12003D2439D4045EAD2727B
:102CC00025686668C54006FA03F32B4323606368F2
:102CD00023FA00F0606060680843B2F1004F606062
:102CE00003D80DD12078C0070AD52068401C206089
:102CF000206828B96068401C60604FF0FF3070BDEC
:102D00006068884204BF20680028F6D1002070BDAA
:102D1000000000000000F0FF000000000000F07F55
:102D2000F446400D40EAC120490006D200F014F8F4
:102D3000004248BF6FF00040604700F00DF84FF0D0
:102D4000004188428CBF084640426047400D40EA3F
:102D5000C120490080F00D8040F00040490DA1F5F0
:102D60008061491C05D4D1F11F0154BFC840C01770
:102D700070474FF000007047010040F10980F446B1
:102D8000404200F005F851F000416047010000BFEB
:102D900009D0B0FA80F18840C91CC1F584610905E9
:102DA00001EBD0214005704770B44FF0004591EA27
:102DB000030F44BF6B4000F0B5BA00BF841A71EB3B
:102DC000030604D26E40001BB141121973414FF447
:102DD000001C1CEB410F34BF7CEB430684E00C0D60
:102DE000A4EB1356362E7DDC012E43DC45EAC323CB
:102DF00043EA525312BFD20292025B08240545EA0D
:102E0000C12141EA5051D2EBC020994125D407D1CC
:102E1000B0FA80F610FA06F164D00020203608E0FF
:102E2000B1FA81F6B140C6F1200220FA02F2114354
:102E3000B0404FEAF474B4EB465434F001064FEA64
:102E400074040AD8D6F50016760D04F00044F0405C
:102E500061FA06F25040F1404840C00A40EA415051
:102E600021F0004128BF5FEA500550F1000044EB1B
:102E7000D12137E045EAC323DB0A45EAC121C90A6B
:102E8000B6F120050EDD42EA0242120CC5F1200621
:102E900003FA06F6EB4042EA06056D42984161F1FD
:102EA00000010DE062FA06F5F240554063FA06FCB7
:102EB00082EA0C02F3405A406D42904161EB0301FB
:102EC00011F4801F05D1641E620502D06D004041DF
:102ED000494121F48011430875F1004350F100008D
:102EE00041EB045170BC70471CEB410F15D223F02D
:102EF000004352EA43060BD04FEA4C0CBCEB410FA7
:102F000004D80C0D661E342EB7DDEBE7801A99410C
:102F100050EA410608BF0021E4E708BF1CEB430F5D
:102F200028BF6FF00001DDE7B0B581EA030C0CF0BB
:102F3000004C40F2FF7515EA11541DBF15EA1357F6
:102F4000AC42AF4239E0E41923EA455343F480131D
:102F5000C90241F0004141EA505EC7021100A7FBDF
:102F6000020200284FF00000EEFB01204FF00001AC
:102F7000E3FB072118BF42F001024018002149413C
:102F8000E3FB0E01A4F580640F0302D2520040411E
:102F9000494154F101046CDD470872F1004250F1DF
:102FA000000051EB0451A1F580115CBF41EA0C0116
:102FB000B0BD4CEA05510020B0BD05EA1357AC4244
:102FC00014BFAF4241E050EA410E1CBF52EA430E2B
:102FD00002E061460020B0BD24423C441BD15FEAC0
:102FE000070EF6D0090302BF01460020AEF1140E11
:102FF000B1FA81F7AEEB070401FA07FE0C37C7F10F
:10300000200100FA07F7C8404EEA000E23EA4553B4
:1030100043F48013A2E733F00043B3FA83F704BF0D
:10302000B2FA82FE77440B3FE41BB7F1200E2FBFAC
:1030300002FA0EF3BB40C7F1200E22FA0EFE38BF93
:1030400043EA0E03BA40641C82E750EA410E14BF03
:1030500052EA430E6FF000014FF4001717EB430FD5
:103060008ABF194617EB410FB5E74CEA055100201E
:10307000B0BDD4F10104B4F120070FDAC4F1200788
:10308000520828BF42F0010210FA07F501FA07F7CB
:10309000E1BF2A43E0403843E1400FE0352C98DCA3
:1030A000C7F1200452EA400220FA07F218BF42F0AA
:1030B000010231FA07F0A1400A43002172F10042F7
:1030C00050F1000051EB0C01B0BD0000F0B540F232
:1030D000FF7581EA030C0CF0004C15EA11541DBF7A
:1030E00015EA1357AC42AF42E5E0BC41C1F313010E
:1030F000C3F31303801A994143F4801304D2641E6E
:103100004000494180185941C90241EA5051B1FB80
:10311000F3F603FB1611A2FB0675D7EBC020A941FD
:1031200002D2761E80185941C90241EA5051B1FBC2
:10313000F3FE03FB1E11A2FB0E75D7EBC020A941C5
:1031400003D2AEF1010E80185941890241EA905133
:10315000760546EA8E2EB1FBF3F603FB1611A2FBB1
:103160000675D7EB8020A94102D2761E80185941FE
:10317000C90241EA50514EEA060EB1FBF3F603FBD9
:103180001611A2FB0675D7EBC020A94102D2761E0C
:1031900080185941C90241EA5051B1FBF3F703FBD2
:1031A0001711A2FB0735D3EBC020A94167F1000737
:1031B0000CBF004247F0010766F3D5274FEA1E31E6
:1031C000B80814F5806412DDBD0775F1004250EBBC
:1031D0000E5051EB045111F5801F5CBF41EA0C0108
:1031E000F0BD4CF07F6141F0E0410020F0BDBD0733
:1031F0006D0840EA0E5041F48011D4F10104B4F19D
:1032000020060ADAC4F120060200E04001FA06F3C3
:10321000E1401843B24015430EE0342C13DCC6F1F4
:10322000200445EA40056D0820FA06F2154321FA0C
:1032300006F0A1400D43002175F1004250F100005D
:1032400051EB0C01F0BD00205FEA0C01F0BDCFB9DD
:1032500092185B41B3FA83F704BFB2FA82F6BF1942
:103260000B3FB7F120062FBF02FA06F3BB40C7F1B0
:10327000200622FA06F638BF3343BA401CB1E419DF
:10328000641E33E77F4231F00041B1FA81F404BF9C
:10329000B0FA80F6A4190B3CB4F120062FBF00FA57
:1032A00006F1A140C4F1200620FA06F638BF3143EA
:1032B000A0403C1B1AE7AC421ABF05EA1357AF42C5
:1032C00012E050EA41061CBF52EA4306BFE750EA4B
:1032D0004107304661461CBF41EA0551F0BD52EA44
:1032E000430C08BFC143F0BD00204FF4001616EB9D
:1032F000410F98BF16EB430F08BF16EB410F24BFD9
:10330000C14305E016EB430F0CBF61464CEA055183
:10331000F0BD91FBF2F303FB1211C0E900317047DD
:1033200070470000841A71EB030603D2001BB14101
:10333000121973414FF4001C1CEB410F34BF7CEB9E
:10334000430443E00C0DA4EB1356352E50DC45EA44
:10335000C323DB0A45EAC121C912B6F120050DDD00
:1033600063FA05F6EB4086EA0305124218BF45F002
:103370000105C01851F100010CD213E062FA06F504
:10338000F2405540F3415A40B340F3405A40801850
:10339000594107D349085FEA30005FEA350528BF85
:1033A00045F0010501F58011420875F1004250F128
:1033B000000041EB045170BC4FF4001C1CEB410FAA
:1033C00038BF70470020090D090570471CEB410FFD
:1033D00010D252EA43060BD0BCEB410F05D80C0DBE
:1033E000AB43661E342EB5DD02E0AB438018594175
:1033F00070BC704770BC7047000000000000000007
:103400000298380002984400029896010298B80188
:103410000298680002987C00029868000298960062
:103420000298D6000298F20002980801029818014A
:1034300002985C010298700100C6CC0F002106982A
:10344000EA0400F800C6CC0F00210698EA0400C583
:103450009C0F00210698560606984A080698B6085A
:1034600000C5A00F002100F800C6CC0F002106986F
:10347000EA040698DE0806989A0700F800C6CC0F02
:1034800000210698EA0410B902BA0698660300C53E
:10349000A00F002100F800C6CC0F00210698EA0416
:1034A0000698700503DC147210B902BA0698660318
:1034B00001D8087120B802A800F80698DE0800C5F7
:1034C000A40F00210698700503DC047204250698F9
:1034D000A0060298120A00C6CC0F00210698EA0442
:1034E0000698DE0800C5AC0F00210698A0060298D9
:1034F000120A00C6CC0F00210698EA0400C20000A0
:1035000002020698640300F800C6CC0F002106985A
:10351000EA0406989A0700F800C6CC0F0021069826
:10352000EA040698700507DC0A7200C5A00F0021A6
:1035300000F806989A0703B900C200000200069836
:10354000660300C5B00F00210698560606984A0883
:103550000698B60800C5B40F002100F800C6CC0FCD
:1035600000210698EA0400C5B80F00210298120A4B
:1035700000C6CC0F00210698EA040698460B069870
:10358000DE0806989A0700F80698140600C0240082
:103590000840207800F800C6CC0F0021B110076069
:1035A00001D80E7100C0084008407F78020C7E7878
:1035B0000698EA040298060900C6CC0F0021069876
:1035C000EA0400C2020200000698640304D90671EE
:1035D00001B802A800C0FC0E0021041301DB6071D9
:1035E00000C1580F00211411FF3102EC00C8FF2167
:1035F000FA7606981C03FFB91050087201B80298B9
:10360000880100C1540F00210811011202DB1C7156
:1036100000C1640F00211411006811280698C20B24
:1036200000C118000840FF20081100C0520F0021FF
:103630000698AC0B21110698980B01D8067110DB87
:1036400006720298CE0200BB00C54C0F0021541533
:103650005114076407644112FF321071511000C108
:103660000C0F00210698DC02014341120762FF3271
:1036700016715110076000C10C0F0021202106981F
:10368000DC020768014300C0500F00210698C20BFE
:10369000013B00C1080F002114113110FF300C71E3
:1036A00004610112006001DAF87131100760FF3027
:1036B0000C7100610112006001DAF87101D9107219
:1036C00000C00000100006A802B802988801069801
:1036D000F40900C000400840477800F8308840886E
:1036E0005088FFD8087102ECFF20F87000B802EC97
:1036F00000CD1414108801BB4111FF3150510471E9
:1037000031400764006B10DBF07100910421FF224F
:10371000DE720F4800950094009300A0108800C14D
:103720005C0F00211411113800C1600F0021141129
:103730000698980B011100C0680F00210410112891
:103740000698AC0B00DC0472FFB91110009100A0C8
:1037500000A088BA607A811202DAFC7200A088BAEE
:10376000407A00A0267000C0040F002100C4600051
:10377000084044140410014410D906710CDB08728F
:1037800000B8103C067201B8076A00C30040084048
:1037900000C1000F0021141120390672417B00A0E6
:1037A0000698520300C2FC0E0021241220DA047293
:1037B000617B02985E0300C06C70084003B918106A
:1037C0000110011001B9181000A0B11001D8047245
:1037D00000A000C0287008400411108800C1001823
:1037E0000040181000C06C7008400411108800C020
:1037F000147008400411108800C20000200021410C
:1038000018103DB1108800C0F4400840427800C054
:1038100038410840727800C010410840737800C0F9
:10382000F840084073784FB200C4FFFF8080413AEF
:103830004FAA00C3000040400698B60301100110D3
:103840000110011000C0047008400411076100C09D
:1038500000004000003A0471084908D90E72311086
:1038600000C400007F004138015200C00000004049
:10387000003A0471044904D90E72311000C40000EA
:10388000007F4138015200C000000200003B0A7274
:10389000006331424FAAA2704FAA00C010410840F5
:1038A000537800C0F8400840537800C038410840C1
:1038B000527800913DA9009100C014700840181082
:1038C000009100C06C7008401810009100C0287072
:1038D0000840181000A000881DB0022001584028A0
:1038E00006751EAC01EC009000A001B0076800C393
:1038F0006C0F00213414036C41500F3041500813F9
:103900000F3003640F340111C04806987E050698F5
:103910005E0303DD1E7204BA00C06C00084004118F
:1039200010D9047106BA0C2328130478FC230298DA
:10393000F80501DD0C7200C04400084025782678A7
:1039400009DD087208230298F805411303DF0672A7
:103950000298800900DD06720698DA0953B080BB30
:10396000006B30380A7109DD06710298020A00A066
:1039700000C06C0F0021041003600F3000A01088FD
:10398000B111076980D90A7100C18000084008118F
:10399000009100A0B11100C2000000402039067261
:1039A0000298F20500C1700F0021141201DC0672AA
:1039B00000BC247048BC00C060000840041040D81F
:1039C000087101B806981C06F0DA0C720CDB08715D
:1039D00002B806981C0600C380000840FFB801200A
:1039E00000C1740F00211411014118130142281362
:1039F000481300B80298140600C13830084014116A
:103A000000C00060084004100360013005680141F7
:103A1000181300A000C1700F002114120368F030C9
:103A20002113F03331520152281100A000C0203080
:103A30000E40041104101050F47200A000C0000CDD
:103A40000000013900C028400E400A780B780412AB
:103A50001142281000A00698080800C0F80F0021A5
:103A600004112EA900C0043008402178227800C03B
:103A7000980F00211DB118100698D0060111FF30D3
:103A80000769FF3151B300C4F3FFFFFF413B1159F8
:103A900000290675084B027051AB0698AE0700A0CE
:103AA0000698080800C0FC0F002104112EA9F82078
:103AB000041106983C0600C00430084021782378A1
:103AC0000698D00600C0880F00211DB1181000A074
:103AD00000C0FFFF00005414013C00C0BC0F0021D7
:103AE0000410012C0A7500B826A80698D60400C058
:103AF000840F00211DB1181028B000C1F0FFFFFF96
:103B0000113800C10E000000114028A800C080003C
:103B1000000000C144300840081100C0006F0000E0
:103B200026A800C0043008402178050C00C02430CD
:103B30000840267800C063EF000026A8050C20ECA2
:103B400000C004300840247820EC217800C07BEFCE
:103B5000000026A828B000C1F0FFFFFF113800C107
:103B60000A000000114028A8050C00C004300840DD
:103B7000207820EC0F0C00C098400840467841782F
:103B800006982C0600C2800F0021241000C300FFFD
:103B9000FFFF31381140081200A00698080800B84D
:103BA00026A800C08C0F00211DB1181000A000C372
:103BB000A440084000C17C300E40141100C00080B9
:103BC000010000392871B11004D822716E7B6F7B1F
:103BD00000C060300E40041100C2000000102141FE
:103BE00018101420041101BA21411810B11002D884
:103BF0001671707B00C03040084062786078010C1C
:103C00000DB001D8047100A000C0304008404078D9
:103C10000DB101D90472010C427800C074300E401D
:103C2000041100C2FEFFFFFF21391810EC2004111F
:103C300000C2FFFFFFEF213918101C7800C3A44019
:103C40000840707B4E7B4F7B00A008B86E784EB06A
:103C500010D8187200C00E0000003EA8140C00C05E
:103C60000F0000003EA80298820800C00E0000006D
:103C700044A8140C00C00100000000C1B0300E4088
:103C8000081100C077801F003DB201423DAA00C16B
:103C9000C40F0021141054A8140C00C077E01F00BA
:103CA00001423DAA00C0444108407D7800C00000A8
:103CB000004002A800A0069852030698CA0306987E
:103CC0005E0354140698D60400C0F44008404578BA
:103CD000090C00C0940F00211DB1181000A000C0F5
:103CE000444108405D7800B844A83EA800C1B03007
:103CF0000E40081100C0001000003DB101393DA97F
:103D000008B86F7800A0541000DC1C7101F8011491
:103D10000698D60400C00000010006A800C00040BC
:103D20000840417800F802982A0901F800C5800F80
:103D3000002154155114FF3507644113FF34076304
:103D40003112FF330762FF323110212B0158012A53
:103D500006982C06015851280475015841281875F9
:103D600051B00CD806712158067031101159012933
:103D70000675FF0FB87000C00000800006A800F8AC
:103D800000C3780F0021341300C4E010084044122F
:103D900000C000010400013A127108242814084BE5
:103DA00000C458100840237C287004DBF4720DDD39
:103DB000EE7100C1401008401410F8211411015890
:103DC00011280E7100C17810084008110760081111
:103DD000308800B806989405009300C0780F002141
:103DE000041102D90A7100C16C000840247900B99D
:103DF000181000A000C0780F002104110449181009
:103E000000A00698460B115106983C0601B802988E
:103E1000940500C0FFFF000054144115013D0764E4
:103E20000764013C0698D604508806985003009514
:103E300008B86C7800C0204008405A7859785B7800
:103E400000C1C80F0021141054A84EB010D806713C
:103E50000298AE0A4DB100C09FFFFFFF113840B17C
:103E600002D91472604800C1040000401112104AC7
:103E700004BB41540C70204802B903BA02BB02BC17
:103E80004DA840A900C0F84008407078190C3EB118
:103E900041413EA900C1F4400840737973787178BC
:103EA00000C1C00F002100C400410840287000C2BA
:103EB0000000010044AA230C00C200000B0044AA29
:103EC00000C1C00F002100C22000004004BB00C49C
:103ED0001841084000C0C83F0000141111382140AB
:103EE0000814050C114008140F0C2FAB050C04240A
:103EF000B11008D8187100C01C40084079787B7850
:103F00007A78042079787B787A78607CF42441137D
:103F100051140698D604727B00C04C410840050C31
:103F2000687840EC00C0900F00211DB1181000F817
:103F300000C068600840041100C000008000103814
:103F4000047240EC00A0015053A80698300B4EB00C
:103F500010D80A7200C4F8400840087000C410412C
:103F6000084041130C23527C407BFC2301502FA8B6
:103F7000050C341200C1FF3FC0E0113A28130A0CAF
:103F800000C000000100081406322813050C01507F
:103F9000081408B86D7800A004D90471036002D930
:103FA0000471016001D90471006000A0108804113F
:103FB000033008710761FF20FC721110FF3000917F
:103FC00000A010880411023006710761076111100A
:103FD00000C1FFFF00001138009100A0F7020000AF
:103FE000012100F01F029140DFF89C27400942F8B0
:103FF00020107047890001EB401000F184400260FE
:10400000704772B6DFF88407016811F1010F1CBF19
:10401000491C016000687047DFF87017086818B124
:10402000401E086000D162B6704710B50446FFF725
:10403000D7FF012004F01F018840DFF8541709E082
:1040400010B50446FFF7CCFF012004F01F018840A3
:10405000DFF84017620941F8220010BD012200215B
:1040600001E001220521DFF83007C3E70122032127
:10407000F9E701460122DFF82407BBE7DFF8200754
:104080000168C90702D500220021B3E77047DFF8B5
:10409000141708604A6822EA00004860704771B54A
:1040A00081B0DFF8040701998268114001910199FC
:1040B000016040F201109DF80410C9079DF804103A
:1040C00048BF40F2031089079DF8041048BF40F034
:1040D0000C0049079DF8041048BF40F01000090784
:1040E0009DF8041048BF40F04000C9069DF8041038
:1040F00048BF40F4907089069DF8041048BF40F412
:1041000080404906DFF8A4164A6848BF40F40050D2
:1041100082EA00031A400A6018404C6824EA02024E
:104120004A6008604A681043486000219DF8040016
:10413000C0099DF8050018BF4FF40051C20748BFE1
:1041400041F40071820748BF41F480614207DFF803
:104150006026536848BF41F4006100F035F85368A9
:10416000194351600021020748BF0421C0069DF891
:10417000060048BF41F00101C20748BF41F40001F9
:104180008207DFF83026536848BF41F47F0100F012
:104190001BF800245368DFF80C56194351600107DF
:1041A00048BFDFF81446C006686848BF44F480641E
:1041B00080EA04063040FFF76AFF04EA0600286040
:1041C00069680843686073BD83EA01042340136093
:1041D0002140556825EA030353601160704710B50C
:1041E00004460320FFF72CFF0420FFF729FF0620D9
:1041F000FFF726FF0520FFF723FF1C20FFF720FF16
:10420000DFF8A405446000222146826051B151F8D4
:10421000223023B183680124944023438360521CDD
:10422000152AF4D34FF0FF30FFF739FF0320FFF7D3
:10423000FCFE0420FFF7F9FE0620FFF7F6FE05203E
:10424000FFF7F3FEBDE810401C20EEE610B500F0CD
:1042500063FB0320FFF7F4FE0420FFF7F1FE1C20B0
:10426000FFF7EEFE1B20FFF7EBFE1E20FFF7E8FE38
:1042700000F026F9DFF844051B2181606021016010
:1042800000F0C3FEFFF7FAFE01200FF28D2100F0CF
:104290003CFC0FF23941022000F037FC0FF28D3167
:1042A000052000F032FC0FF25931072000F02DFC00
:1042B00000F05DFADFF80845206840F00800206053
:1042C00000F0FDFE00F01FFF4FF44001002000F061
:1042D0005BFF4FF40011012000F056FF01F08AF857
:1042E00001F0E8F90020606710BD10B50446FFF743
:1042F00088FE218860680023002200F044FCBDE8AD
:10430000104089E680B5FFF77CFE00F038FCBDE880
:10431000014081E610B5DFF8AC44206810F0070FCB
:1043200003D100F002FD401E606100F001F810BDF5
:10433000DFF88C04016821F020010160704780B52E
:10434000FFF75FFE032000F019FF10B900F037FF00
:1043500018B1FFF761FE012002BDFFF7DBFFFFF799
:104360007DFEFFF759FE002002BD38B504460D461C
:1043700000F0D9FC24B1E9B2204600F0AAFC02E02A
:10438000284600F0AAFC284632BDFEB50446DFF8F8
:10439000380406680D00274603D1204600F09DFC36
:1043A00032E0E1B200A800F094FC1421284601F0AC
:1043B000C3F9B10600A803D53F1FBFB23958296120
:1043C000F10606D5BF1EBFB2E9683A5A41EA02417A
:1043D000E960310705D5BF1EBFB2E9683A5A1143FB
:1043E000E960710703D5BF1EBFB2395A2981B107F1
:1043F00004D57F1EBFB2395CC909A971F10703D585
:10440000791E89B2085668712046FEBD80B518B184
:10441000DFF8B813401E086000F02FFC28B900F048
:104420000AF802D0804700F01AFCFFF781FF012054
:10443000BDE802401DE6DFF870034068806C0100B3
:104440007047012101F0D6B880B500281CBFBDE837
:104450000140FFF713BE00F015F8DFF864030168B0
:1044600041F020010160DFF834030168090A090204
:1044700001600120DFF85813086000F019F8BDE86A
:104480000140EEE510B5DFF84C43206807E000225C
:1044900001212046FFF7AEFD022000F0F1FE0122CF
:1044A00001212046FFF7A6FD2068C007EFD410BD0C
:1044B00000220121DFF81C039CE5012000F06CBE06
:1044C00080B5DFF814030168DFF8100300F0A5FAE7
:1044D000DFF8EC02702101F02FF9DFF8F80200217B
:1044E00001604160816001F02BF9002000F0A4FC24
:1044F000002000F0A7FC642000F095FC642000F090
:104500008BFC642000F082FC642000F06DFC6420D1
:10451000BDE8024000F062BC2DE9F041DFF8C04286
:10452000DFF8C062206AE16ADFF87C7201EA000508
:104530007560E806A56208D578688068804700F055
:10454000D9FB38B11020606204E0680602D57868B3
:10455000C068804715F0030F08D0032000F0FFFD6E
:104560003878C00702D5786800688047E8052CD500
:10457000DFF82882D8F8040000F07060B0F1C06F56
:1045800023D13878C00602D5786800698047206A50
:10459000C00616D400F0EBFBFFF768FD306880051D
:1045A00003D50120FFF765FD04E00022012140460C
:1045B000FFF720FD01220621DFF8DC01FFF71AFDDD
:1045C00003E0606A40F480706062680705D5206887
:1045D000C00702D4786840688047280702D5786809
:1045E00040688047680402D5786840698047A8041D
:1045F00004D578688069BDE8F0410047BDE8F081E6
:1046000038B5DFF8E40100F058F8DFF8AC010442F7
:1046100003D06968C96C20468847600504D568687E
:10462000006DBDE83240004731BD000038B5DFF80D
:10463000BC0100F042F8E00702D56868006B8047D3
:10464000600702D56868C06A8047A00107D568780E
:10465000800602D56868406B804701F042FA60012D
:1046600007D56878400602D56868806B804701F0FE
:1046700057FA200107D56878C00902D06868C06B76
:10468000804701F057FA14F47F0F15D004F47F042B
:10469000200207D5A878C00702D56868006C80475B
:1046A00024F400046868416C080018BF002C03D093
:1046B0002046BDE83440084731BDDFF8EC500168C2
:1046C000C26802EA010484607047000038B5DFF870
:1046D0002001FFF7F2FFA00402D56868C069804797
:1046E000A00502D56868006A8047600502D5686841
:1046F000406A8047200504D56868806ABDE832407A
:10470000004731BD2E480168C908C90001602D4825
:104710000168C908C900016001680160704710B5EF
:104720000446FFF7EFFF334824B9BDE810401821D5
:1047300001F002B821784160617881600021C16098
:1047400061680161A1684161617831B103E0C268CB
:10475000521C4908C260CA07F9D520781B49401C81
:1047600008601748016841F00701016010BD80B57D
:104770004C21224800F0E0FF1F490020086001BDE5
:10478000022000F0ECBC000080E200E04C110020B0
:1047900000E100E080E100E00840084000400840FF
:1047A0000C40084064500840F010002068000840A9
:1047B000886008401C400840001050004400084039
:1047C000FC0E0021040008404C000840180008407E
:1047D0002400084088400840DC3F0000003400000E
:1047E00040000840000F00215C5008401440084081
:1047F00080600840540F002190110020080F002114
:10480000890001EB401000F184400260704772B6ED
:10481000DFF87006016811F1010F1CBF491C01602F
:1048200000687047DFF85C16086818B1401E086021
:1048300000D162B6704770B500F014F832462946D0
:10484000204600F001F80AE09200FEF753B970B577
:1048500000F008F832462946204600F007F8BDE887
:104860007040DFE704460D461646D0E770B50023DA
:10487000302606E0DFF810565C5C06FB00555B1C3A
:10488000AC619342F6D370BD10B5DFF8FC3530242F
:1048900004FB0030BDE81040012200212830AFE7C2
:1048A000DFF8E8050068C0B200B101207047DFF80A
:1048B000E0050068000E00F00F00704780B500A80A
:1048C000FDF7FCF8DFF8CC05DFF8CC15016148F204
:1048D000E67141604FF408610160DFF8C005DFF860
:1048E000C01541609DF80120DFF8B815012A05D1F7
:1048F0009DF80020022ABCBF28228A644AF63F4263
:104900000A604FF0C071DFF8A02511600021016638
:10491000DFF89815016001BD10B582B000F0A8F86D
:1049200000200090AF23DFF8884522464FF48071C5
:10493000012000F00BF94FF400500090202304F503
:1049400080724FF48071002000F000F90020009088
:104950003E2304F500724021022000F0F7F8002108
:10496000002000F0E8F90021012000F0E4F9012125
:10497000022000F0E0F90121032000F0DCF9DFF86B
:104980003405016821F0F0010160016841F0A001E7
:10499000016003200FF2412100F0B7F8DFF818158D
:1049A00080200860DFF8141508600020FFF76CFF16
:1049B0000120FFF769FF0220FFF766FFDFF800051F
:1049C000016841F00B1141F420610160016821F49C
:1049D00080610160FFF772FF0122DFF8E804DFF871
:1049E000E844016841F0030101600021DFF8DC04C4
:1049F0000160016841F00101016020460821FFF7D4
:104A0000FFFE012209212046FFF7FAFE204602B0F0
:104A1000BDE8104001220721F2E670B584B00446DB
:104A20000D46FFF744FFDFF8A8644FF00450F06133
:104A30002A460120306221464FF00450FFF7FBFE6A
:104A4000DFF89004DFF89044DFF89054306000A85D
:104A50000ECC0EC00C3C9421284600F06DFE00A840
:104A60000EC80EC43C2000F0A4F9404228657FBD6A
:104A700080B50121DFF8680401F0D6F9DFF864049D
:104A8000012101F0D1F90121DFF85C0401F0CCF93A
:104A9000DFF85804012101F0C7F90121DFF85004C3
:104AA00001F0C2F9DFF84C04012101F0BDF9012148
:104AB000DFF8440401F0B8F9DFF84004BDE8044031
:104AC000012101F0B1B970B506460FF290440FF222
:104AD000844504E01A0F54F82220904708363368C2
:104AE00013F1010F0DD0C3F3036055F8200099B204
:104AF000C3F3074208437168022AEBD3FFF79BFE1A
:104B0000ECE7BDE8704001F0B1B8DFF8F4231DE137
:104B1000DFF8EC0300680047DFF8E4034068004773
:104B200000E000BFDFF8D80340690047DFF8D0039A
:104B3000406A0047DFF8C803C0690047DFF8C003D8
:104B4000C0680047DFF8B8038068004710B530241C
:104B50006043DFF83443B1FA81F1C1F11901015129
:104B60000019426002991943416210BDDFF8181321
:104B7000302202FB0010006AC004C00C7047002203
:104B8000114600230846F8B504460D4616461F4652
:104B90000020FFF779FE2A46214600F05EF8CFB1EB
:104BA000DFF86003C5F580728281446092B2BA4238
:104BB00005808660478007D2314600F04EF8BDE898
:104BC000F8400122042155E03A463146BDE8F8405C
:104BD00000203CE6F1BD000038B5DFF82C03016889
:104BE000C26811408160C06800EA0104600718D5FE
:104BF000DFF81053A8896A88A968121A411892B27E
:104C0000E12A06DBE02200F028F8A889E030A8813C
:104C100007E000F022F800220421DFF8A402FFF7E9
:104C2000EFFD600548BF01F061F9DFF8E0020442E2
:104C300018BF00F026F814F0090F07D00122052153
:104C4000DFF8CC02FFF7DCFDFFF799FFA00744BFB8
:104C5000BDE83140FFF793BF31BD0020F7E5DFF835
:104C6000B412486000220A8018B101224FF480611A
:104C700000E07047DFF84802C2E5DFF898024068BC
:104C8000704780B5DFF88C12002008800120FFF704
:104C9000FBFDBDE802400220F6E5DFF87C0201687A
:104CA00000208A0648BF0420CA0644BF801CC0B248
:104CB0000A0744BF801CC0B24A0744BF801CC0B270
:104CC0008A0744BF401CC0B2C90744BF401CC0B2E1
:104CD00070470A46014601203BE010B582B0044609
:104CE00004E0012100A8FFF7F4FF641EA4B2002C29
:104CF000F7D113BD80B50220FFF738FF02288041AD
:104D0000C043C00F02BD80B5FFF7F4FF10B94FF6E6
:104D1000FF7002BD022200A9022000F01AF8BDF8BF
:104D20000000C0B202BD012020E700201EE77B4842
:104D30000068C0B270477A4A52F8203023F44073BA
:104D400042F8203052F8203043EA012142F8201086
:104D5000704710B5302405E04B4B04FB00335B6912
:104D600001F8013B13465A1E002BF5D110BD88E710
:104D700001607047012243E5002241E502681143CA
:104D8000016070470268514001607047026811403D
:104D90000160704738B504460D46FFF738FD2068BE
:104DA0002840A842FBD1BDE831403BE5084601F070
:104DB000E1B838B5002848BF00200446C517594857
:104DC00001F048F80246A2FB040102FB051101B004
:104DD000BDE830400023544AFDF714BE38B500F05A
:104DE00012F8241A514D04E038B500F00CF8241ADA
:104DF0004F4D2046FFF7DDFF2880A4F11400FFF798
:104E0000D8FF688031BD044600F0A7BE38B5FFF773
:104E1000FAFF241A474DECE780B5001FFFF7C9FFE2
:104E20004549086001BD80B544490880001FFFF76F
:104E3000C0FF4349086001BD80B5FFF7BAFF414993
:104E4000086001BD80B5FFF7B4FF3F49086001BDB0
:104E500038B5FFF7DCFCFFF723FD04463B4800684C
:104E600000048515FFF71CFD0440FFF7DBFC15F57A
:104E7000007F02D1002CECD100E004B9344D28466B
:104E800032BD00004C1100200010084000400840D6
:104E90000440084034410840C0E653119C4008409B
:104EA0007A27000F0830084028700840806D63039F
:104EB000BC0C00204000084080E200E000E100E07F
:104EC000EC100840986008400C40084094400840AE
:104ED00060400840CC0F0021C00F00216C0F002162
:104EE00000340600000406000044060000740600BA
:104EF000006406000054060000240600008406003A
:104F0000E00F0020C8100020E0100840000A0A004E
:104F1000084008401C1100204C0008404410084084
:104F2000A00008406051070000127A00AC0F002179
:104F3000A40F0021B80F0021B00F0021981100200C
:104F40009C0F0021A00F0021B40F00210870084021
:104F500000FEFFFF0000084000000021714D00002E
:104F60008D4D0000854D00007D4D0000AD4D0000D1
:104F7000754D0000794D0000954D000010B50400FE
:104F80002FD00121334800F04FFF33480121FBF7B8
:104F9000E6F9324960684860F82231488260E37A75
:104FA000227A42EA0322A37B42EA03424260227849
:104FB000C2B902220A60072101600023617B207BC5
:104FC000042201F00DF9217CE07B0023042201F092
:104FD00007F9A17A607ABDE810400123042201F0AC
:104FE000FFB810BD012A03D10A6005210160EAE77C
:104FF000022A04D105220A6001210160E9E7032A9F
:10500000E7D100220A60026010BD70B5154C134E46
:1050100025687168002049B10E4800F01BFF7168D7
:1050200000EB5100B0FBF1F0401E00020E490A688F
:1050300042F080420A6031680C4A2A40114308431A
:10504000206070BD08490968002944BF084908600C
:105050007047000000340600002508000C110020F5
:10506000740008407C00084094400840FC00FFFFAA
:1050700080000840012100F01F029140DFF840222B
:10508000400942F820107047890001EB401000F100
:1050900084400260704772B6DFF82802016811F19F
:1050A000010F1CBF491C016000687047DFF8141233
:1050B000086818B1401E086000D162B6704738B564
:1050C000DFF804520121284600F0AEFEDFF8FC4173
:1050D000DFF8FC012060284600F0BCFE4FF47A7136
:1050E000B0FBF1F04002B0FBF1F0A0F58071090ACD
:1050F000C0B240EA0120A0624FF0FF3000F090F80B
:10510000401E206331BD80B51C20FFF7B3FF7149FD
:105110004FF0805008600122BDE8084000210BE0FC
:1051200080B51C20FFF7A6FF6B494FF08050086048
:105130000122BDE8084002216848A5E768480068E8
:105140001FE0684800210160416081607047664A45
:1051500013680A1A3CBF581C82181046704710B5D5
:10516000044662480022002100EB0410FFF78CFF88
:105170004FF480705E49A040086010BD5B4900019B
:10518000405800F00100704701F46001574A0001E7
:1051900041F0030181507047544901EB0010C06891
:1051A000704780B52220FFF74DFFFFF774FF012203
:1051B00012214A48FFF768FFBDE8014076E74848FA
:1051C000006810F0060018BF012070472DE9F0417B
:1051D00000F052F84FF47A71B0FBF1F445480168E1
:1051E0000268C1F30F20401CA0FB0587D6B2002344
:1051F000A6FB0501FF22FDF705FC18EB0000794135
:105200004FF47A72A2FB008702FB01770023002192
:1052100018EB540079412246BDE8F041FDF7F2BB9E
:10522000F8B500F029F833490A680968C2F30F227B
:10523000521CC9B2C2EB02228C184FF47A71B0FB37
:10524000F1F0A5FB000110F5FA7041F100014FF4F7
:105250007A720023FDF7D6FBFF22A2FB006702FB58
:1052600001770023002116EB54007941224601B05A
:10527000BDE8F040FDF7C6BB0546134800F0EABDA7
:105280002DE9F843164CE568FFF7CAFF0646606A49
:1052900047082068C00701D40FE0361AB046BE4266
:1052A00088BFB846D4F80C9049462846FFF74FFF10
:1052B0004045F7D3B0424D46EFD3BDE8F18300003F
:1052C00080E200E04C11002000040600005008407D
:1052D0000011010000E100E080E100E0045008401E
:1052E0000C5008401050084030500840745008409E
:1052F0006450084028500840890001EB401000F13C
:105300008440026070472DE9F34F464881B005683C
:105310000198002400F0F8FF45F0CC00A84207D126
:105320004148C068C00703D4404800F0CBFD08B135
:1053300000205DE072B63E48006810F1010F02D017
:105340003B49401C086001223A4DDFF8ECA0D5F83B
:105350000090DAF80080286820F060502860022170
:10536000286840F0006028602420CAF800002E4819
:10537000FFF7C2FF314E4FF48047B7664FF48050BD
:10538000706207E001985A4600A92018FDF7B2FBA9
:105390005C44A4B2BDF80800844215DA306E4004C3
:1053A000FCD53068C005F9D5B766DAF8040000907E
:1053B000BDF80800001B0428BABFBDF80800A0EB28
:1053C000040B4FF0040BDDE7002202211648FFF723
:1053D00093FF1748CAF80080C5F80090B7660068C8
:1053E00020B11349401E086000D162B6BDF8080024
:1053F000BDE8FE8F80B5022100A8FFF784FF0228D8
:1054000001D0002002BDBDF800004FF60401884223
:1054100004BF401CADF80000BDF80000084908605A
:10542000012002BDC8400E40004008406051070006
:105430004C1100201860084084000840000008401B
:1054400058500840A4480068000E00F00F00704754
:10545000A24840687047A148C06870479F4880686C
:10546000704710B59E480168C90D01F00701012978
:1054700006D00DD3032907D004D3042906D007E0B2
:10548000082106E00C2104E0102102E0202100E0C8
:105490000721006810F0070003D0C01E012803D9BF
:1054A00004E001EB410402E0CC0000E08C00FBF7DB
:1054B00091FDB0FBF4F010BD8A480068C105C90D2C
:1054C00001F00700C90811F0070F1CBF01F0070227
:1054D0005043C90818BF4843704783480068000913
:1054E00000F0010080F001007047D0B50646FFF7DC
:1054F000E3FF044600217D4822460B46FDF760FA93
:1055000000278F420DDB01DC86420AD30021784858
:1055100022460B46FDF754FAB94204DC01DBB042E7
:1055200001D20020D0BD0120D0BD2DE9F8450446B0
:105530008A46FFF7C1FF80462046FFF7D6FF6A483C
:105540000168B8F1010F0CBF21F0100141F010010A
:105550000160FBF73FFD08FB04F5604E654F74608A
:1055600000230446690BE8042246FDF74BFA386035
:10557000FFF777FF0246B2600023786800F48010DE
:105580000090A8FB020100F02EF80103009850EAF9
:10559000113078600023A8FB0A0100F024F8C6F857
:1055A0000CA03861307818B9786A00F03F0030708C
:1055B00051480068C00613D531785048504AB5FBB1
:1055C000F0F0514300FB00F240F253535A434CF2C7
:1055D0000C6303FB10204B4A1018B1FBF0F078620B
:1055E000BDE8F14517E0C90441EA5031C004224644
:1055F000FDF708BA38B504460D46FFF723FF042827
:10560000FBD00A28F9D04048046015B13F498020FA
:105610000860BDE831403EB50FF210113C4D1CC989
:1056200000A82E491CC048688A68374B1018CA6801
:105630001B68096903FB0200364AB0FBF2F200ABBB
:10564000D218012352789340B0FBF3F000EB5103E2
:10565000B3FBF1F14B1E30490C682C4043EA023297
:105660000C6000AD2D4B0C68B0FBF3F35B195B785D
:1056700042EA832222430A6000F001F837BD10B5E8
:105680000446FBF7A7FC4000B4FBF0F0244A136883
:10569000401E411C082928BF072123F4EE63082877
:1056A000136028BF07201368090241EA001018435D
:1056B000106010BD1048016841F00401016070479E
:1056C00006490861174908181749B0FBF1F0C01ED8
:1056D000C0B2FCF774B90000044008404400002048
:1056E0003860084034300840384108400037178996
:1056F000007DDAAC2C3008409440084000366E0142
:1057000080969800502D1900383008400840084015
:1057100000C2FFFF40BE4025A4400840401B5F136D
:105720003040084020A1070040420F000000010265
:105730000203030303000000002200F0E9BD0000A3
:105740001048114A416D006800020016C9B2FF29D5
:1057500018BF10F1010F19BF00EBD070401090215D
:105760000C20401890700220507023201070704759
:1057700006480168090E01F00F01022904BF8021CB
:1057800041607047B081E00F810F00210440084064
:1057900010B504003BD0FFF76BF9DFF810050021CE
:1057A00000220B460EC02078DFF8041502281BD11A
:1057B000086880022BD408222146DFF8F804FDF7A0
:1057C00099F9E08800F0CCF900F02BF8B4F9020068
:1057D00000F01FF8DFF8E0040168C908C9000160A3
:1057E00000F044FA012010BD012804D1086810F42B
:1057F000400F0CD1DFE7DFF8C4040068096800F04F
:10580000010080F0010001F480010843D3D00020A2
:1058100010BD80B500F002F9DFF89804B0F902007D
:1058200002BDDFF890040078022808BF00F03BB802
:10583000012808BF00F01BB8DFF88404016821F0DC
:1058400006010160016841F004010160C168C908F6
:10585000C900C160C16841F00501C160816821F0E3
:10586000C0018160816841F0810181607047DFF88B
:105870005004DFF85024016821F00601016001683E
:1058800041F002010160C168C908C900C160C16876
:1058900041F00601C160816811408160416821F4D6
:1058A000404141607047DFF82004416821F4EE4137
:1058B0004160416841F48A414160016841F0010161
:1058C0000160704730B5DFF8E413DFF804340A688C
:1058D0001A400A60C0F3431342F47C5242F0C802FB
:1058E0000A6000F01F04C01300F00102DFF8C003DB
:1058F0000068C04300F4FE10B0FA80F0C0F113005D
:1059000098423CBF03461F240BB9012300E004B9B1
:10591000012401259D4008686D1EEDB240EA8530E6
:105920000860002A40EA0460086044EA4310DFF897
:10593000A4130A6805D042F480020A6040F40040D3
:1059400030BD22F480020A6030BDB1F900208242ED
:10595000B8BF1046A0F1C8026FF0270392FBF3F224
:10596000082AA8BF072201EBC201091D01284B68C4
:10597000B1F9021000FB0131A8BF01F5FA714FF433
:105980007A70B1FBF0F0072A1FBFCA4909780229D3
:1059900040F400407047012231F83230834202D394
:1059A000521C082AF8D3521E01EBC20120F4004019
:1059B0004FF47A7250434A68B1F90210801A0128F4
:1059C000A8BF00F5FA7090FBF1F0704710B5B74A28
:1059D000C14B11680B4083281360BE490EDA1C0AC4
:1059E00004F47F5423431F2813600CDA0A6852081A
:1059F00052000A608A69520852000BE043F47C535B
:105A000043F0C80313600A6842F001020A608A6921
:105A100042F001028A61BDE810403CE070B5A54C3F
:105A2000A24DB4F9041040182178012914D1296835
:105A3000A64A1140296006210FF2D43232F9113002
:105A4000984201DA491EF9D132F911602868491CDF
:105A500040EA0160286015E0627801B1921C0FF203
:105A6000A021442313FB02163146FFF76EFFFFF718
:105A700029FF212808BFB6F9026003D0311DFFF7C6
:105A80008AFF06463046FFF7A1FFA088301A6080E3
:105A90002868E06070BD10B5864A9049127ADAB184
:105AA000792819DB0A6F8E4B1A400A6793388D4AA2
:105AB000146823401360052390FBF3F00930800045
:105AC0000B6F40F4574003430B6713681843106093
:105AD000086840F0080002E0086820F0080008604C
