:10000000B8230020A9E90000A5EB0000A9EB00003F
:10001000ADEB0000B1EB0000B5EB0000000000000C
:10002000000000000000000000000000B9EB00002C
:10003000BDEB000000000000C1EB0000C5EB0000BC
:10004000C9EB0000796E0000CDEB0000816E00006E
:10005000AD6E00008B6E0000896E0000A56E000082
:10006000471C0000552000004BB8000081E4000050
:10007000D1EB0000D5EB0000D9EB0000DDEB000078
:10008000E1EB000071200000E5EB0000E9EB00006F
:10009000EDEB0000F1EB0000F5EB0000F9EB0000E8
:1000A000FDEB000001EC000005EC0000956E000087
:1000B0009D6E0000BFBA000009EC00000DEC0000CE
:1000C00083E3000011EC00008B0013EB401313F1ED
:1000D00084431A6070470200880010EB421010F150
:1000E00084400068704738B504000D00E4B2002C6D
:1000F00001D13F201CE0E4B2012C02D14FF4784042
:1001000016E0E4B2022C02D14FF47C6010E0E4B2BD
:10011000032C02D14FF47C400AE0E4B2042C01D15C
:10012000002005E0E4B2052C01D1FF2000E0002012
:10013000284110F001002900DFF81405E4B2302254
:1001400002FB04001C30FFF7C6FF32BD38B50400C7
:100150000D00E4B2002C01D13F201CE0E4B2012CE0
:1001600002D14FF4784016E0E4B2022C02D14FF4F1
:100170007C6010E0E4B2032C02D14FF47C400AE032
:10018000E4B2042C01D1002005E0E4B2052C01D139
:10019000FF2000E00020284110F00100002229008B
:1001A000DFF8AC04E4B2302303FB04000C30FFF7AB
:1001B0008BFF31BD38B504000D00E4B2002C01D135
:1001C0003F201CE0E4B2012C02D14FF4784016E04D
:1001D000E4B2022C02D14FF47C6010E0E4B2032CB4
:1001E00002D14FF47C400AE0E4B2042C01D100209B
:1001F00005E0E4B2052C01D1FF2000E000202841F9
:1002000010F0010001222900DFF84404E4B2302399
:1002100003FB04000C30FFF757FF31BD2DE9FC4113
:1002200005000E0017009846089CE4B201945FFA9E
:1002300088F8CDF800803B00DBB2320031002800A6
:10024000C0B201F0BDFABDE8F38172B6DFF8040474
:10025000006810F1010F06D0DFF8F8030068401CB9
:10026000DFF8F0130860DFF8EC0300687047DFF890
:10027000E403006800280FD0DFF8D8030068401EB0
:10028000DFF8D0231060DFF8CC03006801000029FC
:1002900000D162B6080000E000207047816470471A
:1002A000010000200200042A0DD2DFF8AC0350F850
:1002B0002200407F884204D1DFF89C0350F82200DE
:1002C00002E0521CEFE70020704710B5040094F8DC
:1002D0003100022805D1617F607EFFF704FFC0B2C4
:1002E00000E0002010BD70B582B00400E4B2200030
:1002F000FFF7D6FF0500002D2DD095F8310002281C
:1003000029D12800FFF7E1FF2875687D022822D156
:1003100000208DF8000000A9686801F071FC06005B
:10032000002E18D19DF80000002814D095F82E005A
:10033000002810D1287D002803D095F82F00002830
:1003400006D0002085F82F00686801F03AFC02E032
:10035000686801F017FC73BD10B582B0040094F812
:10036000310002281CD1607D002804D1A17FA07E2D
:10037000FFF7ECFE38E0607D012804D1A17FA07E6C
:10038000FFF718FF30E0207D002804D1A17FA07E78
:10039000FFF7DCFE28E0A17FA07EFFF70BFF23E044
:1003A00094F8310001281FD1207D00280ED11120A2
:1003B0008DF80000200001F0CAF8012200A92000F9
:1003C00001F05CF8200001F0EBF80DE013208DF84F
:1003D0000000200001F0BBF8012200A9200001F07C
:1003E0004DF8200001F0DCF8002016BD2DE9F041A9
:1003F00004000D001600FFF728FFA088E18888425E
:1004000006D300203060FFF732FFDFF8500220E013
:100410002088142780B2142101FB004010F1080845
:100420003A002900404601F045FD2088142101FBD7
:100430000040083030602088401CE18890FBF1F2D9
:1004400001FB12002080A088401CA080FFF70FFF56
:100450000020BDE8F08138B504000D00FFF7F5FE7F
:10046000A088002806D100202860FFF700FFDFF8F1
:10047000F00113E06088142101FB0040083028607F
:100480006088401CE18890FBF1F201FB1200608063
:10049000A088401EA080FFF7EAFE002032BD38B5DC
:1004A00004000D00FFF7D1FEA088002806D100202F
:1004B0002860FFF7DCFEDFF8A80108E0608814215F
:1004C00001FB004008302860FFF7D1FE002032BD5C
:1004D00090F8321000290DD104210268D160016822
:1004E00009698907FBD50168496F51F0020102686B
:1004F000516710E090F8321001290CD104210268F4
:100500005160016889688907FBD50168496D51F020
:10051000020102685165704790F83210002909D134
:100520000168496F31F002010268516708210268D1
:10053000D1600CE090F83210012908D10168496DB2
:1005400031F002010268516508210268516070476C
:1005500070B586B004000D000026012084F82D003F
:1005600094F83200002803D12068343006000BE0F4
:1005700094F83200012803D120682830060003E0F7
:10058000002084F82D000FE004940FF22100039066
:100590000020029068680190012000902B683200D2
:1005A000E168606801F0C8FA06B070BDF8B50400F3
:1005B0000D001600370000A9B86AFFF770FF009819
:1005C000002801D0012000E00020C0B200200099E6
:1005D0000861002000998860FFF737FE0098C06826
:1005E00000280AD00098436800980268002138006B
:1005F000DDF800C0DCF80CC0E04700A9B86AFFF7DE
:100600002AFFB86A8088002808D000A9B86AFFF7D6
:1006100046FF00993800FFF79BFF02E0002087F8B3
:100620002D00FFF724FE0120F2BD0300002B02D1B4
:10063000DFF8880A0AE0002904D0002A02D0B2F5C7
:10064000006F02D9DFF8780A00E000207047000050
:1006500000A00040541F0020C01E00200A7000F0BF
:100660000B7000F002001068DFF8583A984240F032
:100670008982087A002801D100209BE0087A0128AD
:1006800001D1002096E0087A022801D1002091E0F3
:10069000087A032801D100208CE0087A042801D1CF
:1006A000002087E0087A052801D1002082E0087A3E
:1006B000062801D101207DE0087A072801D1012018
:1006C00078E0087A082801D1012073E0087A092827
:1006D00001D101206EE0087A0A2801D1012069E0E9
:1006E000087A0B2801D1022064E0087A0C2801D195
:1006F00002205FE0087A0D2801D102205AE0087A32
:100700000E2801D1022055E0087A0F2801D10220DD
:1007100050E0087A102801D102204BE0087A112815
:1007200001D1032046E0087A122801D1032041E0DC
:10073000087A132801D103203CE0087A142801D15B
:10074000032037E0087A152801D1032032E0087A27
:10075000162801D103202DE0087A172801D10320A3
:1007600028E0087A182801D1052023E0087A192802
:1007700001D105201EE0087A1A2801D1052019E0D0
:10078000087A1B2801D1052014E0087A1C2801D121
:1007900005200FE0087A1D2801D105200AE0087A1B
:1007A0001E2801D1052005E0087A1F2801D1052067
:1007B00000E0FF20D075487A002801D100209BE09E
:1007C000487A012801D1002096E0487A022801D118
:1007D000002091E0487A032801D100208CE0487A7B
:1007E000042801D1002087E0487A052801D10120A2
:1007F00082E0487A062801D101207DE0487A072866
:1008000001D1012078E0487A082801D1012073E065
:10081000487A092801D101206EE0487A0A2801D1DE
:10082000022069E0487A0B2801D1022064E0487A6E
:100830000C2801D102205FE0487A0D2801D1022066
:100840005AE0487A0E2801D1022055E0487A0F2854
:1008500001D1022050E0487A102801D103204BE05A
:10086000487A112801D1032046E0487A122801D1A4
:10087000032041E0487A132801D103203CE0487A64
:10088000142801D1032037E0487A152801D103202C
:1008900032E0487A162801D103202DE0487A172843
:1008A00001D1052028E0487A182801D1052023E04D
:1008B000487A192801D105201EE0487A1A2801D16A
:1008C000052019E0487A1B2801D1052014E0487A58
:1008D0001C2801D105200FE0487A1D2801D10520F0
:1008E0000AE0487A1E2801D1052005E0487A1F2831
:1008F00001D1002000E0FF201076087A002801D105
:1009000000209BE0087A012801D1012096E0087AB6
:10091000022801D1022091E0087A032801D10320A6
:100920008CE0087A042801D1042087E0087A0528A1
:1009300001D1052082E0087A062801D10B207DE054
:10094000087A072801D10C2078E0087A082801D11C
:100950000D2073E0087A092801D10E206EE0087A94
:100960000A2801D10F2069E0087A0B2801D106205E
:1009700064E0087A0C2801D107205FE0087A0D288E
:1009800001D108205AE0087A0E2801D1092055E04B
:10099000087A0F2801D10A2050E0087A102801D1E6
:1009A0000B204BE0087A112801D1092046E0087A93
:1009B000122801D10A2041E0087A132801D10B2026
:1009C0003CE0087A142801D10C2037E0087A152879
:1009D00001D10D2032E0087A162801D10E202DE039
:1009E000087A172801D10F2028E0087A182801D1A9
:1009F000002023E0087A192801D101201EE0087A9E
:100A00001A2801D1022019E0087A1B2801D10320FD
:100A100014E0087A1C2801D104200FE0087A1D2870
:100A200001D105200AE0087A1E2801D1062005E040
:100A3000087A1F2801D1072000E0FF20D076487AED
:100A4000002801D101209BE0487A012801D1022031
:100A500096E0487A022801D1032091E0487A0328E1
:100A600001D104208CE0487A042801D1052087E0D8
:100A7000487A052801D10B2082E0487A062801D166
:100A80000C207DE0487A072801D10D2078E0487AD3
:100A9000082801D10E2073E0487A092801D10F20DF
:100AA0006EE0487A0A2801D1062069E0487A0B28CE
:100AB00001D1072064E0487A0C2801D108205FE0CA
:100AC000487A0D2801D109205AE0487A0E2801D130
:100AD0000A2055E0487A0F2801D10B2050E0487ACF
:100AE000102801D109204BE0487A112801D10A20B1
:100AF00046E0487A122801D10B2041E0487A1328B9
:100B000001D10C203CE0487A142801D10D2037E0B7
:100B1000487A152801D10E2032E0487A162801D1F2
:100B20000F202DE0487A172801D1002028E0487ACC
:100B3000182801D1012023E0487A192801D1022088
:100B40001EE0487A1A2801D1032019E0487A1B28B0
:100B500001D1042014E0487A1C2801D105200FE0BF
:100B6000487A1D2801D106200AE0487A1E2801D1C2
:100B7000072005E0487A1F2801D1002000E0FF206F
:100B8000107790E21068DFF84035984240F0898293
:100B9000087A002801D100209BE0087A012801D1C1
:100BA000002096E0087A022801D1002091E0087A1E
:100BB000032801D100208CE0087A042801D100200C
:100BC00087E0087A052801D1002082E0087A06280B
:100BD00001D101207DE0087A072801D1012078E0C9
:100BE000087A082801D1012073E0087A092801D188
:100BF00001206EE0087A0A2801D1012069E0087A14
:100C00000B2801D1022064E0087A0C2801D10220CF
:100C10005FE0087A0D2801D102205AE0087A0E28F8
:100C200001D1022055E0087A0F2801D1022050E0BE
:100C3000087A102801D102204BE0087A112801D14E
:100C4000032046E0087A122801D1032041E0087A07
:100C5000132801D103203CE0087A142801D1032095
:100C600037E0087A152801D1032032E0087A1628E7
:100C700001D103202DE0087A172801D1032028E0B4
:100C8000087A182801D1052023E0087A192801D113
:100C900005201EE0087A1A2801D1052019E0087AFB
:100CA0001B2801D1052014E0087A1C2801D1052059
:100CB0000FE0087A1D2801D105200AE0087A1E28D5
:100CC00001D1052005E0087A1F2801D1052000E0A8
:100CD000FF20D075487A002801D100209BE0487A97
:100CE000012801D1002096E0487A022801D1002095
:100CF00091E0487A032801D100208CE0487A04284A
:100D000001D1002087E0487A052801D1012082E046
:100D1000487A062801D101207DE0487A072801D1D0
:100D2000012078E0487A082801D1012073E0487A50
:100D3000092801D101206EE0487A0A2801D1022059
:100D400069E0487A0B2801D1022064E0487A0C2837
:100D500001D102205FE0487A0D2801D102205AE03B
:100D6000487A0E2801D1022055E0487A0F2801D197
:100D7000022050E0487A102801D103204BE0487A45
:100D8000112801D1032046E0487A122801D103201E
:100D900041E0487A132801D103203CE0487A142826
:100DA00001D1032037E0487A152801D1032032E031
:100DB000487A162801D103202DE0487A172801D15E
:100DC000052028E0487A182801D1052023E0487A38
:100DD000192801D105201EE0487A1A2801D10520E2
:100DE00019E0487A1B2801D1052014E0487A1C2814
:100DF00001D105200FE0487A1D2801D105200AE025
:100E0000487A1E2801D1052005E0487A1F2801D123
:100E1000002000E0FF201076087A002801D1002091
:100E20009BE0087A012801D1012096E0087A022887
:100E300001D1022091E0087A032801D103208CE03F
:100E4000087A042801D1042087E0087A052801D116
:100E5000052082E0087A062801D10B207DE0087A7F
:100E6000072801D10C2078E0087A082801D10D204C
:100E700073E0087A092801D10E206EE0087A0A286A
:100E800001D10F2069E0087A0B2801D1062064E027
:100E9000087A0C2801D107205FE0087A0D2801D1DB
:100EA00008205AE0087A0E2801D1092055E0087A76
:100EB0000F2801D10A2050E0087A102801D10B2018
:100EC0004BE0087A112801D1092046E0087A12285F
:100ED00001D10A2041E0087A132801D10B203CE01F
:100EE000087A142801D10C2037E0087A152801D19E
:100EF0000D2032E0087A162801D10E202DE0087A64
:100F0000172801D10F2028E0087A182801D10020E5
:100F100023E0087A192801D101201EE0087A1A2856
:100F200001D1022019E0087A1B2801D1032014E026
:100F3000087A1C2801D104200FE0087A1D2801D16D
:100F400005200AE0087A1E2801D1062005E0087A6B
:100F50001F2801D1072000E0FF20D076487A002822
:100F600001D101209BE0487A012801D1022096E0BE
:100F7000487A022801D1032091E0487A032801D160
:100F800004208CE0487A042801D1052087E0487AC3
:100F9000052801D10B2082E0487A062801D10C20D7
:100FA0007DE0487A072801D10D2078E0487A0828AA
:100FB00001D10E2073E0487A092801D10F206EE09C
:100FC000487A0A2801D1062069E0487A0B2801D125
:100FD000072064E0487A0C2801D108205FE0487AB5
:100FE0000D2801D109205AE0487A0E2801D10A20A3
:100FF00055E0487A0F2801D10B2050E0487A10289C
:1010000001D109204BE0487A112801D10A2046E09D
:10101000487A122801D10B2041E0487A132801D1E7
:101020000C203CE0487A142801D10D2037E0487AA2
:10103000152801D10E2032E0487A162801D10F2060
:101040002DE0487A172801D1002028E0487A182896
:1010500001D1012023E0487A192801D102201EE0A5
:10106000487A1A2801D1032019E0487A1B2801D1B7
:10107000042014E0487A1C2801D105200FE0487AAA
:101080001D2801D106200AE0487A1E2801D1072038
:1010900005E0487A1F2801D1002000E0FF201077EA
:1010A00001E0074808E0487C5076887C5077C87C8F
:1010B0009076087D9077002070470000027000F065
:1010C000037000F0000001400004014038B5040046
:1010D0000D00EDB2002D35D001230422E17EE07D2C
:1010E00000F00AFC01230222217F207E00F004FC94
:1010F00094F83100022814D100230122617F607E20
:1011000000F0FAFB00230422A17FA07E00F0F4FB94
:101110000120009001230122617F607EFFF77EF8AD
:1011200045E094F83100032841D100230122617F7A
:10113000607E00F0E1FB00230422A17FA07E00F08E
:10114000DBFB34E000230022E17EE07D00F0D4FBF5
:1011500000230022217F207E00F0CEFB94F8310096
:10116000022814D100230022617F607E00F0C4FBBE
:1011700000230022A17FA07E00F0BEFB0020009093
:1011800001230122617F607EFFF748F80FE094F8A9
:10119000310003280BD100230022617F607E00F024
:1011A000ABFB00230022A17FA07E00F0A5FB002066
:1011B00032BD10B40100DFF8BC04007800280ED165
:1011C00000200300042B06D20020DFF8AC4444F8D2
:1011D00023005B1CF6E70120DFF898442070002014
:1011E000020000200300042B14D2DFF88C0450F816
:1011F0002300002805D0DFF8800450F8230088423F
:1012000006D1DFF8740440F823100120020001E049
:101210005B1CE8E7D2B2002A02D1DFF8600400E0EC
:10122000002010BC704710B441620023446A238040
:101230000023446A63800023446AA380002380F86B
:101240002C3082620023846A23800023846A6380B6
:101250000023846AA380002380F82D30002380F8C7
:101260002F3010BC704710B5040000F0B4FEDFF85A
:101270001014607F00F0BDFE0020A07500202075D6
:10128000022060752000FFF767F810BD10B504005C
:1012900000F023FC0021201D00F0EBFB002802D011
:1012A000DFF8E0030AE0002114F1080000F0E1FBA0
:1012B000002802D0DFF8CC0300E0002010BD2DE9AB
:1012C000F04186B004000D0000A8DFF8BC1318221E
:1012D00000F000FE002C02D1DFF8A003CBE0002DCF
:1012E00002D1DFF88C03C6E034275FF000084246E5
:1012F0003900200000F0CAFE2000FFF75AFF060068
:10130000002E01D03000B6E0287C84F83100286837
:101310002060002084F832002868DFF870138842CB
:1013200009D1DFF86C032062DFF86803E0605FF446
:101330004020206111E02868DFF85C13884209D161
:10134000DFF858032062DFF85803E0605FF45020B4
:10135000206102E0DFF818038DE0EA69A969200046
:10136000FFF761FF686802906889ADF81000A889EE
:10137000ADF80E00A87B8DF80C00E87B8DF812000C
:1013800005208DF80D000121DFF8180301F001F8A8
:101390000121DFF8140300F0FCFF0121206A00F0B6
:1013A000F8FF00208DF8000000A9286801F0C2FEB7
:1013B0000320296848672868806FDFF8F01208402A
:1013C000297A50EA0120697A084329688867290048
:1013D0002000FFF747F90600002801D030004AE05E
:1013E00001212000FFF772FE0600002801D0300026
:1013F00041E0FEF72AFF287C032814D12868406FBB
:1014000050F03000296848672868406E50F00400AA
:101410002968486695F8200095F8211050EA0120C7
:101420002968C86705E0287C022802D12000FFF760
:101430001AFF5FF0FF312868FEF730FF287C032891
:1014400004D10521286801F061FE03E00421286829
:1014500001F05CFE4FF440602968C86000F03DFB7D
:101460002000FFF713FF0600FEF701FF002E01D05A
:10147000300000E0002006B0BDE8F0812DE9F04129
:1014800004000D001600320029002000FFF7CDF8FF
:101490008046B8F1000F01D0404656E0A06A80882F
:1014A000002803D094F82E000028F7D094F83200DA
:1014B000002805D12068006910F0020007000BE049
:1014C00094F83200012805D12068806810F00200ED
:1014D000070001E000200700002F02D12000FEF7E6
:1014E000F7FF012084F8300094F83200002811D171
:1014F0003000461E002808D0206800694006FBD551
:101500002878216848636D1CF2E72068006980062E
:1015100015D4FAE794F83200012810D13000461EA5
:10152000002808D020688068C006FBD5287821688C
:1015300088626D1CF2E7206880680007FBD5002FE9
:1015400002D12000FEF7E8FF0020BDE8F08138B5A9
:101550000400002C01D1494821E000208DF8000052
:1015600000A9606800F04CFB0500002D16D19DF825
:101570000000002812D094F82E00002807D1200087
:10158000FEF7A3FE002802D1606800F0FBFA94F891
:101590002E00401C84F82E00002000E0444832BD9C
:1015A00038B50400002C01D1344825E000208DF826
:1015B000000000A9606800F023FB0500002D1AD18F
:1015C00094F82E00002816D09DF80000002812D0B4
:1015D00094F82E00012807D12000FEF776FE00289F
:1015E00002D1606800F0EDFA94F82E00401E84F8F5
:1015F0002E00002000E02E4832BD2DE9F04186B0DB
:1016000004000D0016001F00320029002000FFF723
:101610000CF88046B8F1000F01D0404624E0019557
:101620000296039604972348059000AA01A9A06A90
:10163000FEF7DCFE8046B8F1000F01D0404613E013
:1016400094F82D0000280ED1FEF7FFFDA06A8088D7
:10165000002806D000992000FEF77AFF012084F8C8
:101660003000FEF704FE002006B0BDE8F081000067
:10167000037000F0B41F0020C01E0020027000F0B4
:10168000E70200000E7000F0B8E700000000014023
:101690000022040001000C0000040140003204009C
:1016A00001000D004041050000250800E0E0FFFFBB
:1016B000057000F0017000F08B0013EB401313F184
:1016C00084431A60704710F1C0621160704710F1D6
:1016D00080621160704770B504000D00160029008B
:1016E0002000FFF7F4FF31002000FFF7ECFF70BD92
:1016F00038B504000D00E4B2002C01D13F201CE0FD
:10170000E4B2012C02D14FF4784016E0E4B2022C8E
:1017100002D14FF47C6010E0E4B2032C02D14FF40C
:101720007C400AE0E4B2042C01D1002005E0E4B2E0
:10173000052C01D1FF2000E00020284110F001001D
:1017400000222900DFF8B802E4B2302303FB0400D2
:101750000C30FFF7B1FF31BD38B504000D00E4B225
:10176000002C01D13F201CE0E4B2012C02D14FF447
:10177000784016E0E4B2022C02D14FF47C6010E015
:10178000E4B2032C02D14FF47C400AE0E4B2042C12
:1017900001D1002005E0E4B2052C01D1FF2000E0DA
:1017A0000020284110F0010001222900DFF850023A
:1017B000E4B2302303FB04000C30FFF77DFF31BDA2
:1017C0002DE9F04706000F0090469946089C099DB8
:1017D000F6B2002E01D13F201CE0F6B2012E02D15C
:1017E0004FF4784016E0F6B2022E02D14FF47C603E
:1017F00010E0F6B2032E02D14FF47C400AE0F6B2BC
:10180000042E01D1002005E0F6B2052E01D1FF2003
:1018100000E00020384110F001005FEA98008000ED
:10182000B9088900884201D1012000E00020C0B23F
:10183000082F0FD2F6B23800C0B2800016FA00F2BC
:101840000F203900C9B2890010FA01F16D48FFF785
:1018500042FF11E0B7F108008246F6B25046C0B22E
:10186000800016FA00F20F205146C9B2890010FA22
:1018700001F16548FFF72FFFB8F1080F10D217F0FC
:1018800003004146C9B2890010FA01F20320414623
:10189000C9B2890010FA01F15C48FFF71CFF12E0A1
:1018A000B8F10800824617F003005146C9B289001A
:1018B00010FA01F203205146C9B2890010FA01F171
:1018C0005348FFF708FF5FFA89F94A463900514843
:1018D000FFF7F2FEE4B2220039004F48FFF7ECFEBA
:1018E0000120B84045490860EDB22A0039004B4854
:1018F000FFF7E2FEBDE8F087F8B504000D00160022
:101900001F00E4B2002C01D13F201CE0E4B2012C06
:1019100002D14FF4784016E0E4B2022C02D14FF429
:101920007C6010E0E4B2032C02D14FF47C400AE06A
:10193000E4B2042C01D1002005E0E4B2052C01D171
:10194000FF2000E00020284110F00100F6B2002E38
:101950000CD0002F05D029002000C0B2FFF7FCFEFC
:1019600004E029002000C0B2FFF7C2FE082D19D202
:101970002348E4B2302101FB040040680F212A0013
:10198000D2B2920091408843F6B22900C9B28900D0
:1019900016FA01F108431A49E4B2302202FB04119D
:1019A00048601AE01648E4B2302101FB0400806868
:1019B0000F212A00083AD2B2920091408843F6B231
:1019C00029000839C9B2890016FA01F108430C4907
:1019D000E4B2302202FB04118860F6B2002E0CD172
:1019E000002F05D029002000C0B2FFF7B5FE04E0AB
:1019F00029002000C0B2FFF77BFEF1BD24A4004007
:101A000000A0004000A4004004A4004008A400403E
:101A10000CA4004010A4004014A4004028A40040DE
:101A200072B6DFF85004006810F1010F06D0DFF83D
:101A300044040068401CDFF83C140860DFF83404FC
:101A400000687047DFF82C04006800280FD0DFF82A
:101A500024040068401EDFF81C241060DFF8140422
:101A600000680100002900D162B6080000E00020F3
:101A7000704770B504000D00DFF8FC030078002803
:101A800002D1DFF8F80327E0002C02D1DFF8F003E1
:101A900022E0FFF7C5FF00200600082E18DADFF865
:101AA000E40310EB0610007B00280FD12660012014
:101AB000DFF8D01311EB061108730020DFF8C41310
:101AC00032015050FFF7BEFF002005E0761CE4E72E
:101AD000FFF7B8FFDFF8B00370BD10B582B0DFF8D4
:101AE000AC030068009000208DF80000FFF798FF1D
:101AF000DFF884030078002804D0FFF7A3FFDFF8A5
:101B0000900318E00120DFF870130870FFF79AFFC8
:101B100000200400082C07DA0020DFF8681311EB1E
:101B200004110873641CF5E704208DF8030000A875
:101B300001F048FC002016BD2DE9F14F88B00E00E1
:101B400017009846129CDDF84C90149DDDF854A0C7
:101B5000DDF858B0CDF81CB0CDF818A0EDB2059561
:101B6000CDF81090E4B2039400200290CDF80480E8
:101B700000973300089A0021002000F0AFF809B068
:101B8000BDE8F08F10B50400DFF8EC020078002803
:101B900002D1DFF8E80213E0082C02D3DFF8E002FC
:101BA0000EE0DFF8E00210EB0410007B002802D109
:101BB000DFF8E00204E00021200001F0F2FB002049
:101BC00010BD10B50400DFF8B0020078002802D183
:101BD000DFF8A80213E0082C02D3DFF8A4020EE01D
:101BE000DFF8A00210EB0410007B002802D1DFF820
:101BF000A40204E00121200001F0D3FB002010BD6D
:101C00000200DFF874020078002802D1DFF86C02CD
:101C100018E0082A01D2002901D1994812E0994818
:101C200010EB0210007B002801D19A480AE09A4884
:101C30000068D040C00702D50120087001E00020F4
:101C40000870002070472DE9F041944800688046F4
:101C50009348006810EA0808B8F1000F00D5FEE7C5
:101C60000020060001200700082E35D218EA070FD1
:101C70002FD08C480760834810EB061005002868B9
:101C8000002826D0A868401CA8606A68A9683000AF
:101C90002B68984710F0010090F001000400687B69
:101CA000012816D1E4B2002C13D07F4810EB461067
:101CB000C06830F002007C4911EB4611C8607A48D8
:101CC00010EB4610C06930F00200774911EB461165
:101CD000C861761C7F00C7E7BDE8F0812DE9FA4FA7
:101CE00085B005001600119FDDF84880DDF850B082
:101CF000159CDDF858A060480078002801D15F48A5
:101D0000B3E0082E0DD2109800280AD0002F08D07A
:101D1000BBF5006F05DCEDB2012D04D1B8F1000F69
:101D200001D15748A1E0574810EB061000900098E9
:101D3000007B002801D1574897E001A8102101F04D
:101D40004BFC594810EB461081469DF814000028C2
:101D50000FD148465549102200F0BCF89DF84C00C0
:101D6000002815D1D9F8000050F04070C9F80000E3
:101D70000EE048464E49102200F0ACF89DF84C00A9
:101D8000002805D1D9F8000050F04050C9F80000F3
:101D900006980190BBF10100D9F8001060F30E1114
:101DA000C9F800101098C9F80800C9F80470E4B226
:101DB000D9F8000064F39B60C9F80000EDB2012D72
:101DC00036D1D9F80C0050F00100C9F80C00D9F850
:101DD0000C0050F00200C9F80C0099F80C0010F04B
:101DE000030050F01000C9F80C002F4810EB46100B
:101DF00010304946102200F06DF82B4810EB4610C9
:101E0000007F10F0030070F00F00274911EB46111E
:101E1000C861254810EB4610C0F814809DF81400E6
:101E2000012805D1204810EB46108761C9F80480CD
:101E30005046002808D1EDB2002D05D1D9F8000098
:101E400030F48010C9F800000098C0F800A017987E
:101E500000994860002000998860009845734A46C0
:101E600001A9300001F0F2FA002007B0BDE8F08FC0
:101E700000000000541F0020A61F0020028000F078
:101E8000018000F0681C0020048000F098EB000046
:101E9000038000F0078000F020200E4060200E40FC
:101EA0006C200E4068200E40901A002098E8000038
:101EB000A8E8000062B38B0708D0521E11F8013B5E
:101EC00000F8013B00F024808B07F6D1830740F037
:101ED000208000BF103A07D330B4B1E83810103A70
:101EE000A0E83810F9D230BC530724BFB1E808107D
:101EF000A0E8081044BF51F8043B40F8043BD20767
:101F000024BF31F8022B20F8022B44BF0B7803705A
:101F10007047083A07D3B1E80810083A40F8043B84
:101F200040F804CBF7D25307E4E750F8041B61B143
:101F300050F8042BD30744BFA9F101039A180023DA
:101F4000091F42F8043BFAD1EFE77047012110F076
:101F50001F029140384A40B2430942F823107047AB
:101F6000012110F01F029140344A40B2430942F867
:101F700023107047324908607047324909680800E9
:101F8000314909680840704772B63048006810F15E
:101F9000010F04D02D480068401C2C4908602B48D4
:101FA000006870472948006800280CD0274800685E
:101FB000401E264A1060254800680100002900D113
:101FC00062B6080000E000207047010091FAA1F01D
:101FD000B0FA80F0704780B51120FFF7C1FF1120E3
:101FE000FFF7B4FF0920FFF7BBFF0920FFF7AEFFA3
:101FF00001BD38B504000D00FFF7C6FF1448E4B278
:1020000040F82450FFF7CEFF31BD70B50400002C1E
:1020100011D02000FFF7D9FF05000120A84084431C
:102020000B4850F82500060030000028EFD02800AB
:10203000C0B2B047EBE770BD00E100E080E200E035
:1020400024A4004028A400401CA40040541F0020E9
:10205000501D002010B5FFF790FF45F25551084084
:1020600004002000FFF786FF2000FFF7CEFF10BD21
:1020700010B5FFF782FF4AF6AA21084004002000AD
:10208000FFF778FF2000FFF7C0FF10BD62F30F22BB
:1020900062F31F42401810F0030308D0C91A1FD37F
:1020A000DB0748BF00F8012D28BF20F8022D1300E0
:1020B00030B414461546103928BF20E93C00FAD840
:1020C000490728BF20E90C0048BF40F8042D8900CB
:1020D00028BF20F8022D48BF00F8012D30BC704702
:1020E000C91818BF00F8012DCB0728BF00F8012D33
:1020F00070470268531C0360117070478B0013EB2C
:10210000401313F184431A6070470200880010EBFB
:10211000421010F184400068704710F1C0621160F5
:10212000704710F180621160704770B504000D00B7
:10213000160029002000FFF7F4FF31002000FFF710
:10214000ECFF70BD006808407047012111FA00F0F3
:10215000704738B50400B4F5004F01D2012000E00B
:102160000020C0B2601CB0FA80F0D0F11F00050062
:102170002800FFF7EAFF401E844201D1012000E061
:102180000020C0B2280032BD70B504000D00A54289
:1021900001D3002600E0012632001021DFF8B40749
:1021A000FFF7ACFF32001821DFF82409FFF7A6FF84
:1021B00070BD10B51021DFF89C07FFF7A6FF0400E3
:1021C0001821DFF80C09FFF7A0FF01008C4201D1B4
:1021D000012000E00020C0B2200010BDDFF800198F
:1021E00009680800704738B5DFF8F80800F02BFBE5
:1021F0000500EDB22800072805D0082807D101F016
:1022000001FA040005E0FFF7E9FF040001E0002007
:102210000400200032BD10B4DFF8CC381B68002B5E
:1022200001D0012200E0002241F67133DFF8B84806
:102230002360DFF824371B6813F040731900DFF8C0
:102240001C37984207D2DFF81837984203D35FF063
:102250008073190001E000231900DFF8FC361B68C9
:1022600033F040730B43DFF8F0462360D2B2002A0C
:1022700003D00023DFF87048236010BC704780B59E
:1022800001F0BEF9FFF7C7FF01BD01000F22CB1C13
:10229000934201D2C81C00E010000007704770B5DF
:1022A000040000262000DFF82C18884207D0DFF851
:1022B0002818884203D0DFF83418884200D1FFE79D
:1022C000200000F0C0FA05002000DFF8081888425E
:1022D00008D0DFF8041888420BD0DFF810188842C5
:1022E0000ED014E0DFF80808006810F007000500C1
:1022F0000DE0DFF80008006810F00700050006E0B8
:10230000DFF8F407006810F007000500FFE7002D74
:1023100021D0022D08D003D3042D09D00CD31CE00A
:1023200001F096F9060018E001F098F9060014E0B3
:1023300001F091F9060010E0DFF894070068C00191
:1023400004D501F04DF98008060003E001F048F9DA
:102350004008060001E000200600300070BDDFF8F4
:102360007C170968C90704D4DFF89017096801428F
:10237000FAD1704710B50400200000F0F0F8401CBE
:1023800010BD38B504000D00691E200000F052F9A0
:1023900031BD2DE9F04104000D005FF00008C4F3E9
:1023A0000320C0B201280CD0022812D005280CD07E
:1023B000062812D0072816D009281AD00A281FD0BC
:1023C00022E0DFF8900506001FE0DFF810080600A5
:1023D0001BE0DFF80C08060017E0DFF8080806002D
:1023E0000120804611E0DFF800080600102080463A
:1023F0000BE0DFF8F80706005FF48030804604E069
:10240000DFF8A009060000E00EE0C4F30430070086
:10241000B8F1000F02D04046FFF7A1FFEDB22A004D
:1024200039003000FFF76AFEBDE8F08138B50400DE
:1024300014F47810002824D0B0F5003F35D0B0F562
:10244000802F22D0B0F5002F2BD0B0F5202F38D020
:10245000B0F5402F77D0B0F5602F78D0B0F5801F61
:1024600041D0B0F5901F44D0B0F5A01F56D0B0F5C4
:10247000C01F32D0B0F5D01F4AD0B0F5F01F5CD0ED
:1024800069E001F0BFF8050067E001F0BBF8050066
:10249000DFF85C070068C0F30820401CB5FBF0F5CE
:1024A0005BE001F0AFF8050057E001F0ABF8050084
:1024B000DFF840070068C0F30820401CB5FBF0F5CA
:1024C0004BE001F09FF80500DFF884080068C0F3D6
:1024D0000420401CB5FBF0F53FE0DFF8F805FFF7FE
:1024E000DEFE050039E0DFF80406FFF7D8FE050040
:1024F00033E0DFF8E005FFF7D2FE0500DFF854080F
:10250000006810F00F00FFF720FEB5FBF0F524E0A7
:10251000DFF8C405FFF7C3FE05001EE0DFF8B805CD
:10252000FFF7BDFE0500DFF88008006810F003002B
:10253000FFF70BFEB5FBF0F50FE0DFF8B005FFF796
:10254000AEFE050009E0FFF74EFE050005E0FFF7CF
:1025500045FE050001E000200500280032BD70B5F1
:102560000400C4F303100500012D0CD05ED3032D2D
:1025700017D00FD3052D22D01AD3072D39D025D34C
:10258000082D49D052E0DFF848050068C0F3042068
:1025900006004DE0DFF8B8070068C0F3042006002D
:1025A00046E0DFF82C050068C0F3006006003FE05D
:1025B000DFF83C060068C0F30820060038E0DFF8CA
:1025C00034060068C0F30820060031E0DFF8DC07BD
:1025D00084420BD1DFF87C07006810F00F00060082
:1025E0003000FFF7B2FD401E060001E000200600AB
:1025F0001EE0DFF8BC0784420BD1DFF8AC070068AF
:1026000010F0030006003000FFF79FFD401E06009B
:1026100001E0002006000BE0DFF82409844202D12B
:102620000020060001E00020060001E00020060076
:10263000300070BDF8B504000D00C4F303100700AE
:10264000012F10D0C0F0FE80032F44D032D3052FCD
:1026500064D051D3072F00F0C080C0F08780082FCE
:1026600000F0D780EEE0202D01D2012000E0002014
:10267000C0B2FFF704FEDFF88814DFF81408FFF794
:1026800083FDDFF84C04006830F4F85050EA052070
:10269000DFF83C14086000F0A3FF06003000FFF7ED
:1026A000BAFDDFF85C08FFF7C1FEDFF85414FFF74E
:1026B0006BFDC7E0202D01D2012000E00020C0B258
:1026C000DFF88C06006830F4F85050EA0520DFF897
:1026D00080160860B6E0022D01D2012000E0002043
:1026E000C0B2DFF8EC03006830F0807050EA05609B
:1026F000DFF8DC130860A5E0B5F5007F01D201200A
:1027000000E00020C0B2DFF8E80400686FF310209A
:1027100050EA0520DFF8D814086093E0B5F5007F93
:1027200001D2012000E00020C0B2FFF7A8FDDFF8D1
:10273000D013DFF85C07FFF727FDDFF8B804006867
:102740006FF3102050EA0520DFF8A814086000F0AD
:1027500047FF06003000FFF75EFDDFF8A407FFF734
:1027600065FEDFF89C13FFF70FFD6BE02000DFF83C
:10277000D017884204D0DFF83416884214D02BE0FA
:10278000002D01D1012000E00020C0B25FF48020C4
:10279000FFF7E5FDDFF8AC070068000900012843FA
:1027A000DFF8A017086017E0B5F5004F01D8012049
:1027B00000E00020C0B22800FFF7CBFC0500042099
:1027C000FFF7CDFDDFF88C05006800090001284304
:1027D000DFF880150860FFE734E0DFF8D4058442B5
:1027E00016D1092D01D2012000E00020C0B228003E
:1027F000FFF7AFFC05004020FFF7B1FDDFF8A805AB
:102800000068800880002843DFF89C150860FFE717
:1028100018E0DFF82C07844213D1002D01D10120EC
:1028200000E00020C0B25FF48020FFF798FDDFF8E1
:1028300014070068000900012843DFF80817086042
:10284000FFE7FFE7F1BD0100012011F00F031A00BF
:102850001300012B08D0022B1ED0032B33D0052BE5
:102860004DD0062B62D070E0DFF8DC361B6813F029
:102870000703022B0AD00CD3042B01D003D308E0AA
:102880000223180007E00323180004E004231800C3
:1028900001E0052318005AE0954B1B6813F007036D
:1028A000012B04D0022B05D0042B06D008E0032313
:1028B000180007E00223180004E00923180001E0D3
:1028C0000123180043E08B4B1B6813F00703012B17
:1028D00006D011D3032B0CD005D3042B06D00BE06C
:1028E000032318000AE00223180007E00923180058
:1028F00004E00623180001E00123180027E07E4BC6
:102900001B6813F00703012B04D0022B05D0042B06
:1029100006D008E00323180007E00223180004E0B3
:102920000923180001E00123180010E0DFF81C362D
:102930001B6813F00103002B04D0012B04D10823E2
:10294000180001E00723180001E000231800C0B2BE
:102950007047000000400E4004000E40015A620221
:1029600081BA8C012DE9F84F04000D0003260327DE
:102970005FF0000B14F00F0082465046012806D08D
:1029800002284CD0032864D0052855D09CE0EDB235
:102990002800022808D003280BD004280ED00528D0
:1029A00016D009281ED01EE00420060000200700D3
:1029B0001AE0032006000120070015E002200600AF
:1029C000022007004E49DFF8C804FFF7DDFB0BE0EB
:1029D00001200600032007004949DFF8B404FFF78F
:1029E000D3FB01E072E071E0012201213800C0B2A6
:1029F00000F002F9FFF743FCDFF854050660DFF84A
:102A00000005FFF713FD3E49FFF7BEFB00F054FE43
:102A100000F0E6FD80464046FFF7FDFB54E0BBF1C9
:102A2000000F02D1DFF8C8B0FFE7EDB2062D01D0EC
:102A3000012000E00020C0B2BBF1000F02D1DFF89E
:102A4000B8B0FFE7EDB2062D01D0012000E0002074
:102A5000C0B2BBF1000F02D1DFF898B0FFE7EDB2D2
:102A60002800012808D0022809D003280FD0062802
:102A700015D0092821D023E00020814621E0012241
:102A80000121002000F0B8F80220814619E001225F
:102A90000121012000F0B0F80120814611E000F092
:102AA0009FFD1749FFF770FB01220021DFF82C0181
:102AB000FFF724FB0320814603E00420814600E069
:102AC00004E0CBF80090FFE7FFF773FBBDE8F18F60
:102AD00000410E400200180003001A0044410E405D
:102AE0001C06002006000C0040000E4005001E00E1
:102AF00080400E4084400E4088400E4040410E40D1
:102B00000048E80138B504001120FFF79CFE0428B6
:102B100001D0012000E00020C0B2012200210220EB
:102B200000F06AF86078002806D1A078002803D168
:102B3000E07890F0010000E00020C0B20025207C89
:102B4000012801D0012000E00020C0B2207C022832
:102B500001D1012005002078002802D04FF48070B8
:102B600000E0002055EA000240F20111DFF8EC031A
:102B7000FFF7DBFAE27A0721DFF8E403FFF7D5FA83
:102B8000A088617A51EAC022DFF8D813DFF8D803B1
:102B9000FFF7CBFA207AFFF778FBE188227AD2019F
:102BA00052EAC121A27A114350EA01027FF07F610B
:102BB000DFF8B803FFF7B9FA207B617B090351EA1C
:102BC0000040A17B50EA0110E17B51EA0002DFF8EE
:102BD000A013DFF8A003FFF7A8FA31BDB0400E4004
:102BE000C0400E40E0400E40E8400E40F0400E4035
:102BF0000C410E4008410E402DE9F84F04000D0035
:102C00001600E4B2002C29D0022C0CD01DD3042CC9
:102C100012D02ED2012081460220824601200700D8
:102C20000020804626E004208146082082460320BA
:102C30000700022080461DE01020814620208246A9
:102C4000052007000420804614E0402081468020B3
:102C5000824607200700062080460BE04FF4807074
:102C600081464FF400708246092007000820804604
:102C700000E06BE0EDB2002D5DD05FF0000BE4B240
:102C8000022C16D1DFF8D402006810F0300F10D1FA
:102C900001208346DFF8C4020068C00709D5DFF8C9
:102CA000BC02006830F0300050F01000DFF8AC12C9
:102CB0000860DFF8C402C0F800904146DFF8BC02AB
:102CC000FFF723FA0028F8D0F6B2002E3CD03900E6
:102CD000DFF8A802FFF719FA0028F8D0E4B2022CB6
:102CE00032D15FFA8BFBBBF1000F2DD09B480068FF
:102CF000C00705D501222021022000F003F903E0DE
:102D00000021022000F0C6F8022000F025F8009013
:102D1000012200210220FFF76FFF0099022000F03E
:102D200049F89548C0F8009039009448FFF7EDF94C
:102D3000002809D1F8E79048C0F800A041468F4824
:102D4000FFF7E3F90028F9D100F0B6FCBDE8F18FF8
:102D500014410E4020410E400100C9B2012906D0A5
:102D60001DD3032909D014D304290CD017E0844AB9
:102D70001268D205D20D100013E0774A126812F0E3
:102D80007F0210000DE07F4A126812F07F021000EF
:102D900007E07D4A12685205520D100001E0002242
:102DA0001000704750410E4028410E40600612004E
:102DB0007007140070B504000E00E4B2012C06D0B8
:102DC00064D3032C1AD045D3042C2DD05EE0B6F585
:102DD000007F01D2012000E00020C0B2F605F60D10
:102DE0001A215C48FFF791F90028F9D1644800687E
:102DF000400A400230436249086047E0802E01D219
:102E0000012000E00020C0B216F07F0618215148D2
:102E1000FFF77BF90028F9D14F480068C009C001CD
:102E200030434D49086031E0802E01D2012000E09E
:102E30000020C0B216F07F0619214648FFF765F959
:102E40000028F9D14F480068C009C00130434D49FE
:102E500008601BE049480068800810F0010090F00D
:102E60000100C0B23D48006830F0300050F0100062
:102E70003A490860C6F3C310FFF707FA050055EAA0
:102E8000060242493948FFF750F9FFE770BD0000DC
:102E90000148E80170B504000D00E4B2022C01D134
:102EA000012000E00020C0B230212C48FFF74AF991
:102EB000002803D15FF44000060012E0EDB22800C4
:102EC000002808D0202802D0302804D007E05FF482
:102ED0000000060005E05FF44000060001E02C4819
:102EE0000600264800683040B042FAD1700205D58D
:102EF00028480068800A10F0010000E0012070BD41
:102F00000005080070B504000D001600E4B2022CA4
:102F100013D1EDB2002D06D04FF480601E49086039
:102F2000EDB21E480560F6B2002E06D02900C9B2E7
:102F30002000C0B2FFF7AEFF00E0012070BD00002E
:102F40008009100030410E4094400E4070400E4009
:102F500074400E4040410E4010400E4024400E4050
:102F600028400E407FF80F002C400E4030400E40AD
:102F7000FFF00F0034400E4060400E4090400E4085
:102F800020400E4018400E409C400E40FF0700F0CD
:102F9000FF03C107A0400E40A8400E4064400E4011
:102FA00010F1C0621160704710F1806211607047CB
:102FB00070B504000D00160029002000FFF7F4FF93
:102FC00031002000FFF7ECFF70BD2DE9F84304004D
:102FD0000D0016001F00002D04D1DFF8D802FFF706
:102FE00025FA0500FFB23800002806D020280ED0B0
:102FF000402816D0602820D029E02809B04201D30B
:10300000012000E00020C0B21020814620E0E80846
:10301000B04201D3012000E00020C0B20820814668
:1030200016E00620B5FBF0F0B04201D3012000E02D
:103030000020C0B2062081460AE0A808B04201D3B1
:10304000012000E00020C0B20420814600E023E01F
:1030500006FB09F0400810EB4510804606FB09F01E
:10306000B8FBF0F8B8F120085FEAC808DFF84802BA
:10307000804501D2012000E00020C0B2DFF83C0210
:1030800010EA0808206830F0600020602068FFB275
:1030900038432060C4F81480BDE8F1832DE9F04185
:1030A00080460F001600002F03D18248FFF7BEF9BB
:1030B00007008020A0FB07013200002300F016FF6C
:1030C000B0F5807071F1000104000D0014F1800072
:1030D00055F1000130F0FF0431F00005784800217F
:1030E00020402940002903D1002801D1012000E01F
:1030F0000020C0B27148002104400D4022006F49F9
:1031000018F11400FFF754FFBDE8F0816D4B9842B1
:1031100002D06D4B984201D1012300E00023DBB2C5
:10312000C9B2CB431A0012F005025300C360C9B202
:10313000C160704738B504000D006248844202D077
:103140006148844201D1012000E00020C0B220008B
:1031500000F082F8A87C002803D0206850F080405E
:103160002060E87C002803D0287D50F08000A06516
:10317000687BB5F910100843B5F90E10084360607C
:103180002B7BAA6869682000FFF71FFFA87D000756
:1031900010F0E040E97D090511F4E00108432066E4
:1031A000687D002803D0206850F4803020602878A3
:1031B000E06031BD38B504000D004248844202D0C1
:1031C0004148844201D1012000E00020C0B220002B
:1031D00000F042F8A87B002802D04FF4806000E0A5
:1031E00000202168B5F91020104350F00100084379
:1031F0002060287D002802D05FF0005000E0002011
:10320000216808432060A87C002803D0E87C50F0A7
:103210008000A065287B50F480506060AA686968CF
:103220002000FFF73BFF687B002801D01020E06002
:10323000A87D000710F0E040E97D090511F4E001E8
:1032400008432066687D002803D0206850F4803051
:1032500020602878E06031BD1A49884202D01A49BE
:10326000884201D1012100E00021C9B240F6AA61E3
:10327000C1600021016041F20501416000218160CF
:10328000002141610021C16410498164002141672E
:10329000002181670021C1670A49884201D10021CC
:1032A0000165002181650849884201D10021C1657D
:1032B0007047000040410500F9FF7F00F8FF7F00E4
:1032C000070080FF0000014000040140F9FF0100F9
:1032D00001690906FCD5C069C0B27047026952068F
:1032E000FCD5C9B24163704702695206FCD589B268
:1032F000C1637047012110F01F029140DFF898224E
:1033000040B2430942F823107047012110F01F0218
:103310009140DFF8882240B2430942F823107047F9
:1033200010B440B2002809D54A01DFF8743240B227
:1033300010F00F04E31803F8042C04E04A01DFF84E
:10334000643240B2C25410BC70478B0013EB401380
:1033500013F184431A60704710F180621160704766
:1033600072B69148006810F1010F04D08E480068D1
:10337000401C8D4908608C48006870478A48006886
:1033800000280CD088480068401E874A1060864894
:1033900000680100002900D162B6080000E00020AA
:1033A000704738B504000D00082C01DA012000E058
:1033B0000020C0B295F00102D2B221007E48FFF792
:1033C000C4FF31BD10B50400002C01D0012000E085
:1033D0000020C0B22078000630F0E060002801D163
:1033E000012000E00020C0B201200120E078082880
:1033F00001DA012000E00020C0B201216D48FEF793
:10340000C8FF20786178090251EA0060A17808437A
:103410006A49086000206649086000206849086021
:103420000020654908605FF00040604908605FF077
:10343000FF30644908600820FFF767FFE178082043
:10344000FFF76EFF0820FFF755FF10BD2DE9F04193
:1034500004000D001600012010FA04F8082C01DA0F
:10346000012000E00020C0B2002D01D0012000E0CA
:103470000020C0B228685449084201D1012000E070
:103480000020C0B20120012001200120A87A000400
:1034900030F44030002801D1012000E00020C0B20B
:1034A000E87A000530F48010002801D1012000E006
:1034B0000020C0B2287B400530F40010002801D164
:1034C000012000E00020C0B2012028683F493022DE
:1034D00002FB04110860687B3C49302202FB0411A6
:1034E0008860A87AE97A090551EA0040297B50EA08
:1034F00041503649302202FB04114860B008800078
:103500003249302202FB041188612E48C0F8008045
:10351000FFF726FF2548006858EA000023490860A5
:10352000287A002805D02448006858EA000022497B
:103530000860687A002805D02148006858EA000031
:103540001F4908601D48006807002879002805D039
:103550002879C043000270F47F4007406879002852
:1035600002D0687957EA0027A879002801D0A87905
:103570008743E879002801D0E87907430F480760BE
:1035800041461348FFF7E8FE1248C0F80080FFF7F5
:10359000F5FEBDE8F081000000E100E080E200E01F
:1035A00018ED00E000E400E0541F00206C200E4005
:1035B00020200E400045080034200E4000200E4020
:1035C0002C200E4068200E40F0FFC0FF80200E40EF
:1035D00028200E403C200E40002200F0FFBC0000DE
:1035E00038B500F00FF804001E480068C0F308204A
:1035F0000500681CB4FBF0F41B480460200032BDD9
:103600001A4870471A49096811F0070102290CD0BD
:103610000FD3042901D004D30BE016490968080030
:103620000AE04FF40041080006E013490968080069
:1036300002E012490968080011490968C1F3042130
:10364000491CB0FBF1F070470B48006870477047A9
:103650004FF4004070474FF47A7070470548006897
:103660007047000008410E408C1F002000F0490206
:1036700094400E40300600202C0600203406002026
:1036800000410E408B0013EB401313F184431A608A
:1036900070470200880010EB421010F1844000686F
:1036A0007047DFF874070068C0B27047DFF86C0736
:1036B0000068000CC0B27047DFF858070068DFF8F8
:1036C0004C170860DFF85C070068DFF844170880D3
:1036D0007047F0B4DFF85837DFF85847DFF858572D
:1036E000DFF85867DFF85877DFF858C7DFF8580772
:1036F000006810F1010F21D058680100186802001D
:1037000011606068010020680200116068680100B3
:1037100028680200116070680100306802001160C2
:1037200078680100386802001160DCF804000100CC
:10373000DCF8000002001160012000E00020F0BC75
:10374000704738B5DFF80407006850F08070DFF884
:10375000FC160860042000F036FBDFF8F406006871
:1037600030F0C040DFF8E8160860DFF8C0060068F7
:1037700050F00600DFF8B4160860FFF797FF050069
:1037800000A800F045FCEDB2102D02DBEDB21C2DBF
:1037900005DBEDB2512D02D0EDB2532D25D19DF8B0
:1037A0000100012821D19DF8000003281DDADFF86F
:1037B00078060078002818D1DFF89806006850F0E5
:1037C0000100DFF890160860DFF884060068040046
:1037D000DFF884060440DFF884060443DFF870064F
:1037E00004600120DFF84016087031BDF0B40124F8
:1037F0002505DFF838663668C6F303263200DFF8A1
:1038000060663688DFF858763F8828375FF0020C0C
:1038100097FBFCF717FA86F62836571C5FF0050C65
:103820000CFB07F7B6FBF7F6761E3000072800D32F
:103830000720000630F0E066002E01D1012600E0EE
:103840000026F6B235F4E006002E01D1012600E094
:103850000026F6B2DFF8D465366836F0EE66064329
:103860002E43DFF8C8753E60DFF8F865B6F90060F2
:10387000002E2BD4DFF8EC65368833009BB213F1B1
:103880002806022796FBF7F616FA83F62836571C09
:1038900012F1010C5FEA5C0C1CEB4707B6FBF7F674
:1038A0003100072900D30721090131F07006002EED
:1038B00001D1012600E00026F6B2DFF8AC653668DB
:1038C00036F070060E43DFF8A0753E60F0BC70471E
:1038D000DFF88C251080DFF88C2511807047F8B553
:1038E00004000D00FFF7DDFE0600F6B2042E0BDA31
:1038F000DFF8780500680700E4B2002C02D0C7F3B7
:10390000072719E0FFB217E0DFF864050068070039
:10391000002D05D0022D08D004D3032D08D009E0D6
:10392000FFB209E0C7F3072706E0C7F3074703E044
:103930003F0E01E0002010E03F0337F47040002804
:1039400001D0002009E0DFF80405006830F4704081
:103950003843DFF8F81408600120F2BD10B5040008
:10396000DFF810050068C007FAD4E4B2002C01D1DA
:10397000002200E001220D21DFF8FC04FFF782FEA7
:10398000DFF89C04006880088000E4B22043DFF880
:103990009014086010BD38B504002078DFF8DC14FE
:1039A0000860DFF8D804006810F00F002178884222
:1039B00001D000207DE0FFF78CFE2089C92801DAC4
:1039C000012000E00020C0B22089A188884201D3F4
:1039D000012000E00020C0B2B4F90C00C92801DACF
:1039E000012000E00020C0B26078012806D1A08844
:1039F000C92801DA012000E00020C0B2E08842F2CC
:103A00001171884201DA012000E00020C0B2E08894
:103A10004B2802DA0020050013E0E088B0F5FA7FB9
:103A200003DA5FF0805005000BE0E08840F6C41137
:103A3000884203DA5FF00050050002E05FF040507A
:103A40000500DFF8E8030068B4F90C10002901D480
:103A5000012100E00021DFF828241040284308431A
:103A6000DFF8C8130860FFF76CFEB4F90C1020896A
:103A7000FFF72EFFA088DFF80C140880A08800F064
:103A800050F901220121608800F014F8002801D1CA
:103A900000200EE0A07A002801D0012200E00022E0
:103AA0000521DFF8E403FFF7EDFD6078FFF756FF2F
:103AB000012032BD2DE9F74F84B05FF0000B0025E7
:103AC0000026002000900020019000208DF80800C2
:103AD000DFF8A803006810F00F0002280FD1049847
:103AE000B0F5E16F08D3049840F6B931884203D2AB
:103AF00001208DF8080002E000208DF808009DF8F4
:103B00000800002801D1002008E100200400E4B2F0
:103B1000022C80F20281E4B2002C03D19DF8140043
:103B2000002806D0E4B2012C04D19DF8180000282A
:103B300000D1F0E0E4B2002C02D0DFF8507301E0D5
:103B4000DFF84C73E4B2002C02D05FF0080801E00B
:103B50005FF001080498B0F5E16F02D95FF0010948
:103B600001E05FF000095FFA89F9B9F1000F0ED0AA
:103B70004FF4E160009040F6B8300190E4B2002CC0
:103B800002D05FF0020A0AE05FF0010A07E04FF49A
:103B9000966000904FF4E160019000208246E4B20C
:103BA000002C18D05FFA89F9B9F1000F09D0DFF8BD
:103BB000E402006883465FEA1B600500CBF3074B15
:103BC0008AE0DFF8D00200688346CBF307200500C7
:103BD0005FFA8BFB80E0DFF85402006810F0405081
:103BE00003901AF0405F01D1012000E00020C0B234
:103BF000039850EA0A0000283CD0401E12D07FF003
:103C00007041401A40D0401E16D07FF07041401ADB
:103C100044D0401E1AD07FF07041401A48D0401E58
:103C20001ED04FE0DFF8700200688346CBF3072018
:103C300005005FFA8BFB45E0DFF85C020068834615
:103C40005FEA1B600500CBF3074B3BE0DFF84C025B
:103C500000688346CBF3072005005FFA8BFB31E059
:103C6000DFF83802006883465FEA1B600500CBF38B
:103C7000074B27E0DFF8D00100688346CBF307202D
:103C800005005FFA8BFB1DE0DFF8BC01006883468E
:103C90005FEA1B600500CBF3074B13E0DFF800027F
:103CA00000688346CBF3072005005FFA8BFB09E031
:103CB000DFF8EC01006883465FEA1B600500CBF388
:103CC000074BFFE70398010F4846C0B2FFF707FE16
:103CD000002801D1002021E000980199884201D3F9
:103CE00000201BE004980099401AB5EB0B014843F3
:103CF0000199009A891AB0FBF1F006001BEB060649
:103D0000B54201D35E4501D2002007E016FA08F063
:103D10005AEA00003860641CF9E6012007B0BDE8EB
:103D2000F08F70B504000025DFF87801006810F00E
:103D30000706DFF8F8000068C00710D5022E0ED382
:103D4000142C02D2042005002EE0142C04D3282CBD
:103D500002D20820050027E01020050024E0DFF84B
:103D6000CC000068C00710D4022E0ED20A2C02D25A
:103D70000420050018E00A2C04D3142C02D20820D9
:103D8000050011E0102005000EE0DFF8A00000683B
:103D9000C00709D5022E07D2282C02D20820050020
:103DA00002E010200500FFE76D1E280350EA0525FC
:103DB000DFF87800006830F47F4028431B49086032
:103DC000FFF714FD70BD38B5040000211748FFF758
:103DD00060FC0500002D02D1E4B2022C01DB002DB5
:103DE00001D0012000E00020C0B2DFF8B800006878
:103DF000C008C000E4B22043DFF8A8100860DFF874
:103E000084000088FFF78DFF31BD0000501F0020A7
:103E10003E1F002090400E400082E00FFC81E00F2A
:103E200040300E4094400E40A81F00204C300E4001
:103E30003880E00F4080E00F4880E00F5080E00FB6
:103E40005880E00F6080E00F1C83E00F6C300E4064
:103E500060300E4044300E40000F0EF0B4C0400BF6
:103E60009C1F0020A01F002050300E402C83E00F2C
:103E70003083E00F78300E4054300E4038300E4022
:103E8000FEFFFFCF9E1F00203C300E405C300E40F6
:103E900064300E401883E00F2483E00F2883E00F86
:103EA0002083E00F70300E4013F0004C03D55B42CE
:103EB000524263F100039CEA210C00F0178010B518
:103EC000644603D34942404261F1000100F00EF81C
:103ED000640004D34942404261F10001244203D509
:103EE0005B42524263F1000310BD00001B4213D13C
:103EF000094236D12AB18446B0FBF2F002FB10C26F
:103F0000704700F0ABB8FCD30022002370470B00D1
:103F10000200002100207047904271EB030CF6D3A1
:103F200070B5B1FA81F4B3FA83F52C1BA340C4F148
:103F3000200532FA05F63343A2405FF00046E64022
:103F400002E05B085FEA3202841A71EB030524BFCA
:103F5000204629467641F4D302000B0030000021B0
:103F600070BD012ACFD970B5140C20D0B1FA81F4FC
:103F7000B2FA82F5C4F120046419B4F12006D6D354
:103F8000B2405FF00044F440002502E052085FEACE
:103F90003303C61A71EB020E24BF304671466441EA
:103FA0006D41F3D302000B002000290070BD0C46C8
:103FB000B1FBF2F102FB11452D0445EA1045B5FBBA
:103FC000F2F402FB145580B240EA0545B5FBF2F06D
:103FD00002FB105240EA044070BD000000B500BF73
:103FE000130096469446103928BFA0E80C50FAD822
:103FF0005FEA417C28BF0CC048BF40F8042BC907CA
:1040000028BF20F8022B48BF00F8012B00BD00009C
:104010000E4A126812F00F02920011000C4A126848
:10402000C2F3811211438170094A126812F03F02F3
:104030004270084A126812F0F0021100064A126833
:10404000C2F3031211430170704700BFE4FF0FE099
:10405000E0FF0FE0E8FF0FE0ECFF0FE0704700002B
:1040600010B5002001F07EF90400002C00D0FEE71E
:10407000DFF8F00B01F0BAFC0400002C00D0FEE7E2
:104080007FF07F40DFF8DC1B48600020DFF8D41BA6
:10409000886010BD30B589B00400200001F027FD14
:1040A000DFF8C40BD0F802000190DFF8BC0B4078B9
:1040B0000090DFF8B40B03780A220021200001F001
:1040C000B3FDDFF8A81B200001F0FCFEDFF8A00B19
:1040D0000078002826D194F824000A214843D0F122
:1040E00080004008DFF8241E08605220DFF81C1E04
:1040F000486094F824000A21484380304008DFF8E3
:104100000C1E886094F825005230DFF8001EC8604D
:104110007FF07F40A060DFF8F41D200001F018FF61
:104120000020A060002001905220009094F824000C
:104130000A214843D0F1800043080A22DFF8341BEB
:10414000200001F071FEDFF8301B200001F0BAFE04
:1041500001F092FF0A2190FBF1F3DFF8200B0068D9
:1041600000688068DFF8181BB0FBF1F2DFF8141B61
:1041700002A801F08BFFDFF8F80A007800282AD1A6
:1041800002A801F09DFF94F824104843D0F180006C
:104190004008DFF8781D08606920DFF8701D48606E
:1041A00002A801F08DFF94F82410484380304008A5
:1041B000DFF8581D886094F825006930DFF84C1D41
:1041C000C8607FF07F40A060DFF8401D200001F054
:1041D000BFFE0020A06002A801F072FF050002A847
:1041E00001F06EFF0200002001906920009094F819
:1041F000240000FB05F0D0F18000430802A9200054
:1042000001F012FE01F074FB09B030BD2DE9FF4151
:1042100004000D000026DFF8541ADFF8480A01F008
:1042200051FEDFF8400A90F824000700DFF8340A56
:1042300090F825008046EDB2022D2FD035D3042D05
:1042400013D00AD3062D21D018D3072D2DD100204D
:104250008DF808000020070037E0DFF8B81C02A83E
:1042600001F014FFBFB2BF002FE0DFF8AC1C02A8C2
:1042700001F00CFF052017FB00F726E0DFF89C1C7F
:1042800002A801F003FFBFB2BF001EE0DFF8901CE0
:1042900002A801F0FBFEBFB2BF0016E0D7A102A842
:1042A00001F0F4FEBFB27F000FE001200600DFF84E
:1042B000740CEDB250F8250000780700DFF8640CAC
:1042C000EDB250F8250040788046E4B2002C0AD0C8
:1042D000DFF890090068008803214843BFB2D7EB9C
:1042E0005000470807E0DFF87C0900680088BFB28B
:1042F000D7EB50004708DFF86C09006840881FFAC8
:1043000088F8B0EB0800B0F10108F6B2002E1ED01C
:10431000DFF8100CEDB250F82500D0F80200019043
:10432000DFF8000CEDB250F8250040780090DFF87F
:10433000F40BEDB250F8250003781FFA88F84246D6
:10434000BFB23900DFF81C0901F06EFC10E002A8D2
:1043500001F0B6FE002101911FFA88F8CDF8008027
:10436000BFB23B00020002A9DFF8F80801F05CFDD3
:10437000DFF80419DFF8EC0801F0A4FDDFF8E40829
:1043800000684388DFF8DC0800684088DFF8D4184C
:1043900091F82510401A821EDFF8C80800680088CE
:1043A0004108DFF8C00801F0EBFEDFF8B80800684C
:1043B0000388DFF8B00800684088DFF8A81891F893
:1043C0002510401AC21E0021DFF8980801F093FE64
:1043D000BDE8FF81F0B583B004000D001600310088
:1043E000200001F06FFDDFF88808007800282AD14E
:1043F000280001F065FE94F824104843D0F18000B5
:104400004008DFF8081B08600220DFF8001B486046
:10441000280001F055FE94F82410484380304008ED
:10442000DFF8E81A886094F82500801CDFF8DC1AB1
:10443000C8607FF07F40A060DFF8D01A200001F054
:1044400087FD0020A060280001F03AFE0700280048
:1044500001F036FE0200002001900220009094F846
:10446000240000FB07F0D0F1800043082900200061
:1044700001F0DAFCF7BDF0B583B004000D002E00AA
:104480000020A0607FF07F406060DFF8EC17200024
:1044900001F018FDF6B2EDB215F10C00864220D203
:1044A0003000C0B202F0D0F901F00AFE070030007F
:1044B000C0B202F0C9F900210191F6B2EDB2711B50
:1044C000C9001031009106233A000100200001F0DC
:1044D000ABFC3000C0B202F064F9002801D1761CB8
:1044E000D8E7F7BD10B504000020A0600120DFF878
:1044F0001C1A4860DFF8140A4068DFF8101A0860D8
:1045000020680088801EDFF8041A886094F825006F
:10451000801CDFF8F819C860DFF8F019200001F0FE
:1045200017FD20680088431EDFF8E009C068421CC0
:104530000021200001F0DFFD20680088431EDFF825
:10454000CC09C068821C0021200001F0D4FD206845
:104550004088801EDFF8B419C860DFF8B009C06871
:1045600094F82510401A401EDFF8A0194860DFF8C3
:104570009C19200001F0ECFC20680088431EDFF845
:104580008C094068421E0021200001F0B4FD206823
:104590000088431EDFF874094068821E0021200055
:1045A00001F0A9FD10BD00210800C0B2662808D2A4
:1045B000DFF8901B8978DFF8902BC0B28154401C43
:1045C000F3E70021DFF8DC2C11707047DFF8D41C12
:1045D0000978491CDFF8CC2C1170DFF8C81C097869
:1045E000662903D30021DFF8BC2C1170DFF8581BBB
:1045F000DFF8B02C1278505470470000474F00008D
:104600000100C9B2662901D3002018E0DFF8940C3C
:104610000078C9B288420AD2DFF8880C0078091AFB
:10462000DFF8240BC9B2401A90F8660007E0DFF803
:10463000180BDFF8702C1278C9B2511A085C704759
:10464000F8B504000D00160001200700FFB2662F28
:104650001DD2D7F16600C0B2FFF7D2FF36B216F115
:10466000200336B216F1200140B2DFF8D82A92F9C1
:104670000220801A042290FBF2F00A1AFFB207FA15
:1046800085F0411E200001F07BFD7F1CDEE7F1BDBF
:104690007FB504000D00160036B216F1210336B2C4
:1046A00032002DB215F11801200001F069FD2DB284
:1046B00015F1180336B2721D2DB215F11601200046
:1046C00001F019FD2DB215F1180336B216F11102E1
:1046D0002DB215F11601200001F00DFD20680088B3
:1046E000431E36B216F121022DB215F1160120003B
:1046F00001F001FDDFF84C0A90F90020DFF8A81B5B
:1047000002A801F0C3FC02A801F0DAFC002101912B
:1047100036B2B11C00912DB22B00020002A920007C
:1047200001F082FBDFF81C0A90F90120DFF8781B0A
:1047300002A801F0ABFC02A801F0C2FC02000020BC
:10474000019036B216F10E0000902DB22B0002A996
:10475000200001F069FBDFF8EC0990F90220DFF896
:10476000481B02A801F092FC02A801F0A9FC00215C
:10477000019194F825100322514301FA86F100912A
:104780002DB22B00020002A9200001F04DFB16F112
:104790002100C0B204B070BD2DE9F04389B004001F
:1047A00089464E46DFF8040B90F82600022840F0B8
:1047B0008681DFF8C804006800688068DFF8C014EC
:1047C000B0FBF1F201FB120000281FD0DFF8AC04AF
:1047D000006800688068DFF8A814B0FBF1F201FB04
:1047E000120042F21071B0FBF1F39BB2DFF88C04BF
:1047F000006800688068DFF88814B0FBF1F292B2BC
:10480000DFF8AC1A02A801F041FC0EE0DFF86C04FE
:10481000006800688068DFF86814B0FBF1F292B2BB
:10482000DFF8901A02A801F031FC152202A9DFF886
:10483000880A01F0C2FF0500280001F041FC0021B8
:1048400001915FFA89F9CDF8009001230200290057
:10485000200001F0E9FA94F8250010EB090915226F
:10486000DFF8581ADFF8580A01F0A7FF0500280002
:1048700001F026FC0200002001905FFA89F9CDF8D2
:10488000009001232900200001F0CEFA94F82500C1
:1048900010EB09091522DFF82C1ADFF82C0A01F0B9
:1048A0008CFF0500280001F00BFC002101915FFA4C
:1048B00089F9CDF80090012302002900200001F0C1
:1048C000B3FA94F8250010EB09091522DFF8FC195A
:1048D000DFF8FC0901F071FF0500280001F0F0FB92
:1048E000002101915FFA89F9CDF8009001230200BF
:1048F0002900200001F098FA94F8250010EB09092E
:10490000DE480068006840684FF47A71B0FBF1F24D
:1049100092B2DFF8C01902A801F0B8FB152202A973
:10492000DFF8B40901F049FF0500280001F0C8FBD9
:10493000002101915FFA89F9CDF80090012302006E
:104940002900200001F070FA94F8250010EB090905
:10495000DFF85809828CC2A102A801F097FB15224A
:1049600002A9DFF8780901F028FF0500280001F00E
:10497000A7FB002101915FFA89F9CDF8009001238E
:1049800002002900200001F04FFA94F8250010EBF6
:10499000090901F071FB0700DFF81009B0F92800E0
:1049A00080463FB2012F02DB3FB23A0001E03FB246
:1049B0007A420A230FFA88F8B8F1010F03DB0FFAE5
:1049C00088F8404603E00FFA88F8D8F100000A2181
:1049D00092FBF3FC03FB1C2201923FB20A2297FBDD
:1049E000F2F2009290FBF1F201FB12030FFA88F849
:1049F0000A2098FBF0F2DFF8E81802A801F046FB65
:104A0000152202A9DFF8DC0801F0D7FE0500280016
:104A100001F056FB002101915FFA89F9CDF8009071
:104A2000012302002900200001F0FEF994F825007E
:104A300010EB0909DFF8740890F82B2088A102A870
:104A400001F024FB152202A9DFF89C0801F0B5FE55
:104A50000500280001F034FB002101915FFA89F97B
:104A6000CDF80090012302002900200001F0DCF9BC
:104A700094F8250010EB0909DFF8300890F82A2097
:104A800077A102A801F002FB152202A9DFF85C0859
:104A900001F093FE0500280001F012FB00210191B6
:104AA0005FFA89F9CDF80090012302002900200067
:104AB00001F0BAF994F8250010EB0909C9E0DFF814
:104AC000EC0790F82A70DFF8E40790F82B80DFF805
:104AD000DC0790F8260001284BD168480068006880
:104AE00080686749B0FBF1F201FB120000281ED07C
:104AF00062480068006880686149DFF8C02700925A
:104B0000B0FBF1F201FB120042F21071B0FBF1F3C5
:104B10009BB25A480068006880685949B0FBF1F2BE
:104B200092B2DFF8CC1702A801F0B0FA0EE0DFF87D
:104B30008C3752480068006880685149B0FBF1F238
:104B400092B2DFF8B01702A801F0A0FA02A801F0B3
:104B5000B7FA002101915FFA89F9CDF8009001239D
:104B6000020002A9200001F05FF994F8250010EB83
:104B70000909DFF83807838C4048006800684068FE
:104B80004FF47A71B0FBF1F292B2DFF86C1702A821
:104B900001F07CFA02A801F093FA002101915FFA7A
:104BA00089F9CDF800900123020002A9200001F04C
:104BB0003BF994F8250010EB0909DFF8F00690F8AE
:104BC000260000280CD101F057FA0A2190FBF1F3DE
:104BD000DFF8F826DFF8241702A801F057FA08E0FA
:104BE000DFF8E036DFF8E426DFF8141702A801F05A
:104BF0004DFA02A801F064FA002101915FFA89F9E7
:104C0000CDF800900123020002A9200001F00CF968
:104C100094F8250010EB0909FFB23B005FFA88F811
:104C20004246DFF8E01602A801F030FA02A801F0CF
:104C300047FA002101915FFA89F9CDF8009001232C
:104C4000020002A9200001F0EFF894F8250010EB13
:104C50000909B9EB0600C0B209B0BDE8F083000055
:104C6000257500005C1E002050EB0000C8E8000025
:104C700040060020B8E90000B8E800002406002043
:104C800040420F00F8E600002DE9F04F8DB004001F
:104C90000E008DF80960DFF8140690F826B0DFF8F2
:104CA0000C06B0F818A05FFA8BFBBBF1020F1ED107
:104CB0001FFA8AFA524696A103A801F0E7F91522D5
:104CC00003A9DFF8440601F078FD0500280001F093
:104CD000F7F900210191F6B20096012302002900A4
:104CE000200001F0A1F894F82500861907E1DFF80B
:104CF000BC05408BADF80A00DFF8B005B0F81C9099
:104D0000DFF8A80590F82F008DF80800DFF89C0563
:104D10000768DFF89805D0F804801FFA89F94FF684
:104D2000FF70814505D1DFF8E41503A801F0AEF965
:104D300007E09DF9082052B2DFF8D41503A801F06E
:104D4000A5F9152203A9DFF8CC0501F036FD050011
:104D5000280001F0B5F9020000200190F6B200969B
:104D600001232900200001F05FF894F8250086193E
:104D70005FFA8BFBBBF1000F1CD11FFA8AFA524677
:104D800063A103A801F082F9152203A9C9A001F0CB
:104D900014FD0500280001F093F900210191F6B2FD
:104DA0000096012302002900200001F03DF894F84C
:104DB000250086191FFA89F94FF6FF70814505D144
:104DC000DFF8541503A801F061F909E0BDF80A30D5
:104DD0001FFA89F94A46DFF8441503A801F056F98D
:104DE000152203A9B4A001F0E8FC0500280001F099
:104DF00067F900210191F6B2009601230200290013
:104E0000200001F011F894F8250086191FFA89F99D
:104E10004FF6FF70814505D1DFF8041503A801F0B6
:104E200035F95CE04046DFF8FC1401F0F9FD0AD2E8
:104E3000404601F007FE02000B00DFF8EC1409A861
:104E400001F024F91CE0DFF864044068DFF8DC14AA
:104E500001F0E6FD0AD2404601F0F4FD02000B002D
:104E6000DFF8CC1409A801F011F909E0404601F07F
:104E7000E9FD02000B00DFF8BC1409A801F006F9F7
:104E80003800DFF8A01401F0CBFD0BD2380001F0A0
:104E9000D9FDCDE9000109AADFF89C1403A801F0AF
:104EA000F5F81CE03800DFF8841401F0B9FD0BD2EE
:104EB000380001F0C7FDCDE9000109AADFF87C1434
:104EC00003A801F0E3F80AE0380001F0BBFDCDE9EA
:104ED000000109AADFF8681403A801F0D7F803A8B5
:104EE00001F0EEF800210191F6B2009601230200D4
:104EF00003A9200000F098FF94F8250086199DF87A
:104F00000900301AC0B20DB0BDE8F08FB01E00200D
:104F100025357500D8EA0000E0EA0000E8EA000064
:104F2000F0EA00000806002038B504000D00012357
:104F3000EDB2E80010F110020121200001F0DBF8D1
:104F40000223EDB2E80010F111020121200001F06E
:104F5000D2F80323EDB2E80010F112020121200083
:104F600001F0C9F80423EDB2E80010F113020121A9
:104F7000200001F0C0F80323EDB2E80010F11402A4
:104F80000121200001F0B7F80223EDB2E80010F192
:104F900015020121200001F0AEF80123EDB2E80076
:104FA00010F116020121200001F0A5F831BD38B53D
:104FB00004002000FFF796FA7FF07F40A060E14AEE
:104FC000E1492000FFF706FA20680088431E94F8A4
:104FD0002500821C0021200001F08DF80021002016
:104FE000FFF714F901F048FCC0B201F039FC0100F0
:104FF000C9B20120FFF70AF901F041FC0100C9B272
:105000002000FFF738FA01F037FC050001F037FC0B
:10501000291AC9B22000FFF787FF31BD38B5040057
:105020002000FFF75FFA7FF07F40A060C54AC749C4
:105030002000FFF7CFF920680088431E94F8250070
:10504000821C0021200001F056F806210020FFF705
:10505000DDF80020A0600F225FF0FF312000FFF795
:1050600017FB05000F2218212000FFF7E9FAED1CBD
:1050700020680088431EEDB22A000021200001F0C4
:105080003AF8ED1C2900C9B22000FFF785FB401952
:1050900005006D1C20680088431EEDB22A00002127
:1050A000200001F028F8ED1C2900C9B22000FFF70C
:1050B000EBFD31BD54783A0052783A0038B504001F
:1050C0002000FFF70FFA7FF07F40A0609D4A9F49C4
:1050D0002000FFF77FF920680088431E94F8250020
:1050E000821C0021200001F006F8704890F833007F
:1050F000002801D0052100E00421C9B20120FFF7FA
:1051000085F806210020FFF781F80020A06010201C
:1051100005002900C9B22000FFF73EFB4019050039
:105120002D1D20680088431EEDB22A0000212000BA
:1051300000F0E1FF08352900C9B22000FFF7A4FD07
:1051400031BD00009CEB0000E81C002030B589B0A8
:10515000040000252000FFF7C5F97FF07F40A06024
:105160007B480068006880687A49B0FBF1F201FB77
:10517000120000281ED076480068006880687549D3
:105180004E4A01924F4A0092B0FBF1F201FB12002D
:1051900042F21071B0FBF1F39BB26D4800680068F9
:1051A00080686C49B0FBF1F292B26B4902A800F042
:1051B0006DFF0EE041480090424B65480068006872
:1051C00080686449B0FBF1F292B2644902A800F031
:1051D0005DFF634A02A92000FFF7FCF82068008801
:1051E000431E94F82500821C0021200000F083FF5C
:1051F0002E4890F83300002801D0052100E004215A
:10520000C9B20120FFF702F806210020FEF7FEFFD9
:105210000020A0600F225FF0FF312000FFF738FA76
:10522000401905000F2218212000FFF709FAED1C94
:1052300020680088431EEDB22A000021200000F003
:105240005AFFED1C2900C9B22000FFF7A5FA40194A
:1052500005006D1C20680088431EEDB22A00002165
:10526000200000F048FFED1C2900C9B22000FFF724
:105270000BFD09B030BD10B504000C4890F82600B5
:1052800000280AD0022804D00BD22000FFF7C6FE67
:1052900007E02000FFF712FF03E02000FFF756FFB2
:1052A000FFE710BDA91F0020F8EA0000901B0020B6
:1052B000C4E9000000EB0000D0E9000008EB0000AA
:1052C000DCE9000010EB0000E8E9000000EA000063
:1052D000F4E9000018EB0000D8E800000CEA000038
:1052E000D0E7000020EB000018EA000024EA0000EC
:1052F000E4E70000E8E8000010E70000F8E700003D
:10530000F8E8000028E7000008E9000030EA0000A3
:105310003CEA000028EB000048EA000030EB000007
:1053200040E700000000204138EB00000000C842C8
:1053300040EB000048EB000058E7000070E7000079
:1053400088E70000C8E8000018E90000B8E900009C
:105350002406002040420F0028E9000054EA000023
:10536000B8E8000030B583B00400DFF85C060078D0
:10537000002801D0002055E001F08CFB0500002D35
:1053800001D028004EE0DFF84416002001F099FB20
:105390000500002D01D0280044E0DFF8340600F0BD
:1053A00089FA0500002D01D028003BE0DFF8200637
:1053B0000068002801D10B2034E0DFF810064068B7
:1053C000DFF810160880DFF80406C068DFF804165E
:1053D00048800020DFF8FC1588800020DFF8F415F5
:1053E000C880DFF8F0050088DFF8E8150881DFF8ED
:1053F000E4054088DFF8DC1548810120DFF8C81596
:105400000870DFF8D0050088DFF8C81549884843E0
:10541000019000200090002300220021002000F0D5
:1054200040F900203EBD0100DFF89C05007800280F
:1054300001D1012003E0DFF89C05086000207047DF
:1054400030B40400DFF880050078002801D1012085
:1054500026E0DFF88005008892B212FA84F5A842AF
:1054600007DBDFF8700540889BB213FA81F5A8428C
:1054700001DA042014E092B2002A02D09BB2002B81
:1054800001D105200CE0DFF84C058480DFF84405ED
:10549000C180DFF840050281DFF838054381002034
:1054A00030BC70472DE9F44F88B004008B461D00D6
:1054B000DFF814050078002801D10120EEE0DFF8C4
:1054C00010050068002801D10120E7E0DFF804059D
:1054D00040891FFA8BFBB0EB0B00401EDFF8F41481
:1054E0000989DFF8F024128901FB0020A4B2001B17
:1054F00005900598A84201D20320CFE0DFF8CC0444
:10550000407C002801D00A20C8E05FF000095FF06D
:10551000000ADFF8B8048068C0080190DFF8B4041E
:10552000C08810EB0B0BDFF8A80400681FFA8BFB98
:10553000019901FB0B000490002D00F0AE80DFF814
:1055400094040089A4B2001BA84205D2DFF88404A9
:105550000089A4B2061B00E02E00AD1B049801993F
:1055600001FB09008046DFF86C04808804190721DC
:105570000C4204D11AF0070F01D1082E3DD216FAC1
:1055800084F6A4B2B4426DD208985FEAEA01085CDE
:105590001AF00701084110F001000390DFF82C0415
:1055A000007C002802D10398002807D1DFF81C04F2
:1055B000007C012810D1039800280DD1A4B2E0107E
:1055C00010F80800012114F0070291400843A4B22A
:1055D000E11001F808000CE0A4B2E01010F8080097
:1055E000012114F0070291408843A4B2E11001F8B0
:1055F0000800641C1AF1010AC3E7A4B218EBE4081E
:10560000F00800900098002813D0009807900898A0
:1056100010EBEA000690079A06994046FCF74AFC10
:105620000098B6EBC00600981AEBC00A009810EB81
:105630000808002E16D098F8000007000120B0409E
:10564000401E8DF808009DF80800874308985FEA1F
:10565000EA01085C9DF808100840074388F80070CC
:1056600016EB0A0ADFF8700319FA8BF14911DFF81B
:10567000682319FA8BF35B1152F82320012319EBED
:105680000B0C1CF01F0C13FA0CF31A4340F82120EA
:1056900019F10109002004004EE7002009B0BDE81F
:1056A000F08F2DE9FC4F87B080460E00139FDFF886
:1056B00018030078002801D10120F8E0DFF810037A
:1056C0000068002801D10120F1E0DFF80003407CF0
:1056D000002801D00A20EAE00024DFF8F002806808
:1056E000C0080490DFF8E402007C012803D19DF893
:1056F0002000019008E09DF82000002802D1012040
:10570000019001E0002001900198002801D0FF25C0
:1057100000E00025AF48C0888619AD480068B6B2E1
:10572000049901FB06000590002F00F0BF80A948F6
:1057300000891FFA88F8B0EB0800B84206D2A548E5
:1057400000891FFA88F8B0EB080A00E0BA46B7EB08
:105750000A07A048808810EB08080598049901FB07
:1057600004008346BAF1080F35D21AFA88FA019874
:10577000002818D01FFA88F8D04580F07F801FFAE3
:1057800088F85FEAE80010F80B00012118F0070222
:10579000914008431FFA88F85FEAE80101F80B001E
:1057A00018F10108E6E71FFA88F8D04566D21FFA1B
:1057B00088F85FEAE80010F80B00012118F00702F2
:1057C000914088431FFA88F85FEAE80101F80B006E
:1057D00018F10108E7E71FFA88F818F007000390AE
:1057E0001FFA88F81BEBE80B039800281BD09BF8E6
:1057F00000008146012003998840401E8DF800007A
:105800009DF8000010EA09099DF8000035EA000043
:1058100050EA09098BF800901BF1010B0398D0F1B5
:105820000800BAEB000A5FEADA000290029800284A
:105830000DD002980690EDB22A0006995846FCF762
:1058400025FC0298BAEBC00A029810EB0B0BBAF1D8
:10585000000F13D09BF800008146012010FA0AF0D7
:10586000401E8DF800009DF8000039EA00099DF8FF
:105870000000284050EA09098BF80090564814FAB5
:1058800086F14911544A14FA86F35B1152F8232029
:10589000012314EB060C1CF01F0C13FA0CF31A4333
:1058A00040F8212000208046641C3DE7002009B01C
:1058B000BDE8F08FF8B50400454B4448C268434842
:1058C00041684248414DAD69A847414800680028F9
:1058D00001D10B200BE03E48006820601025FF2618
:1058E0003D4F320029003800FCF7D0FB0020F2BD0C
:1058F0002DE9F04F85B035488068C00803903648E0
:1059000007685FF00108002005000020040060190E
:105910002E49C96888422FD2F80701D5641C1EE0C1
:10592000002C1BD02A480068039901FB0500029057
:105930000194009525484368002202992348DFF826
:105940008CC0DCF820C0E0470600002E01D03000FB
:1059500037E0601C45190020040000E06D1C601950
:1059600010F01F0F01D07F08D1E71B4850F8280026
:10597000070018F10108CAE7002C16D01448006887
:10598000039901FB05000290019400950F484368BC
:10599000002202990D48DFF834C0DCF820C0E0474F
:1059A0000600002E01D030000BE05FF010095FF020
:1059B000000ADFF824B0524649465846FCF766FB19
:1059C000002005B0BDE8F08FA71F0020301E00208A
:1059D0004C1F0020E01E0020A01E002010B4040C6C
:1059E0000C70040A1470187010BC704730B585B084
:1059F0000400002C01D1052028E0002060607FF029
:105A00007F40A06000A8FFF70EFD0500002D01D02B
:105A100028001BE00098206001A81021FDF7DCFDA4
:105A200000980088401E039000984088401E049013
:105A300001A9200000F00EF80500002D01D028007B
:105A400004E00349200000F03DFA280005B030BD15
:105A5000C8E800007FB504000D00002C01D0002D27
:105A600001D1052041E02868A968884203DA686806
:105A7000E968884201DB042037E0286821688988CA
:105A8000884210DB68682168C98888420BDB20687F
:105A90000089401EA968884205DB20684089401EB5
:105AA000E968884201DA03201FE06868E96808189D
:105AB000431C9BB22868A9680818421C92B2696806
:105AC00089B2286880B2FFF7BBFC06002868009006
:105AD00068680190A8680290E868039014F10C00CF
