:10000000A00C00202D670000696700006D670000EC
:10001000716700007567000079670000000000004C
:100020000000000000000000000000007D670000EC
:1000300081670000000000008567000089670000FC
:100040008D670000112E000091670000192E00003E
:10005000452E0000232E0000212E00003D2E000022
:100060009567000079580000AB5C000069650000EE
:10007000996700009D670000A1670000A567000068
:10008000A967000095580000AD670000B167000047
:10009000B5670000B9670000BD670000C1670000D8
:1000A000C5670000C9670000CD6700002D2E000065
:1000B000352E00003F4A0000D1670000D5670000E0
:1000C0004F650000D96700008B0013EB401313F15C
:1000D00084431A6070470200880010EB421010F150
:1000E00084400068704710F1C0621160704710F1E1
:1000F00080621160704770B504000D001600290081
:100100002000FFF7F4FF31002000FFF7ECFF70BD87
:10011000006808407047012111FA00F0704770B57F
:1001200004000D00A54201D3002600E001263200A4
:100130001021DFF88805FFF7C7FF32001821DFF82C
:10014000F806FFF7C1FF70BD10B51021DFF86C0590
:10015000FFF7C1FF04001821DFF8DC06FFF7BBFF43
:1001600001008C4201D1012000E00020C0B220003B
:1001700010BDDFF8D41609680800704738B5DFF8FD
:10018000CC0600F013FA0500EDB22800072805D0D0
:10019000082807D100F0C8FD040005E0FFF7E9FFDB
:1001A000040001E000200400200032BD10B4DFF89C
:1001B000A0361B68002B01D0012200E0002241F68E
:1001C0007133DFF88C462360DFF8F4341B6813F0DA
:1001D00040731900DFF8EC34984207D2DFF8E834B6
:1001E000984203D35FF08073190001E000231900E7
:1001F000DFF8CC341B6833F040730B43DFF8C044A6
:100200002360D2B2002A03D00023DFF844462360E3
:1002100010BC704780B500F085FDFFF7C7FF01BD3A
:1002200001000F22CB1C934201D2C81C00E0100039
:100230000007704770B5040000262000DFF8FC15A9
:10024000884207D0DFF8F815884203D0DFF804169B
:10025000884200D1FFE7200000F0A8F90500200047
:10026000DFF8D815884208D0DFF8D41588420BD0C3
:10027000DFF8E01588420ED014E0DFF8DC050068F6
:1002800010F0070005000DE0DFF8D005006810F061
:100290000700050006E0DFF8C805006810F0070059
:1002A0000500FFE7002D21D0022D08D003D3042D37
:1002B00009D00CD31CE000F05DFD060018E000F052
:1002C0005FFD060014E000F058FD060010E0DFF8C6
:1002D00068050068C00104D500F014FD8008060020
:1002E00003E000F00FFD4008060001E000200600DA
:1002F000300070BDDFF84C150968C90704D4DFF879
:10030000641509680142FAD170472DE9F0410400F3
:100310000D005FF00008C4F30320C0B201280CD028
:10032000022812D005280CD0062812D0072816D093
:1003300009281AD00A281FD022E0DFF8800306001F
:100340001FE0DFF8000606001BE0DFF8FC050600F2
:1003500017E0DFF8F80506000120804611E0DFF81D
:10036000F0050600102080460BE0DFF8E8050600E7
:100370005FF48030804604E0DFF89007060000E07C
:100380000EE0C4F304300700B8F1000F02D040467D
:10039000FFF7B0FFEDB22A0039003000FFF794FEFE
:1003A000BDE8F08138B5040014F47810002824D09A
:1003B000B0F5003F35D0B0F5802F22D0B0F5002F3A
:1003C0002BD0B0F5202F38D0B0F5402F77D0B0F536
:1003D000602F78D0B0F5801F41D0B0F5901F44D089
:1003E000B0F5A01F56D0B0F5C01F32D0B0F5D01F69
:1003F0004AD0B0F5F01F5CD069E000F095FC050034
:1004000067E000F091FC0500DFF84C050068C0F3E0
:100410000820401CB5FBF0F55BE000F085FC050012
:1004200057E000F081FC0500DFF830050068C0F3FC
:100430000820401CB5FBF0F54BE000F075FC050012
:10044000DFF874060068C0F30420401CB5FBF0F52B
:100450003FE0DFF8E803FFF7EDFE050039E0DFF8E5
:10046000F403FFF7E7FE050033E0DFF8D003FFF702
:10047000E1FE0500DFF84406006810F00F00FFF70A
:100480004AFEB5FBF0F524E0DFF8B403FFF7D2FE37
:1004900005001EE0DFF8A803FFF7CCFE0500DFF83B
:1004A0007006006810F00300FFF735FEB5FBF0F5AD
:1004B0000FE0DFF8A003FFF7BDFE050009E0FFF73E
:1004C0005DFE050005E0FFF754FE050001E0002099
:1004D0000500280032BD70B50400C4F30310050008
:1004E000012D0CD05ED3032D17D00FD3052D22D0B4
:1004F0001AD3072D39D025D3082D49D052E0DFF883
:1005000038030068C0F3042006004DE0DFF8A805BA
:100510000068C0F30420060046E0DFF81C03006812
:10052000C0F3006006003FE0DFF82C040068C0F371
:100530000820060038E0DFF824040068C0F3082033
:10054000060031E0DFF8CC0584420BD1DFF86C0502
:10055000006810F00F0006003000FFF7DCFD401EC1
:10056000060001E0002006001EE0DFF8AC05844232
:100570000BD1DFF89C05006810F003000600300086
:10058000FFF7C9FD401E060001E0002006000BE059
:10059000DFF81407844202D10020060001E00020A9
:1005A000060001E000200600300070BD01000120BF
:1005B00011F00F031A001300012B08D0022B1ED0DC
:1005C000032B33D0052B4DD0062B62D070E0DFF823
:1005D000DC361B6813F00703022B0AD00CD3042B64
:1005E00001D003D308E00223180007E0032318001A
:1005F00004E00423180001E0052318005AE0964B9C
:100600001B6813F00703012B04D0022B05D0042B29
:1006100006D008E00323180007E00223180004E0D6
:100620000923180001E00123180043E08B4B1B68ED
:1006300013F00703012B06D011D3032B0CD005D3E5
:10064000042B06D00BE0032318000AE00223180055
:1006500007E00923180004E00623180001E0012345
:10066000180027E07E4B1B6813F00703012B04D012
:10067000022B05D0042B06D008E00323180007E066
:100680000223180004E00923180001E001231800E8
:1006900010E0DFF81C361B6813F00103002B04D0B8
:1006A000012B04D10823180001E00723180001E002
:1006B00000231800C0B270470000000000400E4048
:1006C00004000E40015A620281BA8C012DE9F84FF4
:1006D00004000D00032603275FF0000B14F00F0049
:1006E00082465046012806D002284CD0032864D008
:1006F000052855D09CE0EDB22800022808D0032838
:100700000BD004280ED0052816D009281ED01EE0D4
:1007100004200600002007001AE003200600012044
:10072000070015E002200600022007004E49DFF80E
:10073000C804FFF7F4FC0BE00120060003200700CB
:100740004949DFF8B404FFF7EAFC01E072E071E028
:10075000012201213800C0B200F002F9FFF75AFD72
:10076000DFF850050660DFF80005FFF71BFE3E4985
:10077000FFF7D5FC00F032FB00F0C4FA804640469B
:10078000FFF714FD54E0BBF1000F02D1DFF8C8B051
:10079000FFE7EDB2062D01D0012000E00020C0B23D
:1007A000BBF1000F02D1DFF8B8B0FFE7EDB2062DC4
:1007B00001D0012000E00020C0B2BBF1000F02D147
:1007C000DFF898B0FFE7EDB22800012808D0022832
:1007D00009D003280FD0062815D0092821D023E0FE
:1007E0000020814621E001220121002000F0B8F81C
:1007F0000220814619E001220121012000F0B0F819
:100800000120814611E000F07DFA1749FFF787FCCF
:1008100001220021DFF82C01FFF756FC032081465E
:1008200003E00420814600E004E0CBF80090FFE7FD
:10083000FFF78AFCBDE8F18F00410E40020018006E
:1008400003001A0044410E407400002006000C0012
:1008500040000E4005001E0080400E4084400E40C7
:1008600088400E4040410E400048E80138B5040081
:100870001120FFF79BFE042801D0012000E000209A
:10088000C0B201220021022000F06AF8607800283E
:1008900006D1A078002803D1E07890F0010000E0B4
:1008A0000020C0B20025207C012801D0012000E0FA
:1008B0000020C0B2207C022801D101200500207850
:1008C000002802D04FF4807000E0002055EA0002BA
:1008D00040F20111DFF8E803FFF70DFCE27A07218F
:1008E000DFF8E003FFF707FCA088617A51EAC02235
:1008F000DFF8D413DFF8D403FFF7FDFB207AFFF70E
:100900008FFCE188227AD20152EAC121A27A1143F6
:1009100050EA01027FF07F61DFF8B403FFF7EBFBE1
:10092000207B617B090351EA0040A17B50EA011062
:10093000E17B51EA0002DFF89C13DFF89C03FFF72C
:10094000DAFB31BDB0400E40C0400E40E0400E40EA
:10095000E8400E40F0400E400C410E4008410E4071
:100960002DE9F84F04000D001600E4B2002C29D048
:10097000022C0CD01DD3042C12D02ED20120814683
:1009800002208246012007000020804626E0042045
:1009900081460820824603200700022080461DE091
:1009A0001020814620208246052007000420804632
:1009B00014E0402081468020824607200700062060
:1009C00080460BE04FF4807081464FF40070824601
:1009D000092007000820804600E06BE0EDB2002D02
:1009E0005DD05FF0000BE4B2022C16D1DFF8D0022C
:1009F000006810F0300F10D101208346DFF8C002EC
:100A00000068C00709D5DFF8B802006830F0300090
:100A100050F01000DFF8A8120860DFF8C002C0F83C
:100A200000904146DFF8B802FFF755FB0028F8D0E8
:100A3000F6B2002E3CD03900DFF8A402FFF74BFBE2
:100A40000028F8D0E4B2022C32D15FFA8BFBBBF164
:100A5000000F2DD09A480068C00705D5012220213B
:100A6000022000F003F903E00021022000F0C6F8A4
:100A7000022000F025F80090012200210220FFF75B
:100A80006FFF0099022000F049F89448C0F80090E8
:100A900039009348FFF71FFB002809D1F8E78F487A
:100AA000C0F800A041468E48FFF715FB0028F9D199
:100AB00000F094F9BDE8F18F14410E4020410E4042
:100AC0000100C9B2012906D01DD3032909D014D3CE
:100AD00004290CD017E0834A1268D205D20D100009
:100AE00013E0764A126812F07F0210000DE07E4A91
:100AF000126812F07F02100007E07C4A126852056B
:100B0000520D100001E000221000704750410E40CD
:100B100028410E40600612007007140070B50400F2
:100B20000E00E4B2012C06D064D3032C1AD045D3B6
:100B3000042C2DD05EE0B6F5007F01D2012000E04C
:100B40000020C0B2F605F60D1A215B48FFF7C3FA84
:100B50000028F9D163480068400A400230436149E7
:100B6000086047E0802E01D2012000E00020C0B2E2
:100B700016F07F0618215048FFF7ADFA0028F9D18A
:100B80004E480068C009C00130434C49086031E05C
:100B9000802E01D2012000E00020C0B216F07F06B6
:100BA00019214548FFF797FA0028F9D14E48006807
:100BB000C009C00130434C4908601BE04848006848
:100BC000800810F0010090F00100C0B23C480068BD
:100BD00030F0300050F0100039490860C6F3C310FF
:100BE000FFF71EFB050055EA060241493848FFF7AA
:100BF00082FAFFE770BD00000148E80170B504000B
:100C00000D00E4B2022C01D1012000E00020C0B2AE
:100C100030212B48FFF77CFA002803D15FF4400015
:100C2000060012E0EDB22800002808D0202802D0EB
:100C3000302804D007E05FF40000060005E05FF410
:100C40004000060001E02B480600254800683040BF
:100C5000B042FAD1700205D527480068800A10F02A
:100C6000010000E0012070BD0005080070B504001F
:100C70000D001600E4B2022C13D1EDB2002D06D007
:100C80004FF480601D490860EDB21D480560F6B262
:100C9000002E06D02900C9B22000C0B2FFF7AEFF77
:100CA00000E0012070BD00008009100094400E405B
:100CB00070400E4074400E4040410E4010400E40C7
:100CC00024400E4028400E407FF80F002C400E407C
:100CD00030400E40FFF00F0034400E4060400E40A8
:100CE00090400E4020400E4018400E409C400E4068
:100CF000FF0700F0FF03C107A0400E40A8400E40D0
:100D000064400E4038B500F00FF804001E4800683B
:100D1000C0F308200500681CB4FBF0F41B48046015
:100D2000200032BD1A4870471A49096811F00701BE
:100D300002290CD00FD3042901D004D30BE01649AB
:100D4000096808000AE04FF40041080006E0134972
:100D50000968080002E01249096808001149096899
:100D6000C1F30421491CB0FBF1F070470B48006847
:100D7000704770474FF4004070474FF47A707047E7
:100D8000054800687047000008410E4080080020B8
:100D900000F0490294400E408400002080000020B2
:100DA0008800002000410E408B0013EB401313F12C
:100DB00084431A6070470200880010EB421010F163
:100DC000844000687047DFF874070068C0B270475D
:100DD000DFF86C070068000CC0B27047DFF85807F6
:100DE0000068DFF84C170860DFF85C070068DFF880
:100DF000441708807047F0B4DFF85837DFF85847D9
:100E0000DFF85857DFF85867DFF85877DFF858C72A
:100E1000DFF85807006810F1010F21D05868010071
:100E2000186802001160606801002068020011600B
:100E3000686801002868020011607068010030686D
:100E40000200116078680100386802001160DCF867
:100E500004000100DCF8000002001160012000E045
:100E60000020F0BC704738B5DFF80407006850F088
:100E70008070DFF8FC160860042000F036FBDFF815
:100E8000F406006830F0C040DFF8E8160860DFF8CC
:100E9000C006006850F00600DFF8B4160860FFF7DF
:100EA00097FF050000A800F091FBEDB2102D02DBCA
:100EB000EDB21C2D05DBEDB2512D02D0EDB2532D5C
:100EC00025D19DF80100012821D19DF800000328BB
:100ED0001DDADFF878060078002818D1DFF89806C8
:100EE000006850F00100DFF890160860DFF8840613
:100EF00000680400DFF884060440DFF88406044339
:100F0000DFF8700604600120DFF84016087031BD7C
:100F1000F0B401242505DFF838663668C6F30326E9
:100F20003200DFF860663688DFF858763F88283769
:100F30005FF0020C97FBFCF717FA86F62836571C71
:100F40005FF0050C0CFB07F7B6FBF7F6761E3000DA
:100F5000072800D30720000630F0E066002E01D1FC
:100F6000012600E00026F6B235F4E006002E01D19D
:100F7000012600E00026F6B2DFF8D465366836F0C8
:100F8000EE6606432E43DFF8C8753E60DFF8F8656D
:100F9000B6F90060002E2BD4DFF8EC6536883300FC
:100FA0009BB213F12806022796FBF7F616FA83F692
:100FB0002836571C12F1010C5FEA5C0C1CEB47074A
:100FC000B6FBF7F63100072900D30721090131F0FC
:100FD0007006002E01D1012600E00026F6B2DFF8EF
:100FE000AC65366836F070060E43DFF8A0753E60DB
:100FF000F0BC7047DFF88C251080DFF88C2511805D
:101000007047F8B504000D00FFF7DDFE0600F6B2EC
:10101000042E0BDADFF8780500680700E4B2002C34
:1010200002D0C7F3072719E0FFB217E0DFF8640525
:1010300000680700002D05D0022D08D004D3032D31
:1010400008D009E0FFB209E0C7F3072706E0C7F3BD
:10105000074703E03F0E01E0002010E03F0337F4B4
:101060007040002801D0002009E0DFF80405006886
:1010700030F470403843DFF8F81408600120F2BD06
:1010800010B50400DFF810050068C007FAD4E4B218
:10109000002C01D1002200E001220D21DFF8FC0428
:1010A000FFF782FEDFF89C04006880088000E4B24D
:1010B0002043DFF89014086010BD38B50400207894
:1010C000DFF8DC140860DFF8D804006810F00F00C7
:1010D0002178884201D000207DE0FFF78CFE208936
:1010E000C92801DA012000E00020C0B22089A188CF
:1010F000884201D3012000E00020C0B2B4F90C0006
:10110000C92801DA012000E00020C0B2607801287F
:1011100006D1A088C92801DA012000E00020C0B271
:10112000E08842F21171884201DA012000E00020DB
:10113000C0B2E0884B2802DA0020050013E0E08806
:10114000B0F5FA7F03DA5FF0805005000BE0E0882D
:1011500040F6C411884203DA5FF00050050002E057
:101160005FF040500500DFF8E8030068B4F90C10A8
:10117000002901D4012100E00021DFF828241040DB
:1011800028430843DFF8C8130860FFF76CFEB4F982
:101190000C102089FFF72EFFA088DFF80C140880C0
:1011A000A08800F050F901220121608800F014F8B5
:1011B000002801D100200EE0A07A002801D00122F1
:1011C00000E000220521DFF8E403FFF7EDFD607881
:1011D000FFF756FF012032BD2DE9F74F84B05FF0D5
:1011E000000B002500260020009000200190002028
:1011F0008DF80800DFF8A803006810F00F0002283F
:101200000FD10498B0F5E16F08D3049840F6B931D6
:10121000884203D201208DF8080002E000208DF8FA
:1012200008009DF80800002801D1002008E10020F6
:101230000400E4B2022C80F20281E4B2002C03D15B
:101240009DF81400002806D0E4B2012C04D19DF8CA
:101250001800002800D1F0E0E4B2002C02D0DFF842
:10126000507301E0DFF84C73E4B2002C02D05FF061
:10127000080801E05FF001080498B0F5E16F02D9B9
:101280005FF0010901E05FF000095FFA89F9B9F147
:10129000000F0ED04FF4E160009040F6B83001909E
:1012A000E4B2002C02D05FF0020A0AE05FF0010A0B
:1012B00007E04FF4966000904FF4E1600190002049
:1012C0008246E4B2002C18D05FFA89F9B9F1000F18
:1012D00009D0DFF8E402006883465FEA1B6005007E
:1012E000CBF3074B8AE0DFF8D00200688346CBF3EC
:1012F000072005005FFA8BFB80E0DFF854020068EE
:1013000010F0405003901AF0405F01D1012000E03E
:101310000020C0B2039850EA0A0000283CD0401ECA
:1013200012D07FF07041401A40D0401E16D07FF09E
:101330007041401A44D0401E1AD07FF07041401ACC
:1013400048D0401E1ED04FE0DFF870020068834690
:10135000CBF3072005005FFA8BFB45E0DFF85C026A
:10136000006883465FEA1B600500CBF3074B3BE058
:10137000DFF84C0200688346CBF3072005005FFAD4
:101380008BFB31E0DFF83802006883465FEA1B60C0
:101390000500CBF3074B27E0DFF8D0010068834658
:1013A000CBF3072005005FFA8BFB1DE0DFF8BC01E3
:1013B000006883465FEA1B600500CBF3074B13E030
:1013C000DFF8000200688346CBF3072005005FFAD0
:1013D0008BFB09E0DFF8EC01006883465FEA1B60E5
:1013E0000500CBF3074BFFE70398010F4846C0B257
:1013F000FFF707FE002801D1002021E000980199A5
:10140000884201D300201BE004980099401AB5EBF4
:101410000B0148430199009A891AB0FBF1F00600CC
:101420001BEB0606B54201D35E4501D2002007E062
:1014300016FA08F05AEA00003860641CF9E6012048
:1014400007B0BDE8F08F70B504000025DFF8780123
:10145000006810F00706DFF8F8000068C00710D534
:10146000022E0ED3142C02D2042005002EE0142CE0
:1014700004D3282C02D20820050027E01020050004
:1014800024E0DFF8CC000068C00710D4022E0ED292
:101490000A2C02D20420050018E00A2C04D3142CD4
:1014A00002D20820050011E0102005000EE0DFF850
:1014B000A0000068C00709D5022E07D2282C02D24E
:1014C0000820050002E010200500FFE76D1E28033C
:1014D00050EA0525DFF87800006830F47F402843A3
:1014E0001B490860FFF714FD70BD38B504000021EA
:1014F0001748FFF760FC0500002D02D1E4B2022C72
:1015000001DB002D01D0012000E00020C0B2DFF897
:10151000B8000068C008C000E4B22043DFF8A8109B
:101520000860DFF884000088FFF78DFF31BD000000
:10153000500800204608002090400E400082E00F36
:10154000FC81E00F40300E4094400E40980800208F
:101550004C300E403880E00F4080E00F4880E00FB4
:101560005080E00F5880E00F6080E00F1C83E00F98
:101570006C300E4060300E4044300E40000F0EF0D4
:10158000B4C0400B900800209408002050300E405A
:101590002C83E00F3083E00F78300E4054300E4043
:1015A00038300E40FEFFFFCF920800203C300E4046
:1015B0005C300E4064300E401883E00F2483E00F4F
:1015C0002883E00F2083E00F70300E400E4A12682F
:1015D00012F00F02920011000C4A1268C2F381123D
:1015E00011438170094A126812F03F024270084AA2
:1015F000126812F0F0021100064A1268C2F30312D8
:1016000011430170704700BFE4FF0FE0E0FF0FE0FF
:10161000E8FF0FE0ECFF0FE000000000000000001A
:1016200000000000000000000000000000000000BA
:1016300000000000000000000000000000000000AA
:10164000000000000000000000000000000000009A
:10165000000000000000000000000000000000008A
:10166000000000000000000000000000000000007A
:10167000000000000000000000000000000000006A
:10168000000000000000000000000000000000005A
:10169000000000000000000000000000000000004A
:1016A000000000000000000000000000000000003A
:1016B000000000000000000000000000000000002A
:1016C000000000000000000000000000000000001A
:1016D000000000000000000000000000000000000A
:1016E00000000000000000000000000000000000FA
:1016F00000000000000000000000000000000000EA
:101700000298380002984400029896010298B801A5
:101710000298680002987C0002986800029896007F
:101720000298D6000298F200029808010298180167
:1017300002985C010298700100C6CC0F0021069847
:10174000EA0400F800C6CC0F00210698EA0400C5A0
:101750009C0F00210698560606984A080698B60877
:1017600000C5A00F002100F800C6CC0F002106988C
:10177000EA040698DE0806989A0700F800C6CC0F1F
:1017800000210698EA0410B902BA0698660300C55B
:10179000A00F002100F800C6CC0F00210698EA0433
:1017A0000698700503DC147210B902BA0698660335
:1017B00001D8087120B802A800F80698DE0800C514
:1017C000A40F00210698700503DC04720425069816
:1017D000A0060298120A00C6CC0F00210698EA045F
:1017E0000698DE0800C5AC0F00210698A0060298F6
:1017F000120A00C6CC0F00210698EA0400C20000BD
:1018000002020698640300F800C6CC0F0021069877
:10181000EA0406989A0700F800C6CC0F0021069843
:10182000EA040698700507DC0A7200C5A00F0021C3
:1018300000F806989A0703B900C200000200069853
:10184000660300C5B00F00210698560606984A08A0
:101850000698B60800C5B40F002100F800C6CC0FEA
:1018600000210698EA0400C5B80F00210298120A68
:1018700000C6CC0F00210698EA040698460B06988D
:10188000DE0806989A0700F80698140600C024009F
:101890000840207800F800C6CC0F0021B110076086
:1018A00001D80E7100C0084008407F78020C7E7895
:1018B0000698EA040298060900C6CC0F0021069893
:1018C000EA0400C2020200000698640304D906710B
:1018D00001B802A800C0FC0E0021041301DB6071F6
:1018E00000C1580F00211411FF3102EC00C8FF2184
:1018F000FA7606981C03FFB91050087201B80298D6
:10190000880100C1540F00210811011202DB1C7173
:1019100000C1640F00211411006811280698C20B41
:1019200000C118000840FF20081100C0520F00211C
:101930000698AC0B21110698980B01D8067110DBA4
:1019400006720298CE0200BB00C54C0F0021541550
:101950005114076407644112FF321071511000C125
:101960000C0F00210698DC02014341120762FF328E
:1019700016715110076000C10C0F0021202106983C
:10198000DC020768014300C0500F00210698C20B1B
:10199000013B00C1080F002114113110FF300C7100
:1019A00004610112006001DAF87131100760FF3044
:1019B0000C7100610112006001DAF87101D9107236
:1019C00000C00000100006A802B80298880106981E
:1019D000F40900C000400840477800F8308840888B
:1019E0005088FFD8087102ECFF20F87000B802ECB4
:1019F00000CD1414108801BB4111FF315051047106
:101A000031400764006B10DBF07100910421FF226C
:101A1000DE720F4800950094009300A0108800C16A
:101A20005C0F00211411113800C1600F0021141146
:101A30000698980B011100C0680F002104101128AE
:101A40000698AC0B00DC0472FFB91110009100A0E5
:101A500000A088BA607A811202DAFC7200A088BA0B
:101A6000407A00A0267000C0040F002100C460006E
:101A7000084044140410014410D906710CDB0872AC
:101A800000B8103C067201B8076A00C30040084065
:101A900000C1000F0021141120390672417B00A003
:101AA0000698520300C2FC0E0021241220DA0472B0
:101AB000617B02985E0300C06C70084003B9181087
:101AC0000110011001B9181000A0B11001D8047262
:101AD00000A000C0287008400411108800C1001840
:101AE0000040181000C06C7008400411108800C03D
:101AF000147008400411108800C200002000214129
:101B000018103DB1108800C0F4400840427800C071
:101B100038410840727800C010410840737800C016
:101B2000F840084073784FB200C4FFFF8080413A0C
:101B30004FAA00C3000040400698B60301100110F0
:101B40000110011000C0047008400411076100C0BA
:101B500000004000003A0471084908D90E723110A3
:101B600000C400007F004138015200C00000004066
:101B7000003A0471044904D90E72311000C4000007
:101B8000007F4138015200C000000200003B0A7291
:101B9000006331424FAAA2704FAA00C01041084012
:101BA000537800C0F8400840537800C038410840DE
:101BB000527800913DA9009100C01470084018109F
:101BC000009100C06C7008401810009100C028708F
:101BD0000840181000A000881DB0022001584028BD
:101BE00006751EAC01EC009000A001B0076800C3B0
:101BF0006C0F00213414036C41500F304150081316
:101C00000F3003640F340111C04806987E05069812
:101C10005E0303DD1E7204BA00C06C0008400411AC
:101C200010D9047106BA0C2328130478FC230298F7
:101C3000F80501DD0C7200C04400084025782678C4
:101C400009DD087208230298F805411303DF0672C4
:101C50000298800900DD06720698DA0953B080BB4D
:101C6000006B30380A7109DD06710298020A00A083
:101C700000C06C0F0021041003600F3000A010881A
:101C8000B111076980D90A7100C1800008400811AC
:101C9000009100A0B11100C200000040203906727E
:101CA0000298F20500C1700F0021141201DC0672C7
:101CB00000BC247048BC00C060000840041040D83C
:101CC000087101B806981C06F0DA0C720CDB08717A
:101CD00002B806981C0600C380000840FFB8012027
:101CE00000C1740F0021141101411813014228137F
:101CF000481300B80298140600C138300840141187
:101D000000C0006008400410036001300568014114
:101D1000181300A000C1700F002114120368F030E6
:101D20002113F03331520152281100A000C020309D
:101D30000E40041104101050F47200A000C0000CFA
:101D40000000013900C028400E400A780B780412C8
:101D50001142281000A00698080800C0F80F0021C2
:101D600004112EA900C0043008402178227800C058
:101D7000980F00211DB118100698D0060111FF30F0
:101D80000769FF3151B300C4F3FFFFFF413B115915
:101D900000290675084B027051AB0698AE0700A0EB
:101DA0000698080800C0FC0F002104112EA9F82095
:101DB000041106983C0600C00430084021782378BE
:101DC0000698D00600C0880F00211DB1181000A091
:101DD00000C0FFFF00005414013C00C0BC0F0021F4
:101DE0000410012C0A7500B826A80698D60400C075
:101DF000840F00211DB1181028B000C1F0FFFFFFB3
:101E0000113800C10E000000114028A800C0800059
:101E1000000000C144300840081100C0006F0000FD
:101E200026A800C0043008402178050C00C02430EA
:101E30000840267800C063EF000026A8050C20ECBF
:101E400000C004300840247820EC217800C07BEFEB
:101E5000000026A828B000C1F0FFFFFF113800C124
:101E60000A000000114028A8050C00C004300840FA
:101E7000207820EC0F0C00C098400840467841784C
:101E800006982C0600C2800F0021241000C300FF1A
:101E9000FFFF31381140081200A00698080800B86A
:101EA00026A800C08C0F00211DB1181000A000C38F
:101EB000A440084000C17C300E40141100C00080D6
:101EC000010000392871B11004D822716E7B6F7B3C
:101ED00000C060300E40041100C20000001021411B
:101EE00018101420041101BA21411810B11002D8A1
:101EF0001671707B00C03040084062786078010C39
:101F00000DB001D8047100A000C0304008404078F6
:101F10000DB101D90472010C427800C074300E403A
:101F2000041100C2FEFFFFFF21391810EC2004113C
:101F300000C2FFFFFFEF213918101C7800C3A44036
:101F40000840707B4E7B4F7B00A008B86E784EB087
:101F500010D8187200C00E0000003EA8140C00C07B
:101F60000F0000003EA80298820800C00E0000008A
:101F700044A8140C00C00100000000C1B0300E40A5
:101F8000081100C077801F003DB201423DAA00C188
:101F9000C40F0021141054A8140C00C077E01F00D7
:101FA00001423DAA00C0444108407D7800C00000C5
:101FB000004002A800A0069852030698CA0306989B
:101FC0005E0354140698D60400C0F44008404578D7
:101FD000090C00C0940F00211DB1181000A000C012
:101FE000444108405D7800B844A83EA800C1B03024
:101FF0000E40081100C0001000003DB101393DA99C
:1020000008B86F7800A0541000DC1C7101F80114AE
:102010000698D60400C00000010006A800C00040D9
:102020000840417800F802982A0901F800C5800F9D
:10203000002154155114FF3507644113FF34076321
:102040003112FF330762FF323110212B0158012A70
:1020500006982C0601585128047501584128187516
:1020600051B00CD806712158067031101159012950
:102070000675FF0FB87000C00000800006A800F8C9
:1020800000C3780F0021341300C4E010084044124C
:1020900000C000010400013A127108242814084B02
:1020A00000C458100840237C287004DBF4720DDD56
:1020B000EE7100C1401008401410F82114110158AD
:1020C00011280E7100C1781008400811076008112E
:1020D000308800B806989405009300C0780F00215E
:1020E000041102D90A7100C16C000840247900B9BA
:1020F000181000A000C0780F002104110449181026
:1021000000A00698460B115106983C0601B80298AB
:10211000940500C0FFFF000054144115013D076401
:102120000764013C0698D604508806985003009531
:1021300008B86C7800C0204008405A7859785B781D
:1021400000C1C80F0021141054A84EB010D8067159
:102150000298AE0A4DB100C09FFFFFFF113840B199
:1021600002D91472604800C1040000401112104AE4
:1021700004BB41540C70204802B903BA02BB02BC34
:102180004DA840A900C0F84008407078190C3EB135
:1021900041413EA900C1F4400840737973787178D9
:1021A00000C1C00F002100C400410840287000C2D7
:1021B0000000010044AA230C00C200000B0044AA46
:1021C00000C1C00F002100C22000004004BB00C4B9
:1021D0001841084000C0C83F0000141111382140C8
:1021E0000814050C114008140F0C2FAB050C042427
:1021F000B11008D8187100C01C40084079787B786D
:102200007A78042079787B787A78607CF42441139A
:1022100051140698D604727B00C04C410840050C4E
:10222000687840EC00C0900F00211DB1181000F834
:1022300000C068600840041100C000008000103831
:10224000047240EC00A0015053A80698300B4EB029
:1022500010D80A7200C4F8400840087000C4104149
:10226000084041130C23527C407BFC2301502FA8D3
:10227000050C341200C1FF3FC0E0113A28130A0CCC
:1022800000C000000100081406322813050C01509C
:10229000081408B86D7800A004D90471036002D94D
:1022A0000471016001D90471006000A0108804115C
:1022B000033008710761FF20FC721110FF3000919C
:1022C00000A0108804110230067107610761111027
:1022D00000C1FFFF00001138009100A0F7020000CC
:1022E000012100F01F029140DFF89C27400942F8CD
:1022F00020107047890001EB401000F1844002601B
:10230000704772B6DFF88407016811F1010F1CBF36
:10231000491C016000687047DFF87017086818B141
:10232000401E086000D162B6704710B50446FFF742
:10233000D7FF012004F01F018840DFF8541709E09F
:1023400010B50446FFF7CCFF012004F01F018840C0
:10235000DFF84017620941F8220010BD0122002178
:1023600001E001220521DFF83007C3E70122032144
:10237000F9E701460122DFF82407BBE7DFF8200771
:102380000168C90702D500220021B3E77047DFF8D2
:10239000141708604A6822EA00004860704771B567
:1023A00081B0DFF804070199826811400191019919
:1023B000016040F201109DF80410C9079DF8041057
:1023C00048BF40F2031089079DF8041048BF40F051
:1023D0000C0049079DF8041048BF40F010000907A1
:1023E0009DF8041048BF40F04000C9069DF8041055
:1023F00048BF40F4907089069DF8041048BF40F42F
:1024000080404906DFF8A4164A6848BF40F40050EF
:1024100082EA00031A400A6018404C6824EA02026B
:102420004A6008604A681043486000219DF8040033
:10243000C0099DF8050018BF4FF40051C20748BFFE
:1024400041F40071820748BF41F480614207DFF820
:102450006026536848BF41F4006100F035F85368C6
:10246000194351600021020748BF0421C0069DF8AE
:10247000060048BF41F00101C20748BF41F4000116
:102480008207DFF83026536848BF41F47F0100F02F
:102490001BF800245368DFF80C56194351600107FC
:1024A00048BFDFF81446C006686848BF44F480643B
:1024B00080EA04063040FFF76AFF04EA060028605D
:1024C00069680843686073BD83EA010423401360B0
:1024D0002140556825EA030353601160704710B529
:1024E00004460320FFF72CFF0420FFF729FF0620F6
:1024F000FFF726FF0520FFF723FF1C20FFF720FF33
:10250000DFF8A405446000222146826051B151F8F1
:10251000223023B183680124944023438360521CFA
:10252000152AF4D34FF0FF30FFF739FF0320FFF7F0
:10253000FCFE0420FFF7F9FE0620FFF7F6FE05205B
:10254000FFF7F3FEBDE810401C20EEE610B500F0EA
:1025500063FB0320FFF7F4FE0420FFF7F1FE1C20CD
:10256000FFF7EEFE1B20FFF7EBFE1E20FFF7E8FE55
:1025700000F026F9DFF844051B218160602101602D
:1025800000F0C3FEFFF7FAFE01200FF28D2100F0EC
:102590003CFC0FF23941022000F037FC0FF28D3184
:1025A000052000F032FC0FF25931072000F02DFC1D
:1025B00000F05DFADFF80845206840F00800206070
:1025C00000F0FDFE00F01FFF4FF44001002000F07E
:1025D0005BFF4FF40011012000F056FF01F08AF874
:1025E00001F0DFF90020606710BD10B50446FFF769
:1025F00088FE218860680023002200F044FCBDE8CA
:10260000104089E680B5FFF77CFE00F038FCBDE89D
:10261000014081E610B5DFF8AC44206810F0070FE8
:1026200003D100F002FD401E606100F001F810BD12
:10263000DFF88C04016821F020010160704780B54B
:10264000FFF75FFE032000F019FF10B900F037FF1D
:1026500018B1FFF761FE012002BDFFF7DBFFFFF7B6
:102660007DFEFFF759FE002002BD38B504460D4639
:1026700000F0D9FC24B1E9B2204600F0AAFC02E047
:10268000284600F0AAFC284632BDFEB50446DFF815
:10269000380406680D00274603D1204600F09DFC53
:1026A00032E0E1B200A800F094FC1421284601F0C9
:1026B000B9F9B10600A803D53F1FBFB23958296147
:1026C000F10606D5BF1EBFB2E9683A5A41EA024197
:1026D000E960310705D5BF1EBFB2E9683A5A114318
:1026E000E960710703D5BF1EBFB2395A2981B1070E
:1026F00004D57F1EBFB2395CC909A971F10703D5A2
:10270000791E89B2085668712046FEBD80B518B1A1
:10271000DFF8B813401E086000F02FFC28B900F065
:102720000AF802D0804700F01AFCFFF781FF012071
:10273000BDE802401DE6DFF870034068806C0100D0
:102740007047012101F0CDB880B500281CBFBDE85D
:102750000140FFF713BE00F015F8DFF864030168CD
:1027600041F020010160DFF834030168090A090221
:1027700001600120DFF85813086000F019F8BDE887
:102780000140EEE510B5DFF84C43206807E0002279
:1027900001212046FFF7AEFD022000F0F1FE0122EC
:1027A00001212046FFF7A6FD2068C007EFD410BD29
:1027B00000220121DFF81C039CE5012000F06CBE23
:1027C00080B5DFF814030168DFF8100300F0A5FA04
:1027D000DFF8EC02702101F025F9DFF8F8020021A2
:1027E00001604160816001F037F9002000F0A4FC35
:1027F000002000F0A7FC642000F095FC642000F0AD
:102800008BFC642000F082FC642000F06DFC6420EE
:10281000BDE8024000F062BC2DE9F041DFF8C042A3
:10282000DFF8C062206AE16ADFF87C7201EA000525
:102830007560E806A56208D578688068804700F072
:10284000D9FB38B11020606204E0680602D57868D0
:10285000C068804715F0030F08D0032000F0FFFD8B
:102860003878C00702D5786800688047E8052CD51D
:10287000DFF82882D8F8040000F07060B0F1C06F73
:1028800023D13878C00602D5786800698047206A6D
:10289000C00616D400F0EBFBFFF768FD306880053A
:1028A00003D50120FFF765FD04E000220121404629
:1028B000FFF720FD01220621DFF8DC01FFF71AFDFA
:1028C00003E0606A40F480706062680705D52068A4
:1028D000C00702D4786840688047280702D5786826
:1028E00040688047680402D5786840698047A8043A
:1028F00004D578688069BDE8F0410047BDE8F08103
:1029000038B5DFF8E40100F058F8DFF8AC01044214
:1029100003D06968C96C20468847600504D568689B
:10292000006DBDE83240004731BD000038B5DFF82A
:10293000BC0100F042F8E00702D56868006B8047F0
:10294000600702D56868C06A8047A00107D568782B
:10295000800602D56868406B804701F042FA60014A
:1029600007D56878400602D56868806B804701F01B
:1029700057FA200107D56878C00902D06868C06B93
:10298000804701F057FA14F47F0F15D004F47F0448
:10299000200207D5A878C00702D56868006C804778
:1029A00024F400046868416C080018BF002C03D0B0
:1029B0002046BDE83440084731BDDFF8EC500168DF
:1029C000C26802EA010484607047000038B5DFF88D
:1029D0002001FFF7F2FFA00402D56868C0698047B4
:1029E000A00502D56868006A8047600502D568685E
:1029F000406A8047200504D56868806ABDE8324097
:102A0000004731BD2E480168C908C90001602D4842
:102A10000168C908C900016001680160704710B50C
:102A20000446FFF7EFFF334824B9BDE810401821F2
:102A300000F0F8BF21784160617881600021C160B9
:102A400061680161A1684161617831B103E0C268E8
:102A5000521C4908C260CA07F9D520781B49401C9E
:102A600008601748016841F00701016010BD80B59A
:102A70004C21224800F0D6FF1F490020086001BD0C
:102A8000022000F0ECBC000080E200E054080020CE
:102A900000E100E080E100E008400840004008401C
:102AA0000C400840645008400C08002068000840B2
:102AB000886008401C400840001050004400084056
:102AC000FC0E0021040008404C000840180008409B
:102AD0002400084088400840DC2200000017000065
:102AE00040000840000F00215C500840144008409E
:102AF00080600840540F00218C080020080F00213E
:102B0000890001EB401000F184400260704772B60A
:102B1000DFF87006016811F1010F1CBF491C01604C
:102B200000687047DFF85C16086818B1401E08603E
:102B300000D162B6704770B500F014F832462946ED
:102B4000204600F001F80AE0920001F0EDBA70B5FD
:102B500000F008F832462946204600F007F8BDE8A4
:102B60007040DFE704460D461646D0E770B50023F7
:102B7000302606E0DFF810565C5C06FB00555B1C57
:102B8000AC619342F6D370BD10B5DFF8FC3530244C
:102B900004FB0030BDE81040012200212830AFE7DF
:102BA000DFF8E8050068C0B200B101207047DFF827
:102BB000E0050068000E00F00F00704780B500A827
:102BC000FEF704FDDFF8CC05DFF8CC15016148F213
:102BD000E67141604FF408610160DFF8C005DFF87D
:102BE000C01541609DF80120DFF8B815012A05D114
:102BF0009DF80020022ABCBF28228A644AF63F4280
:102C00000A604FF0C071DFF8A02511600021016655
:102C1000DFF89815016001BD10B582B000F0A8F88A
:102C200000200090AF23DFF8884522464FF48071E2
:102C3000012000F00BF94FF400500090202304F520
:102C400080724FF48071002000F000F900200090A5
:102C50003E2304F500724021022000F0F7F8002125
:102C6000002000F0E8F90021012000F0E4F9012142
:102C7000022000F0E0F90121032000F0DCF9DFF888
:102C80003405016821F0F0010160016841F0A00104
:102C9000016003200FF2412100F0B7F8DFF81815AA
:102CA00080200860DFF8141508600020FFF76CFF33
:102CB0000120FFF769FF0220FFF766FFDFF800053C
:102CC000016841F00B1141F420610160016821F4B9
:102CD00080610160FFF772FF0122DFF8E804DFF88E
:102CE000E844016841F0030101600021DFF8DC04E1
:102CF0000160016841F00101016020460821FFF7F1
:102D0000FFFE012209212046FFF7FAFE204602B00D
:102D1000BDE8104001220721F2E670B584B00446F8
:102D20000D46FFF744FFDFF8A8644FF00450F06150
:102D30002A460120306221464FF00450FFF7FBFE87
:102D4000DFF89004DFF89044DFF89054306000A87A
:102D50000ECC0EC00C3C9421284600F063FE00A867
:102D60000EC80EC43C2000F0A4F9404228657FBD87
:102D700080B50121DFF8680401F022FADFF864046D
:102D8000012101F01DFA0121DFF85C0401F018FABD
:102D9000DFF85804012101F013FA0121DFF8500493
:102DA00001F00EFADFF84C04012101F009FA0121CB
:102DB000DFF8440401F004FADFF84004BDE8044001
:102DC000012101F0FDB970B506460FF290440FF2F3
:102DD000844504E01A0F54F82220904708363368DF
:102DE00013F1010F0DD0C3F3036055F8200099B221
:102DF000C3F3074208437168022AEBD3FFF79BFE37
:102E0000ECE7BDE8704001F0B1B8DFF8F4231DE154
:102E1000DFF8EC0300680047DFF8E4034068004790
:102E200000E000BFDFF8D80340690047DFF8D003B7
:102E3000406A0047DFF8C803C0690047DFF8C003F5
:102E4000C0680047DFF8B8038068004710B5302439
:102E50006043DFF83443B1FA81F1C1F11901015146
:102E60000019426002991943416210BDDFF818133E
:102E7000302202FB0010006AC004C00C7047002220
:102E8000114600230846F8B504460D4616461F466F
:102E90000020FFF779FE2A46214600F05EF8CFB108
:102EA000DFF86003C5F580728281446092B2BA4255
:102EB00005808660478007D2314600F04EF8BDE8B5
:102EC000F8400122042155E03A463146BDE8F84079
:102ED00000203CE6F1BD000038B5DFF82C030168A6
:102EE000C26811408160C06800EA0104600718D51B
:102EF000DFF81053A8896A88A968121A411892B29B
:102F0000E12A06DBE02200F028F8A889E030A88159
:102F100007E000F022F800220421DFF8A402FFF706
:102F2000EFFD600548BF01F0ADF9DFF8E0020442B3
:102F300018BF00F026F814F0090F07D00122052170
:102F4000DFF8CC02FFF7DCFDFFF799FFA00744BFD5
:102F5000BDE83140FFF793BF31BD0020F7E5DFF852
:102F6000B412486000220A8018B101224FF4806137
:102F700000E07047DFF84802C2E5DFF898024068D9
:102F8000704780B5DFF88C12002008800120FFF721
:102F9000FBFDBDE802400220F6E5DFF87C02016897
:102FA00000208A0648BF0420CA0644BF801CC0B265
:102FB0000A0744BF801CC0B24A0744BF801CC0B28D
:102FC0008A0744BF401CC0B2C90744BF401CC0B2FE
:102FD00070470A46014601203BE010B582B0044626
:102FE00004E0012100A8FFF7F4FF641EA4B2002C46
:102FF000F7D113BD80B50220FFF738FF02288041CA
:10300000C043C00F02BD80B5FFF7F4FF10B94FF603
:10301000FF7002BD022200A9022000F01AF8BDF8DC
:103020000000C0B202BD012020E700201EE77B485F
:103030000068C0B270477A4A52F8203023F44073D7
:1030400042F8203052F8203043EA012142F82010A3
:10305000704710B5302405E04B4B04FB00335B692F
:1030600001F8013B13465A1E002BF5D110BD88E72D
:1030700001607047012243E5002241E502681143E7
:10308000016070470268514001607047026811405A
:103090000160704738B504460D46FFF738FD2068DB
:1030A0002840A842FBD1BDE831403BE5084601F08D
:1030B0002DB938B5002848BF00200446C517594827
:1030C00001F094F80246A2FB040102FB051101B0D5
:1030D000BDE830400023544A01F050B938B500F043
:1030E00012F8241A514D04E038B500F00CF8241AF7
:1030F0004F4D2046FFF7DDFF2880A4F11400FFF7B5
:10310000D8FF688031BD044600F0A7BE38B5FFF790
:10311000FAFF241A474DECE780B5001FFFF7C9FFFF
:103120004549086001BD80B544490880001FFFF78C
:10313000C0FF4349086001BD80B5FFF7BAFF4149B0
:10314000086001BD80B5FFF7B4FF3F49086001BDCD
:1031500038B5FFF7DCFCFFF723FD04463B48006869
:1031600000048515FFF71CFD0440FFF7DBFC15F597
:10317000007F02D1002CECD100E004B9344D284688
:1031800032BD0000540800200010084000400840F4
:103190000440084034410840C0E653119C400840B8
:1031A0007A27000F0830084028700840806D6303BC
:1031B000900400204000084080E200E000E100E0D0
:1031C000EC100840986008400C40084094400840CB
:1031D00060400840CC0F0021C00F00216C0F00217F
:1031E00000340600000406000044060000740600D7
:1031F0000064060000540600002406000084060057
:10320000B0070020F0070020E0100840000A0A0084
:1032100008400840280800204C000840441008409E
:10322000A00008406051070000127A00AC0F002196
:10323000A40F0021B80F0021B00F00219608002034
:103240009C0F0021A00F0021B40F0021087008403E
:1032500000FEFFFF00000840000000217130000068
:103260008D300000853000007D300000AD30000062
:1032700075300000793000009530000010B5040072
:103280002FD00121334800F09BFF33480121FDF787
:103290003CF8324960684860F82231488260E37A3D
:1032A000227A42EA0322A37B42EA03424260227866
:1032B000C2B902220A60072101600023617B207BE2
:1032C000042201F0F3F9217CE07B0023042201F0C9
:1032D000EDF9A17A607ABDE810400123042201F0E3
:1032E000E5B910BD012A03D10A6005210160EAE7B2
:1032F000022A04D105220A6001210160E9E7032ABC
:10330000E7D100220A60026010BD70B5154C134E63
:1033100025687168002049B10E4800F067FF7168A8
:1033200000EB5100B0FBF1F0401E00020E490A68AC
:1033300042F080420A6031680C4A2A401143084337
:10334000206070BD08490968002944BF0849086029
:103350007047000000340600002508002008002007
:10336000740008407C00084094400840FC00FFFFC7
:1033700080000840012100F01F029140DFF8402248
:10338000400942F820107047890001EB401000F11D
:1033900084400260704772B6DFF82802016811F1BC
:1033A000010F1CBF491C016000687047DFF8141250
:1033B000086818B1401E086000D162B6704738B581
:1033C000DFF804520121284600F0FAFEDFF8FC4144
:1033D000DFF8FC012060284600F008FF4FF47A7106
:1033E000B0FBF1F04002B0FBF1F0A0F58071090AEA
:1033F000C0B240EA0120A0624FF0FF3000F090F828
:10340000401E206331BD80B51C20FFF7B3FF71491A
:103410004FF0805008600122BDE8084000210BE019
:1034200080B51C20FFF7A6FF6B494FF08050086065
:103430000122BDE8084002216848A5E76848006805
:103440001FE0684800210160416081607047664A62
:1034500013680A1A3CBF581C82181046704710B5F2
:10346000044662480022002100EB0410FFF78CFFA5
:103470004FF480705E49A040086010BD5B490001B8
:10348000405800F00100704701F46001574A000104
:1034900041F0030181507047544901EB0010C068AE
:1034A000704780B52220FFF74DFFFFF774FF012220
:1034B00012214A48FFF768FFBDE8014076E7484817
:1034C000006810F0060018BF012070472DE9F04198
:1034D00000F052F84FF47A71B0FBF1F445480168FE
:1034E0000268C1F30F20401CA0FB0587D6B2002361
:1034F000A6FB0501FF2200F041FF18EB0000794117
:103500004FF47A72A2FB008702FB017700230021AF
:1035100018EB540079412246BDE8F04100F02EBF7F
:10352000F8B500F029F833490A680968C2F30F2298
:10353000521CC9B2C2EB02228C184FF47A71B0FB54
:10354000F1F0A5FB000110F5FA7041F100014FF414
:103550007A72002300F012FFFF22A2FB006702FB39
:1035600001770023002116EB54007941224601B077
:10357000BDE8F04000F002BF0546134800F036BE3B
:103580002DE9F843164CE568FFF7CAFF0646606A66
:1035900047082068C00701D40FE0361AB046BE4283
:1035A00088BFB846D4F80C9049462846FFF74FFF2D
:1035B0004045F7D3B0424D46EFD3BDE8F18300005C
:1035C00080E200E05408002000040600005008409B
:1035D0000011010000E100E080E100E0045008403B
:1035E0000C500840105008403050084074500840BB
:1035F0006450084028500840890001EB401000F159
:103600008440026070472DE9F34F464881B0056859
:103610000198002401F0DEF845F0CC00A84207D163
:103620004148C068C00703D4404800F017FE08B105
:1036300000205DE072B63E48006810F1010F02D034
:103640003B49401C086001223A4DDFF8ECA0D5F858
:103650000090DAF80080286820F06050286002218D
:10366000286840F0006028602420CAF800002E4836
:10367000FFF7C2FF314E4FF48047B7664FF48050DA
:10368000706207E001985A4600A9201800F04CFD2E
:103690005C44A4B2BDF80800844215DA306E4004E0
:1036A000FCD53068C005F9D5B766DAF8040000909B
:1036B000BDF80800001B0428BABFBDF80800A0EB45
:1036C000040B4FF0040BDDE7002202211648FFF740
:1036D00093FF1748CAF80080C5F80090B7660068E5
:1036E00020B11349401E086000D162B6BDF8080041
:1036F000BDE8FE8F80B5022100A8FFF784FF0228F5
:1037000001D0002002BDBDF800004FF60401884240
:1037100004BF401CADF80000BDF800000849086077
:10372000012002BDC8400E40004008406051070023
:103730005408002018600840840008400000084039
:10374000585008409F480068000E00F00F00704776
:1037500010B59E480168C90D01F00701012906D086
:103760000DD3032907D004D3042906D007E008218C
:1037700006E00C2104E0102102E0202100E00721F6
:10378000006810F0070003D0C01E012803D904E030
:1037900001EB410402E0CC0000E08C00FDF7E6FA0A
:1037A000B0FBF4F010BD8A480068C105C90D01F0F6
:1037B0000700C90811F0070F1CBF01F007025043B2
:1037C000C90818BF4843704782480068000900F0E4
:1037D000010080F001007047D0B50646FFF7E3FF17
:1037E000044600217C4822460B4600F0A5FD002738
:1037F0008F420DDB01DC86420AD300217748224646
:103800000B4600F099FDB94204DC01DBB04201D265
:103810000020D0BD0120D0BD2DE9F84504468A46E0
:10382000FFF7C1FF80462046FFF7D6FF69480168D1
:10383000B8F1010F0CBF21F0100141F0100101603F
:10384000FDF794FA08FB04F55F4E654F74600023A2
:103850000446690BE804224600F090FD3860FFF74B
:1038600077FF0246B2600023786800F48010009071
:10387000A8FB020100F02EF80103009850EA113075
:1038800078600023A8FB0A0100F024F8C6F80CA019
:103890003861307818B9786A00F03F0030705148CC
:1038A0000068C00613D531784F48504AB5FBF0F098
:1038B000514300FB00F240F253535A434CF20C6365
:1038C00003FB10204A4A1018B1FBF0F07862BDE803
:1038D000F14517E0C90441EA5031C004224600F026
:1038E0004DBD38B504460D46FFF72CFF0428FBD02C
:1038F0000A28F9D03F48046015B13F49802008608C
:10390000BDE831403EB50FF210113C4D1CC900A876
:103910002D491CC048688A68364B1018CA681B6855
:10392000096903FB0200364AB0FBF2F200ABD21881
:10393000012352789340B0FBF3F000EB5103B3FB4B
:10394000F1F14B1E2F490C682C4043EA02320C6007
:1039500000AD2D4B0C68B0FBF3F35B195B7842EACA
:10396000832222430A6000F001F837BD10B50446F7
:10397000FDF7FCF94000B4FBF0F0244A1368401E48
:10398000411C082928BF072123F4EE63082813608F
:1039900028BF07201368090241EA0010184310608D
:1039A00010BD1048016841F00401016070470649EC
:1039B0000861174908181749B0FBF1F0C01EC0B2E2
:1039C000FDF793BD044008402800002038600840FF
:1039D000343008403841084000371789007DDAACA0
:1039E0002C3008409440084000366E0180969800C4
:1039F000502D1900383008400840084000C2FFFF31
:103A000040BE4025A4400840401B5F1330400840A2
:103A100020A1070040420F0000000102020303033F
:103A200003000000002200F0D9BE10B450F8041BBF
:103A300081B102681218001D50F8043BDC0744BF36
:103A4000A9F10104E31852F8044B43F8044B091F91
:103A5000F9D1EBE710BC70470B480C4A416D006888
:103A600000020016C9B2FF2918BF10F1010F19BFDB
:103A700000EBD070401090210C2040189070022074
:103A80005070232010707047B081E00F810F00212B
:103A900010B504003BD0FFF76BF9DFF810050021EB
:103AA00000220B460EC02078DFF8041502281BD137
:103AB000086880022BD408222146DFF8F80400F0C1
:103AC00033FBE08800F0CCF900F02BF8B4F90200E9
:103AD00000F01FF8DFF8E0040168C908C9000160C0
:103AE00000F044FA012010BD012804D1086810F448
:103AF000400F0CD1DFE7DFF8C4040068096800F06C
:103B0000010080F0010001F480010843D3D00020BF
:103B100010BD80B500F002F9DFF89804B0F902009A
:103B200002BDDFF890040078022808BF00F03BB81F
:103B3000012808BF00F01BB8DFF88404016821F0F9
:103B400006010160016841F004010160C168C90813
:103B5000C900C160C16841F00501C160816821F000
:103B6000C0018160816841F0810181607047DFF8A8
:103B70005004DFF85024016821F00601016001685B
:103B800041F002010160C168C908C900C160C16893
:103B900041F00601C160816811408160416821F4F3
:103BA000404141607047DFF82004416821F4EE4154
:103BB0004160416841F48A414160016841F001017E
:103BC0000160704730B5DFF8E413DFF804340A68A9
:103BD0001A400A60C0F3431342F47C5242F0C80218
:103BE0000A6000F01F04C01300F00102DFF8C003F8
:103BF0000068C04300F4FE10B0FA80F0C0F113007A
:103C000098423CBF03461F240BB9012300E004B9CE
:103C1000012401259D4008686D1EEDB240EA853003
:103C20000860002A40EA0460086044EA4310DFF8B4
:103C3000A4130A6805D042F480020A6040F40040F0
:103C400030BD22F480020A6030BDB1F9002082420A
:103C5000B8BF1046A0F1C8026FF0270392FBF3F241
:103C6000082AA8BF072201EBC201091D01284B68E1
:103C7000B1F9021000FB0131A8BF01F5FA714FF450
:103C80007A70B1FBF0F0072A1FBFCA4909780229F0
:103C900040F400407047012231F83230834202D3B1
:103CA000521C082AF8D3521E01EBC20120F4004036
:103CB0004FF47A7250434A68B1F90210801A012811
:103CC000A8BF00F5FA7090FBF1F0704710B5B74A45
:103CD000C14B11680B4083281360BE490EDA1C0AE1
:103CE00004F47F5423431F2813600CDA0A68520837
:103CF00052000A608A69520852000BE043F47C5378
:103D000043F0C80313600A6842F001020A608A693E
:103D100042F001028A61BDE810403CE070B5A54C5C
:103D2000A24DB4F9041040182178012914D1296852
:103D3000A64A1140296006210FF2D43232F911301F
:103D4000984201DA491EF9D132F911602868491CFC
:103D500040EA0160286015E0627801B1921C0FF220
:103D6000A021442313FB02163146FFF76EFFFFF735
:103D700029FF212808BFB6F9026003D0311DFFF7E3
:103D80008AFF06463046FFF7A1FFA088301A608000
:103D90002868E06070BD10B5864A9049127ADAB1A1
:103DA000792819DB0A6F8E4B1A400A6793388D4ABF
:103DB000146823401360052390FBF3F00930800062
:103DC0000B6F40F4574003430B67136818431060B0
:103DD000086840F0080002E0086820F00800086069
:103DE00010BD38B57148764D01684A0821F47F113D
:103DF000016002F4FE1421430160FFF7E5FC28B1E5
:103E0000286820F47F102043286004E0A86920F48B
:103E10007F102043A8614FF000707349086031BDE6
:103E200064486249C06808607048016821F0806198
:103E30000160704738B56E4C614DFFF7C5FC18B195
:103E400028682040286002E0A8692040A8616748EF
:103E5000016821F00061016031BD5648C08870479B
:103E60007CB5544C06462078022808BF962503D01E
:103E700001280CBF3225B425F6B1FCF777FF642189
:103E8000B0FBF1F05B4970436943B1FBF0F04FF4D4
:103E90000041B1FBF0F04FF0FF3101E04008491C58
:103EA0000028FBD149B21029A8BF4FF4706005DA91
:103EB000002958BF080201D54FF480700FF260212D
:103EC000D1E90023CDE9002300902804019000A847
:103ED00000F010F800F01AF80546FCF747FF6421DF
:103EE000B0FBF1F042F210716943B1FBF0F0E080F9
:103EF000E08876BD404942684A600A68120B1203A6
:103F00000A600A68006810430860704730B53A4993
:103F10004A6848684B680C680D68D2B2000404F027
:103F20000F04000E096802FA04F4821AC5F303159F
:103F30001B02AA401B0E090A5211181A01F00F01A8
:103F400002EB6412884002EB601030BD03012B4A83
:103F500003F4F87300F0070018435060080100F400
:103F6000F87001F0070108431060704780B5FFF753
:103F70001AFC401E06D0801E01280CD9801E012884
:103F80000CD90EE00B480078012819BF042100204D
:103F90000421042007E00021002004E00321032085
:103FA00001E00A210F20BDE80440CFE7C00F002147
:103FB00088410E403C00002058410840D481E00F69
:103FC000004108403EFFBFFF204108403F00C0E0E5
:103FD000FF3FC0E00841084037C0FFFF9440084061
:103FE0008220FFFF1C4108401C4008402040084040
:103FF000FFFFDF7F00409C0068600840C40F002185
:10400000C800FCFE1F811D0B6ABDFBFFB0807F0551
:104010004A32FFFF74801603EA4B00005180B5015D
:1040200027B200003F80490184C500003280D100E2
:10403000F0C300002880740034B4000028004B0056
:10404000EAB500008C00FCFEFFFF0000000000004D
:104050001F8158114C42FAFFA180CA050197FFFF4A
:104060005D806A024CA4000041805701A7CC00008B
:104070003480E000BECA00002A808C00CABC000068
:1040800029005200B5B90000C800FCFE1F01C80B92
:104090007D30FBFFAB001C05035BFFFF7300FD02DF
:1040A000DC5500005300D501BEAF00003F001901F0
:1040B000E4C800003300AC0090C700002C006C0086
:1040C000B1BC00002700430046AF00009600FCFE94
:1040D000FFFF0000000000001F016D0FA182FAFF2A
:1040E0007E00C103791F00005500E401F4B1000017
:1040F00041003701C7C900003300C000CAC7000033
:104100002B006E00F7B90000260038008AA80000D6
:1041100083FFBFFFE2FFF1FFF9FFFEFF0000000099
:10412000000000000000000062B38B0708D0521EA0
:1041300011F8013B00F8013B00F024808B07F6D119
:10414000830740F0208000BF103A07D330B4B1E8B5
:104150003810103AA0E83810F9D230BC530724BF09
:10416000B1E80810A0E8081044BF51F8043B40F83B
:10417000043BD20724BF31F8022B20F8022B44BFA6
:104180000B7803707047083A07D3B1E80810083A73
:1041900040F8043B40F804CBF7D25307E4E750F86B
:1041A000041B61B150F8042BD30744BFA9F10103EC
:1041B0009A180023091F42F8043BFAD1EFE7704731
:1041C000021202F00F02012A02D0042A0AD00BE0E8
:1041D000284AC0F30430800000EB421000F1844014
:1041E00001607047244AF4E7FCF78FB810B510F46B
:1041F0007811224C0FD0B1F5003F23D0B1F5802FBC
:1042000012D0B1F5C02F15D0B1F5002F16D0B1F5F1
:10421000202F1BD01EE0FCF787FD2168C1F304218D
:10422000491CB0FBF1F010BDFCF77EFDE168C1F365
:104230000821F5E7FCF778FD2169F8E7BDE81040B3
:10424000FCF772BDFCF770FDA168F0E7FCF76CFDB0
:104250006169E3E7BDE81040FCF7A4B8C0F30311BF
:10426000062918BFFCF737B905480068C0F30820D5
:104270007047000000400E40C8400E4000410E4014
:1042800010410E4070B5FEF7CEFE05000FF26C0631
:10429000194C19E0E169002904BF227C002A12D0E0
:1042A00000F00F0300099B5D805D6269C01852FA3F
:1042B00080F06061A0690830A061481EE061FEF7EF
:1042C00047FF801020736D1E07D0FEF7B0FE616AB5
:1042D0000029DFD0481E6062F5E7A06962684FF0F0
:1042E000FF31904238BF08466060A2686069904222
:1042F00028BF0146A16070BD00000020000101023E
:1043000001020203010202030203030438B504465A
:10431000FFF794F8050003D1FFF751F8FFF773F8A2
:104320002046FFF72DF92DB9FFF77AF8BDE83140A7
:10433000FFF787B831BD000013F0004C03D55B4296
:10434000524263F100039CEA210C00F0178010B583
:10435000644603D34942404261F1000100F00EF887
:10436000640004D34942404261F10001244203D574
:104370005B42524263F1000310BD00001B4213D1A7
:10438000094236D12AB18446B0FBF2F002FB10C2DA
:10439000704700F03DBAFCD30022002370470B00A9
:1043A0000200002100207047904271EB030CF6D30D
:1043B00070B5B1FA81F4B3FA83F52C1BA340C4F1B4
:1043C000200532FA05F63343A2405FF00046E6408E
:1043D00002E05B085FEA3202841A71EB030524BF36
:1043E000204629467641F4D302000B00300000211C
:1043F00070BD012ACFD970B5140C20D0B1FA81F468
:10440000B2FA82F5C4F120046419B4F12006D6D3BF
:10441000B2405FF00044F440002502E052085FEA39
:104420003303C61A71EB020E24BF30467146644155
:104430006D41F3D302000B002000290070BD0C4633
:10444000B1FBF2F102FB11452D0445EA1045B5FB25
:10445000F2F402FB145580B240EA0545B5FBF2F0D8
:1044600002FB105240EA044070BD00008B0013EBC9
:10447000401313F184431A60704710F1C062116059
:10448000704710F180621160704770B504000D0034
:10449000160029002000FFF7F4FF31002000FFF78D
:1044A000ECFF70BD38B504000D00E4B2002C01D162
:1044B0003F201CE0E4B2012C02D14FF4784016E01A
:1044C000E4B2022C02D14FF47C6010E0E4B2032C81
:1044D00002D14FF47C400AE0E4B2042C01D1002068
:1044E00005E0E4B2052C01D1FF2000E000202841C6
:1044F00010F0010000222900DFF8B802E4B23023F6
:1045000003FB04000C30FFF7B1FF31BD38B50400E8
:104510000D00E4B2002C01D13F201CE0E4B2012CDC
:1045200002D14FF4784016E0E4B2022C02D14FF4ED
:104530007C6010E0E4B2032C02D14FF47C400AE02E
:10454000E4B2042C01D1002005E0E4B2052C01D135
:10455000FF2000E00020284110F001000122290086
:10456000DFF85002E4B2302303FB04000C30FFF705
:104570007DFF31BD2DE9F04706000F0090469946BA
:10458000089C099DF6B2002E01D13F201CE0F6B236
:10459000012E02D14FF4784016E0F6B2022E02D17D
:1045A0004FF47C6010E0F6B2032E02D14FF47C4051
:1045B0000AE0F6B2042E01D1002005E0F6B2052E85
:1045C00001D1FF2000E00020384110F001005FEA37
:1045D00098008000B9088900884201D1012000E0DC
:1045E0000020C0B2082F0FD2F6B23800C0B280004F
:1045F00016FA00F20F203900C9B2890010FA01F151
:104600006D48FFF742FF11E0B7F108008246F6B2AD
:104610005046C0B2800016FA00F20F205146C9B2CF
:10462000890010FA01F16548FFF72FFFB8F1080F74
:1046300010D217F003004146C9B2890010FA01F206
:1046400003204146C9B2890010FA01F15C48FFF726
:104650001CFF12E0B8F10800824617F00300514633
:10466000C9B2890010FA01F203205146C9B289008B
:1046700010FA01F15348FFF708FF5FFA89F94A463B
:1046800039005148FFF7F2FEE4B2220039004F48EA
:10469000FFF7ECFE0120B84045490860EDB22A0062
:1046A00039004B48FFF7E2FEBDE8F087F8B504009B
:1046B0000D0016001F00E4B2002C01D13F201CE0C9
:1046C000E4B2012C02D14FF4784016E0E4B2022C9F
:1046D00002D14FF47C6010E0E4B2032C02D14FF41D
:1046E0007C400AE0E4B2042C01D1002005E0E4B2F1
:1046F000052C01D1FF2000E00020284110F001002E
:10470000F6B2002E0CD0002F05D029002000C0B238
:10471000FFF7FCFE04E029002000C0B2FFF7C2FE54
:10472000082D19D22348E4B2302101FB040040686F
:104730000F212A00D2B2920091408843F6B229009C
:10474000C9B2890016FA01F108431A49E4B23022CD
:1047500002FB041148601AE01648E4B2302101FB64
:10476000040080680F212A00083AD2B292009140DA
:104770008843F6B229000839C9B2890016FA01F156
:1047800008430C49E4B2302202FB04118860F6B2FF
:10479000002E0CD1002F05D029002000C0B2FFF759
:1047A000B5FE04E029002000C0B2FFF77BFEF1BD9A
:1047B00024A4004000A0004000A4004004A4004045
:1047C00008A400400CA4004010A4004014A4004021
:1047D00028A40040002200F021B8000000B500BF6E
:1047E000130096469446103928BFA0E80C50FAD81A
:1047F0005FEA417C28BF0CC048BF40F8042BC907C2
:1048000028BF20F8022B48BF00F8012B00BD000094
:104810007047000062F30F2262F31F42401810F04D
:10482000030308D0C91A1FD3DB0748BF00F8012DC6
:1048300028BF20F8022D130030B414461546103955
:1048400028BF20E93C00FAD8490728BF20E90C001E
:1048500048BF40F8042D890028BF20F8022D48BF2A
:1048600000F8012D30BC7047C91818BF00F8012DA1
:10487000CB0728BF00F8012D70470000012110F080
:104880001F029140DFF8B02440B2430942F82310E0
:104890007047012110F01F029140DFF8A02440B2C0
:1048A000430942F8231070470100002904D0B1F5F4
:1048B000004F01D8012200E00022D2B2B1FA81F209
:1048C000D2F11F021000704772B6DFF8740400685E
:1048D00010F1010F06D0DFF868040068401CDFF813
:1048E00060140860DFF8580400687047DFF850046F
:1048F000006800280FD0DFF848040068401EDFF889
:1049000040241060DFF8380400680100002900D15D
:1049100062B6080000E000207047032801DA012198
:1049200000E00021C9B2DFF81C1411EB0010406850
:104930007047032801DA012200E00022D2B2DFF83A
:10494000042412EB001251607047DFF8FC0300688A
:104950007047DFF8F81308607047DFF8F413096850
:104960008143DFF8EC2311607047DFF8E413096836
:104970000143DFF8DC2311607047DFF8D8030068DB
:10498000704770B5DFF8D4030078002801D000200C
:1049900054E00120DFF8C41308700121DFF8C003E0
:1049A000FBF7B3FC0221DFF8BC03FBF78FFE082006
:1049B000FFF77AFFDFF8B01308710121DFF8AC03CD
:1049C000FBF7A3FCDFF8A00300F006FADFF8A01362
:1049D000012000F0DBF940F2FF70FFF7BEFF40F26C
:1049E000FF70FFF7B6FF0020DFF85C1308601D20A2
:1049F000FFF74FFF1D20FFF741FF0120FFF7B5FF35
:104A0000A0240025DFF850632A0021003000FFF7C2
:104A100001FF0020DFF85C1308700020DFF8581356
:104A200008700020DFF8541308600020DFF85013EE
:104A300008600020DFF84C130860002070BDF8B556
:104A4000FFF742FFFFF799FF040060072DD5012013
:104A5000DFF820130870FFF778FF06000420FFF747
:104A60007CFFDFF824030068301A0500280000F0FE
:104A700029F800F0F7F8300000F00FF9FFF765FFB4
:104A80000600C1480068301A05000120FFF745FF05
:104A9000BD490968401A0700B7480078002801D0CE
:104AA000AF42DBD30020B3490870E00707D50120EF
:104AB000FFF74FFFB2480068401CB1490860FFF79C
:104AC00015FFF1BDF0B400210A00042A80F2C8806D
:104AD0000021A14B282404FB023359779E49282347
:104AE00003FB0211097F002900F0B88000219A4BD6
:104AF000282404FB0233D3E90045A94212D801D38C
:104B0000A0420FD29449282303FB0211D1E90045AA
:104B10000021241A8D419049282303FB0211C1E989
:104B200000459BE08C49282303FB0211C97F002923
:104B300006D10021884B282404FB0233197780E03A
:104B40008549282303FB0211D1E900458249282326
:104B500003FB0211D1E902670021361A8F41A41923
:104B60007D417D49282303FB0211C1E900457A49B3
:104B7000282303FB02110969012931DB7649282327
:104B800003FB02114969744B282404FB02331B699F
:104B90005918714B282404FB023359616E492823AC
:104BA00003FB02114969F4294BD36B49282303FB0A
:104BB0000211D1E90045641C55F10005664928231E
:104BC00003FB0211C1E900456349282303FB0211DD
:104BD0004969F439604B282404FB0233596130E001
:104BE0005D49282303FB021149695B4B282404FB20
:104BF00002331B69C91A584B282404FB023359613C
:104C00005549282303FB02114969F42919D3524954
:104C1000282303FB0211D1E90045641E75F100054C
:104C20004D49282303FB0211C1E900454A492823C5
:104C300003FB02114969F439474B282404FB023372
:104C400059614549282303FB02118969002905D0D0
:104C50000121414B282404FB02335977521C34E7CD
:104C6000F0BC704710B500200400042C14DA3A4858
:104C7000282101FB0400407F00280BD03648282162
:104C800001FB0400016A2000334A282303FB0422AD
:104C900092699047641CE8E710BDF8B506005FF024
:104CA000FF345FF0FF3500200700042F1BDA2A488D
:104CB000282101FB0700007F002812D02648282168
:104CC00001FB0700D0E90023AB420AD801D3A2427E
:104CD00007D22148282101FB0700D0E90023140056
:104CE0001D007F1CE1E70020234908705FF0FF30C2
:104CF0005FF0FF318D4201D184421AD07FF0640011
:104D000000218D4203D801D3844200D202E07FF01B
:104D1000640400251C4806600420FFF71AFEA11950
:104D20000120FFF706FE0120134908700420FFF759
:104D30001CFEF1BD0000000000E100E080E200E0A8
:104D40005408002040200440082004402020044053
:104D50002420044018200440D00600209C08002095
:104D60000005080005001E00580000208009100002
:104D70006C0000209A0800209B0800207408002086
:104D8000780800207C0800207008002010B4032858
:104D900001DA012200E00022D2B24A79202A01D2AF
:104DA000012200E00022D2B20A784B7852EA830254
:104DB0008B7852EA8312CB7852EA03120B7952EACB
:104DC000C3224B7952EA03328B7952EA4342104BA9
:104DD0000401E25010BC70470178427851EA820128
:104DE000827851EA0211C27851EA4211027951EAFD
:104DF0000221427951EA0231827951EAC231C27903
:104E000051EA0241027A51EA4241024A1160704776
:104E10004020044000200440890001EB401000F1D4
:104E200084400260704772B6DFF82C04016811F10B
:104E3000010F1CBF491C016000687047DFF818149F
:104E4000086818B1401E086000D162B6704780B58E
:104E5000FDF7B3FCFEF73AFB009000A800F01EFB44
:104E600001BD2DE9F04786B00026FEF796F8824690
:104E7000FEF7C9F805464FF6FF7085426DD0A5EBE9
:104E80000A05ADB205F10C0000F022FB81461BE0E3
:104E900006F10A08AC1B009400AA4146484600F0FF
:104EA0003DFB0746009808B9002700943846009952
:104EB00089B2FDF7DAFB8619B6B207B900200246BF
:104EC0004146484600F02CFBAE42E1DB01A95046CA
:104ED000FDF7DBFB0C20009000AA0021484600F003
:104EE0001DFB060002D000980C2801D200222AE007
:104EF000DFF8680335814168DFF8641309683279A7
:104F0000C90901F0010181F0010102F0FD0242EA4C
:104F10004101317101220721FFF77EFF9DF80A0050
:104F200000B10120317901F0FE01084330719DF894
:104F3000090070710020B0710498FEF7C7FA306064
:104F40000C220020F0710021484600F0E9FA4846A2
:104F500000F0ADFA484600F0E4FA06B0BDE8F0878C
:104F600080B501220721DFF8F402FFF755FFBDE805
:104F70000240102000F0A4BA202000F0A1BA0220C4
:104F800000F0A0BA022000F09BBA042000F098BA0A
:104F9000DFF8D0020068000E00F00F0000F0C2BA87
:104FA000C00244BF402000F08BBA704710B50446E1
:104FB0000420FEF754FA600213D52720FEF7C2F949
:104FC000FDF720FBDFF8A002006800F07F40B0F1A1
:104FD000007F1CD101220121DFF89002FFF71CFFA6
:104FE00015E0E00204D5BDE810402820FEF7AAB97C
:104FF000E00411D5FEF755FADFF87402006810F4EA
:10500000A00F09D12A20FEF79DF9FDF7FBFABDE8B4
:105010001040042000F056BA10BD80B5DFF85412DD
:1050200001200871FDF72CFDBDE8014000F07CBABD
:1050300010B50446FBF79AFE6168884201D0012052
:1050400010BDFDF783FADFF82C42207840F007000E
:105050002070A07840F00800A07000F09AFAC00715
:1050600003D5A07840F00100A0700FF20C20FDF7EE
:1050700036FA2068FDF793F900F055FA002010BDCC
:105080000020FDF761BBDFF8DC01006800F0706014
:10509000B0F1807F18BFB0F1007F1CD0B0F1407F2D
:1050A00018BFB0F1806F16D0B0F1A06F1CBFB0F187
:1050B000C06FB0F1E06F0ED0B0F1006F18BFB0F16B
:1050C000106F0AD0B0F1206F1CBFB0F1306FB0F19B
:1050D000406F02D003E0012070470220704700209B
:1050E000704710B5FFF79FFE0320FEF7C7F910B910
:1050F000FEF7E5F910B1FFF7A1FE15E0DFF8640156
:105100000468FFF79BFE14F0404F0DD104F070606F
:10511000B0F1407F18BFB0F1C06F05D0B0F1106F93
:1051200018BFB0F1406F01D1002010BD012010BDAB
:1051300000B583B08188ADF800100068019000A828
:10514000FDF753FA00200EBDF8B504460D4616468D
:1051500000F061FA012810D0424FFFF7C2FF18B1EA
:10516000386810F0706FF7D1386810F0706F01D0A8
:105170000220F2BD2046FDF7E4FA280002D03046B6
:10518000A847F2BDFDF75BFA0020F2BD38B5374DF8
:1051900004462868000608BFFDF7F3FE00F03BFA5E
:1051A00001280FD0FFF79DFF18B1686810F0706FED
:1051B000F8D1686810F0706F01D0022032BD20462F
:1051C000FDF7BFFA0020FDF7A1FA002032BD80B53F
:1051D00028494A78430802F0FE0203F001031A430B
:1051E000830802F0FD0203F0010342EA4302C30810
:1051F00002F0FB0203F0010342EA83024A70030952
:105200000A7802F0F70203F0010342EAC3024309FD
:1052100002F0EF0203F0010342EA03120A70800970
:105220008A7802F0FD0200F0010042EA4000887036
:105230000868FDF7B4F8002002BD10B5044600F080
:10524000EAF9012803D06168A068FEF7E5FA0020BA
:1052500010BD012000F086B9540800206800084005
:105260006000084004400840000F00210040084052
:105270005C500840400800204F4E00007F4F000067
:10528000634E0000614F0000794F000000000000F5
:105290000000000000000000854F00008B4F000060
:1052A0000000000000000000914F0000000000001E
:1052B000000000000000000053520000A14F000059
:1052C00000000000AD4F00001B5000008248006845
:1052D000000EC0B270472DE9FC4105000E0017001A
:1052E0009846089CE4B201945FFA88F8CDF80080F3
:1052F0003B00DBB2320031002800C0B2FFF73AF9C0
:10530000BDE8F3812DE9F0415FF050175FF0000830
:10531000FFF7DCFF0600F6B28F2E15DA6F48006843
:10532000050055F004006D49086000200400062CBB
:1053300008D258EA07006A49302202FB04110860CB
:10534000641CF4E765480560F6B2902E07DA6548FC
:105350000068C009C00150F0200062490860BDE843
:10536000F08110B5040000F029F95F4850F82400DE
:1053700000F07CF95D4850F8240000F051F9002855
:1053800000D0FEE75A4850F8240000F051F959487F
:10539000046010BD0121584A1170704710B582B0E9
:1053A000FFF7B0FF00F06AF901215448FAF7ADFFAA
:1053B000042000F06BF900F0A1F90024022C0CDAB3
:1053C000012302224E4810EBC40041684C4810F8FB
:1053D0003400FFF76BF9641CF0E700230222072179
:1053E0000220FFF763F900F008FA46494448406894
:1053F000C0B200F010FA43494148C068C0B200F0A2
:105400000AFA4049072000F006FA01200090012323
:1054100000223B4841683A480078FFF75CFF0120D2
:105420000090012300223648C1683548007AFFF712
:1054300052FF012000900023012207210220FFF7E4
:105440004AFF314800F0AEF82A480068FFF789FFAC
:105450000021742000F02CFA2748007800280ED094
:1054600000202549087000F0A9F8284800F041FA0A
:105470000022002126480068C0B200F03CFA25480E
:1054800000780028E8D000202249087000F096F843
:105490001F480068C0B200F018FADDE710B504003C
:1054A000012000F047F901201A49087010BD10B51D
:1054B0000400002000F03EF901201649087010BDDC
:1054C00081067047810702D50121124A1170704789
:1054D0000100114870470000FC81E00FB0400E4011
:1054E00000A000402C400E40600800207800002002
:1054F0007C0000205C08002099080020002508009E
:10550000FC660000955300003C670000640000202A
:10551000580800208C0000209000002008187047D8
:1055200070477047704770477047704772B61B48A6
:10553000016811F1010F1CBF491C01600068704730
:105540001649086818B1401E086000D162B670475D
:1055500010B500F01CF81248446000210160BDE85D
:105560001040EDE710B500F012F80D4841680268F0
:1055700021400C0018BF012411430160FFF7E0FF38
:10558000002C1CBFBDE81040FFF7CFBF10BD044684
:10559000CCE7034840687047000000005408002032
:1055A0003008002010B50446A06800F00110FFF795
:1055B000CFFF2046BDE81040FFF73ABDFFF760BDC2
:1055C000FFF761BDF8B5154C616800291CBF0A687A
:1055D000002A11D0496879B100230C2505FB03F698
:1055E000B75AB84222BFB618768886423CBF5B1CC9
:1055F0008B42F3D38B4201D30020F2BDA16805FB9F
:10560000032081421CBFA060FFF717FEA068F2BD17
:105610000249486070470148006870470008002050
:1056200080B5FDF7D0FB124901200870002002BDB3
:1056300010B50446FFF7ECFF206841688068FEF76C
:10564000EBF8FEF7C1F8002814BF0A480A48FEF735
:10565000AEF90748017829B1002101704FF480307C
:10566000FFF780FF20680088C0B210BDFDF7D7B9F2
:105670009E080020C0CF6A00E067350080B500F0CA
:10568000C0F900F0ADFAFFF77CF901BD10B50400D8
:10569000600701D500F034FB002010BD10B4C0B28B
:1056A000002801D13F221CE0C0B2012802D14FF4F2
:1056B000784216E0C0B2022802D14FF47C6210E0BA
:1056C000C0B2032802D14FF47C420AE0C0B20428E1
:1056D00001D1002205E0C0B2052801D1FF2200E07F
:1056E00000220A4112F0010201228A401C4BC0B282
:1056F000302404FB00339A6110BC704710B50121BF
:105700001848FAF702FE01211748FAF7FEFD0020BB
:105710000400022C0CDA00230422144810EBC4000D
:105720004168124810F83400FEF7C0FF641CF0E72F
:10573000002010BD10B50400002C0CD4022C0ADA95
:105740000A4810EBC4004168084810F83400FFF71D
:10575000A5FF002001E05FF0FF3010BD0000000059
:1057600000A000404041050000250800DC66000064
:10577000012110F01F029140384A40B2430942F81B
:1057800023107047012110F01F029140344A40B2AB
:10579000430942F823107047324908607047324984
:1057A00009680800314909680840704772B63048F6
:1057B000006810F1010F04D02D480068401C2C49EE
:1057C00008602B48006870472948006800280CD002
:1057D00027480068401E264A1060254800680100DE
:1057E000002900D162B6080000E0002070470100E7
:1057F00091FAA1F0B0FA80F0704780B51120FFF760
:10580000C1FF1120FFF7B4FF0920FFF7BBFF0920FC
:10581000FFF7AEFF01BD38B504000D00FFF7C6FF6E
:105820001448E4B240F82450FFF7CEFF31BD70B504
:105830000400002C11D02000FFF7D9FF0500012043
:10584000A84084430B4850F825000600300000288B
:10585000EFD02800C0B2B047EBE770BD00E100E038
:1058600080E200E024A4004028A400401CA40040E2
:10587000540800207007002010B5FFF790FF45F294
:105880005551084004002000FFF786FF2000FFF775
:10589000CEFF10BD10B5FFF782FF4AF6AA210840DF
:1058A00004002000FFF778FF2000FFF7C0FF10BDC5
:1058B00010B50446FFF784FE012801D1022010BD77
:1058C0002046BDE81040FFF782BC10B50446FFF744
:1058D00008FC08B9022010BD2046FFF773FE08B986
:1058E000012010BD0088201ABDE81040C0B2FFF7AB
:1058F0004DBCFFF71DBC70B504460D461646FFF7BC
:10590000F0FB08B9022070BD2046FFF75BFE08B926
:10591000012070BD008832462946201ABDE870403B
:10592000C0B2FFF711BC00008B0013EB401313F162
:1059300084431A60704738B504000D00E4B2002CAF
:1059400001D13F201CE0E4B2012C02D14FF4784099
:1059500016E0E4B2022C02D14FF47C6010E0E4B215
:10596000032C02D14FF47C400AE0E4B2042C01D1B4
:10597000002005E0E4B2052C01D1FF2000E000206A
:10598000284110F00100002229007548E4B23023BC
:1059900003FB04000C30FFF7C7FF31BD38B504002E
:1059A0000D00E4B2002C01D13F201CE0E4B2012C38
:1059B00002D14FF4784016E0E4B2022C02D14FF449
:1059C0007C6010E0E4B2032C02D14FF47C400AE08A
:1059D000E4B2042C01D1002005E0E4B2052C01D191
:1059E000FF2000E00020284110F0010001222900E2
:1059F0005B48E4B2302303FB04000C30FFF794FF54
:105A000031BD00B591B00CA856491022FEF79CFBA1
:105A100007A855491422FEF797FB02A85349142200
:105A2000FEF792FB0CA8FBF748FB07A8FAF71EFF4E
:105A300002A8FDF723FC04211120FAF747FE0022FB
:105A400000210320FAF78CFF4948D0E90023CDE973
:105A5000002300A8FEF71CF8012201210120FAF71B
:105A60007FFF03214348FAF731FE03214248FAF74A
:105A70002DFE01214148FAF748FC00F002F811B070
:105A800000BD80B500F001F801BD80B501213C48A2
:105A9000FAF73BFC01213B48FAF737FC01213A4871
:105AA000FAF733FC39493A4800F092FA0B203949A9
:105AB0000860394839490860002304220621022081
:105AC000FEF7F4FD0023022207210220FEF7EEFD7F
:105AD0000023042208210220FEF7E8FD012304220E
